{
  "contractName": "ExchangeMeta",
  "abi": [
    {
      "anonymous": false,
      "inputs": [
        {
          "indexed": false,
          "internalType": "bytes32",
          "name": "hash",
          "type": "bytes32"
        },
        {
          "indexed": false,
          "internalType": "address",
          "name": "maker",
          "type": "address"
        },
        {
          "components": [
            {
              "internalType": "bytes4",
              "name": "assetClass",
              "type": "bytes4"
            },
            {
              "internalType": "bytes",
              "name": "data",
              "type": "bytes"
            }
          ],
          "indexed": false,
          "internalType": "struct LibAsset.AssetType",
          "name": "makeAssetType",
          "type": "tuple"
        },
        {
          "components": [
            {
              "internalType": "bytes4",
              "name": "assetClass",
              "type": "bytes4"
            },
            {
              "internalType": "bytes",
              "name": "data",
              "type": "bytes"
            }
          ],
          "indexed": false,
          "internalType": "struct LibAsset.AssetType",
          "name": "takeAssetType",
          "type": "tuple"
        }
      ],
      "name": "Cancel",
      "type": "event"
    },
    {
      "anonymous": false,
      "inputs": [
        {
          "indexed": false,
          "internalType": "bytes32",
          "name": "leftHash",
          "type": "bytes32"
        },
        {
          "indexed": false,
          "internalType": "bytes32",
          "name": "rightHash",
          "type": "bytes32"
        },
        {
          "indexed": false,
          "internalType": "address",
          "name": "leftMaker",
          "type": "address"
        },
        {
          "indexed": false,
          "internalType": "address",
          "name": "rightMaker",
          "type": "address"
        },
        {
          "indexed": false,
          "internalType": "uint256",
          "name": "newLeftFill",
          "type": "uint256"
        },
        {
          "indexed": false,
          "internalType": "uint256",
          "name": "newRightFill",
          "type": "uint256"
        },
        {
          "components": [
            {
              "internalType": "bytes4",
              "name": "assetClass",
              "type": "bytes4"
            },
            {
              "internalType": "bytes",
              "name": "data",
              "type": "bytes"
            }
          ],
          "indexed": false,
          "internalType": "struct LibAsset.AssetType",
          "name": "leftAsset",
          "type": "tuple"
        },
        {
          "components": [
            {
              "internalType": "bytes4",
              "name": "assetClass",
              "type": "bytes4"
            },
            {
              "internalType": "bytes",
              "name": "data",
              "type": "bytes"
            }
          ],
          "indexed": false,
          "internalType": "struct LibAsset.AssetType",
          "name": "rightAsset",
          "type": "tuple"
        }
      ],
      "name": "Match",
      "type": "event"
    },
    {
      "anonymous": false,
      "inputs": [
        {
          "indexed": true,
          "internalType": "bytes4",
          "name": "assetType",
          "type": "bytes4"
        },
        {
          "indexed": false,
          "internalType": "address",
          "name": "matcher",
          "type": "address"
        }
      ],
      "name": "MatcherChange",
      "type": "event"
    },
    {
      "anonymous": false,
      "inputs": [
        {
          "indexed": false,
          "internalType": "address",
          "name": "userAddress",
          "type": "address"
        },
        {
          "indexed": false,
          "internalType": "address payable",
          "name": "relayerAddress",
          "type": "address"
        },
        {
          "indexed": false,
          "internalType": "bytes",
          "name": "functionSignature",
          "type": "bytes"
        }
      ],
      "name": "MetaTransactionExecuted",
      "type": "event"
    },
    {
      "anonymous": false,
      "inputs": [
        {
          "indexed": true,
          "internalType": "address",
          "name": "previousOwner",
          "type": "address"
        },
        {
          "indexed": true,
          "internalType": "address",
          "name": "newOwner",
          "type": "address"
        }
      ],
      "name": "OwnershipTransferred",
      "type": "event"
    },
    {
      "anonymous": false,
      "inputs": [
        {
          "indexed": true,
          "internalType": "bytes4",
          "name": "assetType",
          "type": "bytes4"
        },
        {
          "indexed": false,
          "internalType": "address",
          "name": "proxy",
          "type": "address"
        }
      ],
      "name": "ProxyChange",
      "type": "event"
    },
    {
      "anonymous": false,
      "inputs": [
        {
          "components": [
            {
              "components": [
                {
                  "internalType": "bytes4",
                  "name": "assetClass",
                  "type": "bytes4"
                },
                {
                  "internalType": "bytes",
                  "name": "data",
                  "type": "bytes"
                }
              ],
              "internalType": "struct LibAsset.AssetType",
              "name": "assetType",
              "type": "tuple"
            },
            {
              "internalType": "uint256",
              "name": "value",
              "type": "uint256"
            }
          ],
          "indexed": false,
          "internalType": "struct LibAsset.Asset",
          "name": "asset",
          "type": "tuple"
        },
        {
          "indexed": false,
          "internalType": "address",
          "name": "from",
          "type": "address"
        },
        {
          "indexed": false,
          "internalType": "address",
          "name": "to",
          "type": "address"
        },
        {
          "indexed": false,
          "internalType": "bytes4",
          "name": "transferDirection",
          "type": "bytes4"
        },
        {
          "indexed": false,
          "internalType": "bytes4",
          "name": "transferType",
          "type": "bytes4"
        }
      ],
      "name": "Transfer",
      "type": "event"
    },
    {
      "inputs": [
        {
          "components": [
            {
              "internalType": "address",
              "name": "maker",
              "type": "address"
            },
            {
              "components": [
                {
                  "components": [
                    {
                      "internalType": "bytes4",
                      "name": "assetClass",
                      "type": "bytes4"
                    },
                    {
                      "internalType": "bytes",
                      "name": "data",
                      "type": "bytes"
                    }
                  ],
                  "internalType": "struct LibAsset.AssetType",
                  "name": "assetType",
                  "type": "tuple"
                },
                {
                  "internalType": "uint256",
                  "name": "value",
                  "type": "uint256"
                }
              ],
              "internalType": "struct LibAsset.Asset",
              "name": "makeAsset",
              "type": "tuple"
            },
            {
              "internalType": "address",
              "name": "taker",
              "type": "address"
            },
            {
              "components": [
                {
                  "components": [
                    {
                      "internalType": "bytes4",
                      "name": "assetClass",
                      "type": "bytes4"
                    },
                    {
                      "internalType": "bytes",
                      "name": "data",
                      "type": "bytes"
                    }
                  ],
                  "internalType": "struct LibAsset.AssetType",
                  "name": "assetType",
                  "type": "tuple"
                },
                {
                  "internalType": "uint256",
                  "name": "value",
                  "type": "uint256"
                }
              ],
              "internalType": "struct LibAsset.Asset",
              "name": "takeAsset",
              "type": "tuple"
            },
            {
              "internalType": "uint256",
              "name": "salt",
              "type": "uint256"
            },
            {
              "internalType": "uint256",
              "name": "start",
              "type": "uint256"
            },
            {
              "internalType": "uint256",
              "name": "end",
              "type": "uint256"
            },
            {
              "internalType": "bytes4",
              "name": "dataType",
              "type": "bytes4"
            },
            {
              "internalType": "bytes",
              "name": "data",
              "type": "bytes"
            }
          ],
          "internalType": "struct LibOrder.Order",
          "name": "order",
          "type": "tuple"
        }
      ],
      "name": "cancel",
      "outputs": [],
      "stateMutability": "nonpayable",
      "type": "function"
    },
    {
      "inputs": [],
      "name": "defaultFeeReceiver",
      "outputs": [
        {
          "internalType": "address",
          "name": "",
          "type": "address"
        }
      ],
      "stateMutability": "view",
      "type": "function"
    },
    {
      "inputs": [
        {
          "internalType": "address",
          "name": "userAddress",
          "type": "address"
        },
        {
          "internalType": "bytes",
          "name": "functionSignature",
          "type": "bytes"
        },
        {
          "internalType": "bytes32",
          "name": "sigR",
          "type": "bytes32"
        },
        {
          "internalType": "bytes32",
          "name": "sigS",
          "type": "bytes32"
        },
        {
          "internalType": "uint8",
          "name": "sigV",
          "type": "uint8"
        }
      ],
      "name": "executeMetaTransaction",
      "outputs": [
        {
          "internalType": "bytes",
          "name": "",
          "type": "bytes"
        }
      ],
      "stateMutability": "payable",
      "type": "function"
    },
    {
      "inputs": [
        {
          "internalType": "address",
          "name": "",
          "type": "address"
        }
      ],
      "name": "feeReceivers",
      "outputs": [
        {
          "internalType": "address",
          "name": "",
          "type": "address"
        }
      ],
      "stateMutability": "view",
      "type": "function"
    },
    {
      "inputs": [
        {
          "internalType": "bytes32",
          "name": "",
          "type": "bytes32"
        }
      ],
      "name": "fills",
      "outputs": [
        {
          "internalType": "uint256",
          "name": "",
          "type": "uint256"
        }
      ],
      "stateMutability": "view",
      "type": "function"
    },
    {
      "inputs": [
        {
          "internalType": "address",
          "name": "user",
          "type": "address"
        }
      ],
      "name": "getNonce",
      "outputs": [
        {
          "internalType": "uint256",
          "name": "nonce",
          "type": "uint256"
        }
      ],
      "stateMutability": "view",
      "type": "function"
    },
    {
      "inputs": [
        {
          "components": [
            {
              "internalType": "address",
              "name": "maker",
              "type": "address"
            },
            {
              "components": [
                {
                  "components": [
                    {
                      "internalType": "bytes4",
                      "name": "assetClass",
                      "type": "bytes4"
                    },
                    {
                      "internalType": "bytes",
                      "name": "data",
                      "type": "bytes"
                    }
                  ],
                  "internalType": "struct LibAsset.AssetType",
                  "name": "assetType",
                  "type": "tuple"
                },
                {
                  "internalType": "uint256",
                  "name": "value",
                  "type": "uint256"
                }
              ],
              "internalType": "struct LibAsset.Asset",
              "name": "makeAsset",
              "type": "tuple"
            },
            {
              "internalType": "address",
              "name": "taker",
              "type": "address"
            },
            {
              "components": [
                {
                  "components": [
                    {
                      "internalType": "bytes4",
                      "name": "assetClass",
                      "type": "bytes4"
                    },
                    {
                      "internalType": "bytes",
                      "name": "data",
                      "type": "bytes"
                    }
                  ],
                  "internalType": "struct LibAsset.AssetType",
                  "name": "assetType",
                  "type": "tuple"
                },
                {
                  "internalType": "uint256",
                  "name": "value",
                  "type": "uint256"
                }
              ],
              "internalType": "struct LibAsset.Asset",
              "name": "takeAsset",
              "type": "tuple"
            },
            {
              "internalType": "uint256",
              "name": "salt",
              "type": "uint256"
            },
            {
              "internalType": "uint256",
              "name": "start",
              "type": "uint256"
            },
            {
              "internalType": "uint256",
              "name": "end",
              "type": "uint256"
            },
            {
              "internalType": "bytes4",
              "name": "dataType",
              "type": "bytes4"
            },
            {
              "internalType": "bytes",
              "name": "data",
              "type": "bytes"
            }
          ],
          "internalType": "struct LibOrder.Order",
          "name": "orderLeft",
          "type": "tuple"
        },
        {
          "internalType": "bytes",
          "name": "signatureLeft",
          "type": "bytes"
        },
        {
          "components": [
            {
              "internalType": "address",
              "name": "maker",
              "type": "address"
            },
            {
              "components": [
                {
                  "components": [
                    {
                      "internalType": "bytes4",
                      "name": "assetClass",
                      "type": "bytes4"
                    },
                    {
                      "internalType": "bytes",
                      "name": "data",
                      "type": "bytes"
                    }
                  ],
                  "internalType": "struct LibAsset.AssetType",
                  "name": "assetType",
                  "type": "tuple"
                },
                {
                  "internalType": "uint256",
                  "name": "value",
                  "type": "uint256"
                }
              ],
              "internalType": "struct LibAsset.Asset",
              "name": "makeAsset",
              "type": "tuple"
            },
            {
              "internalType": "address",
              "name": "taker",
              "type": "address"
            },
            {
              "components": [
                {
                  "components": [
                    {
                      "internalType": "bytes4",
                      "name": "assetClass",
                      "type": "bytes4"
                    },
                    {
                      "internalType": "bytes",
                      "name": "data",
                      "type": "bytes"
                    }
                  ],
                  "internalType": "struct LibAsset.AssetType",
                  "name": "assetType",
                  "type": "tuple"
                },
                {
                  "internalType": "uint256",
                  "name": "value",
                  "type": "uint256"
                }
              ],
              "internalType": "struct LibAsset.Asset",
              "name": "takeAsset",
              "type": "tuple"
            },
            {
              "internalType": "uint256",
              "name": "salt",
              "type": "uint256"
            },
            {
              "internalType": "uint256",
              "name": "start",
              "type": "uint256"
            },
            {
              "internalType": "uint256",
              "name": "end",
              "type": "uint256"
            },
            {
              "internalType": "bytes4",
              "name": "dataType",
              "type": "bytes4"
            },
            {
              "internalType": "bytes",
              "name": "data",
              "type": "bytes"
            }
          ],
          "internalType": "struct LibOrder.Order",
          "name": "orderRight",
          "type": "tuple"
        },
        {
          "internalType": "bytes",
          "name": "signatureRight",
          "type": "bytes"
        }
      ],
      "name": "matchOrders",
      "outputs": [],
      "stateMutability": "payable",
      "type": "function"
    },
    {
      "inputs": [],
      "name": "owner",
      "outputs": [
        {
          "internalType": "address",
          "name": "",
          "type": "address"
        }
      ],
      "stateMutability": "view",
      "type": "function"
    },
    {
      "inputs": [],
      "name": "protocolFee",
      "outputs": [
        {
          "internalType": "uint256",
          "name": "",
          "type": "uint256"
        }
      ],
      "stateMutability": "view",
      "type": "function"
    },
    {
      "inputs": [],
      "name": "renounceOwnership",
      "outputs": [],
      "stateMutability": "nonpayable",
      "type": "function"
    },
    {
      "inputs": [],
      "name": "royaltiesRegistry",
      "outputs": [
        {
          "internalType": "contract IRoyaltiesProvider",
          "name": "",
          "type": "address"
        }
      ],
      "stateMutability": "view",
      "type": "function"
    },
    {
      "inputs": [
        {
          "internalType": "bytes4",
          "name": "assetType",
          "type": "bytes4"
        },
        {
          "internalType": "address",
          "name": "matcher",
          "type": "address"
        }
      ],
      "name": "setAssetMatcher",
      "outputs": [],
      "stateMutability": "nonpayable",
      "type": "function"
    },
    {
      "inputs": [
        {
          "internalType": "address payable",
          "name": "newDefaultFeeReceiver",
          "type": "address"
        }
      ],
      "name": "setDefaultFeeReceiver",
      "outputs": [],
      "stateMutability": "nonpayable",
      "type": "function"
    },
    {
      "inputs": [
        {
          "internalType": "address",
          "name": "token",
          "type": "address"
        },
        {
          "internalType": "address",
          "name": "wallet",
          "type": "address"
        }
      ],
      "name": "setFeeReceiver",
      "outputs": [],
      "stateMutability": "nonpayable",
      "type": "function"
    },
    {
      "inputs": [
        {
          "internalType": "uint256",
          "name": "newProtocolFee",
          "type": "uint256"
        }
      ],
      "name": "setProtocolFee",
      "outputs": [],
      "stateMutability": "nonpayable",
      "type": "function"
    },
    {
      "inputs": [
        {
          "internalType": "contract IRoyaltiesProvider",
          "name": "newRoyaltiesRegistry",
          "type": "address"
        }
      ],
      "name": "setRoyaltiesRegistry",
      "outputs": [],
      "stateMutability": "nonpayable",
      "type": "function"
    },
    {
      "inputs": [
        {
          "internalType": "bytes4",
          "name": "assetType",
          "type": "bytes4"
        },
        {
          "internalType": "address",
          "name": "proxy",
          "type": "address"
        }
      ],
      "name": "setTransferProxy",
      "outputs": [],
      "stateMutability": "nonpayable",
      "type": "function"
    },
    {
      "inputs": [
        {
          "internalType": "address",
          "name": "newOwner",
          "type": "address"
        }
      ],
      "name": "transferOwnership",
      "outputs": [],
      "stateMutability": "nonpayable",
      "type": "function"
    },
    {
      "inputs": [
        {
          "internalType": "contract INftTransferProxy",
          "name": "_transferProxy",
          "type": "address"
        },
        {
          "internalType": "contract IERC20TransferProxy",
          "name": "_erc20TransferProxy",
          "type": "address"
        },
        {
          "internalType": "uint256",
          "name": "newProtocolFee",
          "type": "uint256"
        },
        {
          "internalType": "address",
          "name": "newDefaultFeeReceiver",
          "type": "address"
        },
        {
          "internalType": "contract IRoyaltiesProvider",
          "name": "newRoyaltiesProvider",
          "type": "address"
        }
      ],
      "name": "__Exchange_init",
      "outputs": [],
      "stateMutability": "nonpayable",
      "type": "function"
    }
  ],
  "bytecode": "0x608060405234801561001057600080fd5b50614bbd806100206000396000f3fe6080604052600436106101145760003560e01c8063715018a6116100a0578063b39deb4611610064578063b39deb46146102c7578063e2864fe3146102e7578063e66db25e14610307578063e99a3f8014610327578063f2fde38b1461033a57610114565b8063715018a614610248578063787dce3d1461025d5780637ed4bc4e1461027d5780638da5cb5b1461029d578063b0e21e8a146102b257610114565b80632d0335ab116100e75780632d0335ab146101be57806330c642f1146101de5780633abf6fd4146101fe5780633be89922146102135780636d8f06941461023357610114565b806302097ab1146101195780630c53c51c1461014f5780631cdfe3d81461016f57806320158c4414610191575b600080fd5b34801561012557600080fd5b50610139610134366004613e86565b61035a565b60405161014691906144e4565b60405180910390f35b61016261015d366004614113565b610376565b60405161014691906145b4565b34801561017b57600080fd5b5061018f61018a366004613e86565b6106d9565b005b34801561019d57600080fd5b506101b16101ac3660046141bf565b61075e565b60405161014691906148ff565b3480156101ca57600080fd5b506101b16101d9366004613e86565b610771565b3480156101ea57600080fd5b5061018f6101f93660046141d7565b61078d565b34801561020a57600080fd5b5061013961085d565b34801561021f57600080fd5b5061018f61022e366004613e86565b61086d565b34801561023f57600080fd5b506101396108f2565b34801561025457600080fd5b5061018f610902565b34801561026957600080fd5b5061018f6102783660046141bf565b6109ae565b34801561028957600080fd5b5061018f6102983660046141f4565b610a16565b3480156102a957600080fd5b50610139610b2d565b3480156102be57600080fd5b506101b1610b3d565b3480156102d357600080fd5b5061018f6102e23660046141d7565b610b44565b3480156102f357600080fd5b5061018f61030236600461438e565b610c08565b34801561031357600080fd5b5061018f6103223660046140db565b610cdb565b61018f6103353660046143c0565b610d6c565b34801561034657600080fd5b5061018f610355366004613e86565b610e28565b610164602052600090815260409020546001600160a01b031681565b6060600061038386610f2b565b90506000356001600160e01b031990811690821614156103d45760405162461bcd60e51b815260040180806020018281038252603d815260200180614a2a603d913960400191505060405180910390fd5b604080516060810182526001600160a01b03891660008181526101936020908152908490205483528201529081018790526104128882888888610f4b565b61044d5760405162461bcd60e51b8152600401808060200182810382526021815260200180614b676021913960400191505060405180910390fd5b6001600160a01b03881660009081526101936020526040902054610472906001611035565b61019360008a6001600160a01b03166001600160a01b0316815260200190815260200160002081905550600080306001600160a01b0316898b6040516020018083805190602001908083835b602083106104dd5780518252601f1990920191602091820191016104be565b6001836020036101000a038019825116818451168082178552505050505050905001826001600160a01b031660601b8152601401925050506040516020818303038152906040526040518082805190602001908083835b602083106105535780518252601f199092019160209182019101610534565b6001836020036101000a0380198251168184511680821785525050505050509050019150506000604051808303816000865af19150503d80600081146105b5576040519150601f19603f3d011682016040523d82523d6000602084013e6105ba565b606091505b509150915081610611576040805162461bcd60e51b815260206004820152601c60248201527f46756e6374696f6e2063616c6c206e6f74207375636365737366756c00000000604482015290519081900360640190fd5b7f5845892132946850460bff5a0083f71031bc5bf9aadcd40f1de79423eac9b10b8a338b60405180846001600160a01b03168152602001836001600160a01b0316815260200180602001828103825283818151815260200191508051906020019080838360005b83811015610690578181015183820152602001610678565b50505050905090810190601f1680156106bd5780820380516001836020036101000a031916815260200191505b5094505050505060405180910390a19998505050505050505050565b6106e1611098565b6001600160a01b03166106f2610b2d565b6001600160a01b03161461073b576040805162461bcd60e51b81526020600482018190526024820152600080516020614b47833981519152604482015290519081900360640190fd5b61016380546001600160a01b0319166001600160a01b0392909216919091179055565b61012f6020526000908152604090205481565b6001600160a01b03166000908152610193602052604090205490565b610795611098565b6001600160a01b03166107a6610b2d565b6001600160a01b0316146107ef576040805162461bcd60e51b81526020600482018190526024820152600080516020614b47833981519152604482015290519081900360640190fd5b6001600160e01b031982166000818152609760205260409081902080546001600160a01b0319166001600160a01b038516179055517f4b5aced933c0c9a88aeac3f0b3b72c5aaf75df8ebaf53225773248c4c3153593906108519084906144e4565b60405180910390a25050565b610163546001600160a01b031681565b610875611098565b6001600160a01b0316610886610b2d565b6001600160a01b0316146108cf576040805162461bcd60e51b81526020600482018190526024820152600080516020614b47833981519152604482015290519081900360640190fd5b61016280546001600160a01b0319166001600160a01b0392909216919091179055565b610162546001600160a01b031681565b61090a611098565b6001600160a01b031661091b610b2d565b6001600160a01b031614610964576040805162461bcd60e51b81526020600482018190526024820152600080516020614b47833981519152604482015290519081900360640190fd5b6033546040516000916001600160a01b0316907f8be0079c531659141344cd1fd0a4f28419497f9722a3daafe3b4186f6b6457e0908390a3603380546001600160a01b0319169055565b6109b6611098565b6001600160a01b03166109c7610b2d565b6001600160a01b031614610a10576040805162461bcd60e51b81526020600482018190526024820152600080516020614b47833981519152604482015290519081900360640190fd5b61016155565b600054610100900460ff1680610a2f5750610a2f6110a7565b80610a3d575060005460ff16155b610a785760405162461bcd60e51b815260040180806020018281038252602e815260200180614ad6602e913960400191505060405180910390fd5b600054610100900460ff16158015610aa3576000805460ff1961ff0019909116610100171660011790555b610aab6110b8565b610ab361115a565b610abd8686611253565b610ac88484846112fd565b610ad06113d9565b610b136040518060400160405280600881526020016745786368616e676560c01b815250604051806040016040528060018152602001603160f81b8152506114a9565b8015610b25576000805461ff00191690555b505050505050565b6033546001600160a01b03165b90565b6101615481565b610b4c611098565b6001600160a01b0316610b5d610b2d565b6001600160a01b031614610ba6576040805162461bcd60e51b81526020600482018190526024820152600080516020614b47833981519152604482015290519081900360640190fd5b6001600160e01b031982166000818152606560205260409081902080546001600160a01b0319166001600160a01b038516179055517fd2bf91075f105d0fd80328da28e20ebdad1c1261839711183bc29a44cbe6c72f906108519084906144e4565b80516001600160a01b0316610c1b611098565b6001600160a01b031614610c4a5760405162461bcd60e51b8152600401610c4190614837565b60405180910390fd5b6080810151610c6b5760405162461bcd60e51b8152600401610c41906146a2565b6000610c7682611539565b600081815261012f602090815260409182902060001990558451908501515160608601515192519394507fbbdc98cb2835f4f846e6a63700d0498b4674f0e8858fd50c6379314227afa04e93610ccf9386939291614511565b60405180910390a15050565b610ce3611098565b6001600160a01b0316610cf4610b2d565b6001600160a01b031614610d3d576040805162461bcd60e51b81526020600482018190526024820152600080516020614b47833981519152604482015290519081900360640190fd5b6001600160a01b0391821660009081526101646020526040902080546001600160a01b03191691909216179055565b610d76848461161c565b610d80828261161c565b60408401516001600160a01b031615610dcc5783604001516001600160a01b031682600001516001600160a01b031614610dcc5760405162461bcd60e51b8152600401610c41906147cc565b60408201516001600160a01b031615610e185783600001516001600160a01b031682604001516001600160a01b031614610e185760405162461bcd60e51b8152600401610c41906146d0565b610e228483611633565b50505050565b610e30611098565b6001600160a01b0316610e41610b2d565b6001600160a01b031614610e8a576040805162461bcd60e51b81526020600482018190526024820152600080516020614b47833981519152604482015290519081900360640190fd5b6001600160a01b038116610ecf5760405162461bcd60e51b8152600401808060200182810382526026815260200180614a046026913960400191505060405180910390fd5b6033546040516001600160a01b038084169216907f8be0079c531659141344cd1fd0a4f28419497f9722a3daafe3b4186f6b6457e090600090a3603380546001600160a01b0319166001600160a01b0392909216919091179055565b6000815160001415610f3f57506000610f46565b5060208101515b919050565b6000806001610f61610f5c886117cc565b61184f565b84878760405160008152602001604052604051808581526020018460ff1681526020018381526020018281526020019450505050506020604051602081039080840390855afa158015610fb8573d6000803e3d6000fd5b5050604051601f1901519150506001600160a01b038116611014576040805162461bcd60e51b8152602060048201526011602482015270496e76616c6964207369676e617475726560781b604482015290519081900360640190fd5b866001600160a01b0316816001600160a01b03161491505095945050505050565b60008282018381101561108f576040805162461bcd60e51b815260206004820152601b60248201527f536166654d6174683a206164646974696f6e206f766572666c6f770000000000604482015290519081900360640190fd5b90505b92915050565b60006110a261189b565b905090565b60006110b2306118f7565b15905090565b600054610100900460ff16806110d157506110d16110a7565b806110df575060005460ff16155b61111a5760405162461bcd60e51b815260040180806020018281038252602e815260200180614ad6602e913960400191505060405180910390fd5b600054610100900460ff16158015611145576000805460ff1961ff0019909116610100171660011790555b8015611157576000805461ff00191690555b50565b600054610100900460ff168061117357506111736110a7565b80611181575060005460ff16155b6111bc5760405162461bcd60e51b815260040180806020018281038252602e815260200180614ad6602e913960400191505060405180910390fd5b600054610100900460ff161580156111e7576000805460ff1961ff0019909116610100171660011790555b60006111f1611098565b603380546001600160a01b0319166001600160a01b038316908117909155604051919250906000907f8be0079c531659141344cd1fd0a4f28419497f9722a3daafe3b4186f6b6457e0908290a3508015611157576000805461ff001916905550565b60976020527f4532fa16f071d6234e30e1a1e69b9806f04095edf37a1ca7a25c8d6af7861cc080546001600160a01b039283166001600160a01b0319918216179091557f30a684095c937b5aa064dcf94f9903a7d808e3efb22d8389dbd43080ad4ed3d5805493909216928116831790915563025ceed960e61b6000527f4b5822151ea34b7c8d9e37c3e466bcecb631efe6a9f26a4a4054110a93dd316f80549091169091179055565b600054610100900460ff168061131657506113166110a7565b80611324575060005460ff16155b61135f5760405162461bcd60e51b815260040180806020018281038252602e815260200180614ad6602e913960400191505060405180910390fd5b600054610100900460ff1615801561138a576000805460ff1961ff0019909116610100171660011790555b61016184905561016380546001600160a01b038086166001600160a01b0319928316179092556101628054928516929091169190911790558015610e22576000805461ff001916905550505050565b600054610100900460ff16806113f257506113f26110a7565b80611400575060005460ff16155b61143b5760405162461bcd60e51b815260040180806020018281038252602e815260200180614ad6602e913960400191505060405180910390fd5b600054610100900460ff16158015611466576000805460ff1961ff0019909116610100171660011790555b6111456040518060400160405280600881526020016745786368616e676560c01b815250604051806040016040528060018152602001601960f91b8152506118fd565b7f36c25de3e541d5d970f66e4210d728721220fff5c077cc6cd008b3a0c62adab782805190602001208280519060200120306114e36119be565b60405160200180868152602001858152602001848152602001836001600160a01b031681526020018281526020019550505050505060405160208183030381529060405280519060200120610194819055505050565b80516020820151516000919061154e906119c8565b60608401515161155d906119c8565b846080015185610100015160405160200180866001600160a01b0316815260200185815260200184815260200183815260200180602001828103825283818151815260200191508051906020019080838360005b838110156115c95781810151838201526020016115b1565b50505050905090810190601f1680156115f65780820380516001836020036101000a031916815260200191505b509650505050505050604051602081830303815290604052805190602001209050919050565b61162582611a32565b61162f8282611afc565b5050565b6000806116408484611d85565b91509150600061164f85611539565b9050600061165c85611539565b9050600061166987611e1e565b9050600061167687611e1e565b90506000611688898987878787611eda565b905060008061169c8989858e8e8a8a612005565b8a5191935091506001600160e01b0319166355575f5d60e11b141561171b5787516001600160e01b0319166355575f5d60e11b14156116da57600080fd5b813410156116fa5760405162461bcd60e51b8152600401610c419061480f565b813411156117165761171661170f34846121ad565b339061220a565b61176a565b87516001600160e01b0319166355575f5d60e11b141561176a57803410156117555760405162461bcd60e51b8152600401610c419061480f565b8034111561176a5761176a61170f34836121ad565b7f268820db288a211986b26a8fda86b1e0046281b21206936bb0e61c67b5c79ef487878d600001518d60000151876020015188600001518f8f6040516117b7989796959493929190614558565b60405180910390a15050505050505050505050565b60006040518060800160405280604381526020016149c160439139805190602001208260000151836020015184604001518051906020012060405160200180858152602001848152602001836001600160a01b03168152602001828152602001945050505050604051602081830303815290604052805190602001209050919050565b60006118596122a2565b82604051602001808061190160f01b81525060020183815260200182815260200192505050604051602081830303815290604052805190602001209050919050565b6000333014156118f257600080368080601f0160208091040260200160405190810160405280939291908181526020018383808284376000920191909152505050503601516001600160a01b03169150610b3a9050565b503390565b3b151590565b600054610100900460ff168061191657506119166110a7565b80611924575060005460ff16155b61195f5760405162461bcd60e51b815260040180806020018281038252602e815260200180614ad6602e913960400191505060405180910390fd5b600054610100900460ff1615801561198a576000805460ff1961ff0019909116610100171660011790555b825160208085019190912083519184019190912060c99190915560ca5580156119b9576000805461ff00191690555b505050565b60006110a26122a9565b8051602091820151805190830120604080517f452a0dc408cb0d27ffc3b3caff933a5208040a53a9dbecd8d89cad2c0d40e00c818601526001600160e01b031990931683820152606080840192909252805180840390920182526080909201909152805191012090565b60a08101511580611a465750428160a00151105b611a97576040805162461bcd60e51b815260206004820152601d60248201527f4f726465722073746172742076616c69646174696f6e206661696c6564000000604482015290519081900360640190fd5b60c08101511580611aab5750428160c00151115b611157576040805162461bcd60e51b815260206004820152601b60248201527f4f7264657220656e642076616c69646174696f6e206661696c65640000000000604482015290519081900360640190fd5b6080820151611b9a5781516001600160a01b031615611b815781516001600160a01b0316611b28611098565b6001600160a01b031614611b7c576040805162461bcd60e51b815260206004820152601660248201527536b0b5b2b91034b9903737ba103a3c1039b2b73232b960511b604482015290519081900360640190fd5b611b95565b611b89611098565b6001600160a01b031682525b61162f565b81516001600160a01b0316611bad611098565b6001600160a01b03161461162f576000611bc6836122ad565b90506000825160411415611bea57611be783611be18461239d565b906123a7565b90505b83516001600160a01b03828116911614610e22578351611c12906001600160a01b03166118f7565b15611d4e578351630b135d3f60e11b906001600160a01b0316631626ba7e611c398561239d565b866040518363ffffffff1660e01b81526004018083815260200180602001828103825283818151815260200191508051906020019080838360005b83811015611c8c578181015183820152602001611c74565b50505050905090810190601f168015611cb95780820380516001836020036101000a031916815260200191505b50935050505060206040518083038186803b158015611cd757600080fd5b505afa158015611ceb573d6000803e3d6000fd5b505050506040513d6020811015611d0157600080fd5b50516001600160e01b03191614611d495760405162461bcd60e51b815260040180806020018281038252602b815260200180614aab602b913960400191505060405180910390fd5b610e22565b60405162461bcd60e51b8152600401808060200182810382526022815260200180614a896022913960400191505060405180910390fd5b611d8d613ab9565b611d95613ab9565b602084015151606084015151611dab919061241d565b80519092506001600160e01b031916611dd65760405162461bcd60e51b8152600401610c41906147a0565b606084015151602084015151611dec919061241d565b80519091506001600160e01b031916611e175760405162461bcd60e51b8152600401610c41906147a0565b9250929050565b611e26613ad1565b60e08201516001600160e01b0319166323d235ef60e01b1415611e5857611e5182610100015161245d565b9050611ec1565b60e08201516001600160e01b03199081161415611e7457611ec1565b6040805162461bcd60e51b815260206004820152601760248201527f556e6b6e6f776e204f7264657220646174612074797065000000000000000000604482015290519081900360640190fd5b805151610f46578151611ed390612479565b8152919050565b611ee2613af4565b6000611eee8887612514565b90506000611efc8887612514565b90506000611f168a8a85858a604001518a60400151612541565b905060008160200151118015611f2c5750805115155b611f485760405162461bcd60e51b8152600401610c4190614740565b60808a015115611f9f57856040015115611f7e578051611f69908490611035565b600089815261012f6020526040902055611f9f565b6020810151611f8e908490611035565b600089815261012f60205260409020555b608089015115611ff657846040015115611fd8576020810151611fc3908390611035565b600088815261012f6020526040902055611ff6565b8051611fe5908390611035565b600088815261012f60205260409020555b925050505b9695505050505050565b600080600061201c8a600001518a600001516125c7565b885160208a015190945092509050600181600281111561203857fe5b14156120b15787518751612071919087878e8e7f1a0388dd7519a093630516a672419a2562e0e74deb98af068657dc265f0164c9612698565b92506120ac898960200151886000015188600001517fb45a3ba14423c8f1b71cc094845ab56b5294dbe8d8e3ba53f3cdb63d59a4044b61275c565b6121a0565b60028160028111156120bf57fe5b1415612133576120fc8860200151876000015186888d8f7fb45a3ba14423c8f1b71cc094845ab56b5294dbe8d8e3ba53f3cdb63d59a4044b612698565b8851885186519294506120ac928d9291907f1a0388dd7519a093630516a672419a2562e0e74deb98af068657dc265f0164c961275c565b875187518551612167928d9290917f1a0388dd7519a093630516a672419a2562e0e74deb98af068657dc265f0164c961275c565b6121a0898960200151886000015188600001517fb45a3ba14423c8f1b71cc094845ab56b5294dbe8d8e3ba53f3cdb63d59a4044b61275c565b5097509795505050505050565b600082821115612204576040805162461bcd60e51b815260206004820152601e60248201527f536166654d6174683a207375627472616374696f6e206f766572666c6f770000604482015290519081900360640190fd5b50900390565b6040516000906001600160a01b0384169083908381818185875af1925050503d8060008114612255576040519150601f19603f3d011682016040523d82523d6000602084013e61225a565b606091505b50509050806119b9576040805162461bcd60e51b815260206004820152600f60248201526e1d1c985b9cd9995c8819985a5b1959608a1b604482015290519081900360640190fd5b6101945490565b4690565b60007f477ed43b8020849b755512278536c3766a3b4ab547519949a75f483372493f8d82600001516122e28460200151612901565b84604001516122f48660600151612901565b86608001518760a001518860c001518960e001518a610100015180519060200120604051602001808b81526020018a6001600160a01b03168152602001898152602001886001600160a01b03168152602001878152602001868152602001858152602001848152602001836001600160e01b03191681526020018281526020019a5050505050505050505050604051602081830303815290604052805190602001209050919050565b6000611859612971565b600081516041146123ff576040805162461bcd60e51b815260206004820152601f60248201527f45434453413a20696e76616c6964207369676e6174757265206c656e67746800604482015290519081900360640190fd5b60208201516040830151606084015160001a611ffb868285856129ac565b612425613ab9565b60006124318484612c02565b80519091506001600160e01b0319166124565761244e8385612c02565b915050611092565b9050611092565b612465613ad1565b8180602001905181019061109291906142d8565b60408051600180825281830190925260609160009190816020015b61249c613b0e565b81526020019060019003908161249457905050905082816000815181106124bf57fe5b6020026020010151600001906001600160a01b031690816001600160a01b031681525050612710816000815181106124f357fe5b6020908102919091018101516001600160601b039092169101529050919050565b600082608001516000141561252b57506000611092565b50600090815261012f6020526040902054919050565b612549613af4565b600080612557898887612e1e565b915091506000806125698a8988612e1e565b915091508381111561259c5761259184848c60200151602001518d6060015160200151612e98565b945050505050611ffb565b6125b88b60200151602001518c60600151602001518484612f1d565b9b9a5050505050505050505050565b60006001600160e01b031983166355575f5d60e11b14156125ea57506001611092565b6001600160e01b031982166355575f5d60e11b141561260b57506002611092565b6001600160e01b031983166322ba176160e21b141561262c57506001611092565b6001600160e01b031982166322ba176160e21b141561264d57506002611092565b6001600160e01b0319831663025ceed960e61b141561266e57506001611092565b6001600160e01b0319821663025ceed960e61b141561268f57506002611092565b50600092915050565b60006126ac88610161548860200151612fa3565b905060006126bd828a8a8887613016565b90506126cd8585838c8c88613112565b905061270285828b8a602001518c887fdfdfdaf4cc275341b6776a7ee23b953990b8d991717449077287da70f32cf955613185565b508091505061273a85828b89602001518c887fdfdfdaf4cc275341b6776a7ee23b953990b8d991717449077287da70f32cf955613185565b508091505061275085828a89600001518761275c565b50979650505050505050565b600084815b600185510381101561284c5760006127a286838151811061277e57fe5b6020026020010151602001516001600160601b03168961324690919063ffffffff16565b90506127d78683815181106127b357fe5b6020026020010151602001516001600160601b03168561103590919063ffffffff16565b93508015612843576127e983826121ad565b925061284360405180604001604052808b8152602001838152508888858151811061281057fe5b602002602001015160000151887fa10bb5b2060a412d05113732875a5431ca23453eb93f797e0ffcb5b40e5f2c3e61325e565b50600101612761565b5060008460018651038151811061285f57fe5b6020026020010151905061288981602001516001600160601b03168461103590919063ffffffff16565b925082612710146128ac5760405162461bcd60e51b8152600401610c4190614769565b81156128f7576128f760405180604001604052808a815260200184815250878360000151877fa10bb5b2060a412d05113732875a5431ca23453eb93f797e0ffcb5b40e5f2c3e61325e565b5050505050505050565b60007fdb6f72e915676cfc289da13bc4ece054fd17b1df6d77ffc4a60510718c236b0861293183600001516119c8565b8360200151604051602001808481526020018381526020018281526020019350505050604051602081830303815290604052805190602001209050919050565b60006110a27f8b73c3c69bb8fe3d512ecc4cf759cc79239f7b179b0ffacaa9a75d522b39400f61299f6135e5565b6129a76135eb565b6135f1565b60007f7fffffffffffffffffffffffffffffff5d576e7357a4501ddfe92f46681b20a0821115612a0d5760405162461bcd60e51b8152600401808060200182810382526022815260200180614a676022913960400191505060405180910390fd5b6000601e8560ff161115612ae7576004850360ff16601b1480612a3657506004850360ff16601c145b612a715760405162461bcd60e51b8152600401808060200182810382526022815260200180614b046022913960400191505060405180910390fd5b6001612a7c87613654565b60048703868660405160008152602001604052604051808581526020018460ff1681526020018381526020018281526020019450505050506020604051602081039080840390855afa158015612ad6573d6000803e3d6000fd5b505050602060405103519050612b9e565b8460ff16601b1480612afc57508460ff16601c145b612b375760405162461bcd60e51b8152600401808060200182810382526022815260200180614b046022913960400191505060405180910390fd5b60018686868660405160008152602001604052604051808581526020018460ff1681526020018381526020018281526020019450505050506020604051602081039080840390855afa158015612b91573d6000803e3d6000fd5b5050506020604051035190505b6001600160a01b038116612bf9576040805162461bcd60e51b815260206004820152601860248201527f45434453413a20696e76616c6964207369676e61747572650000000000000000604482015290519081900360640190fd5b95945050505050565b612c0a613ab9565b825182516001600160e01b031982166355575f5d60e11b1415612c75576001600160e01b031981166355575f5d60e11b1415612c4a578492505050611092565b5050604080518082018252600080825282516020818101909452908152918101919091529050611092565b6001600160e01b031982166322ba176160e21b1415612cba576001600160e01b031981166322ba176160e21b1415612c4a57612cb185856136a5565b92505050611092565b6001600160e01b031982166339d690a360e11b1415612cf6576001600160e01b031981166339d690a360e11b1415612c4a57612cb185856136a5565b6001600160e01b0319821663025ceed960e61b1415612d32576001600160e01b0319811663025ceed960e61b1415612c4a57612cb185856136a5565b6001600160e01b031982166000908152606560205260409020546001600160a01b03168015612de7576040516306d3f7cb60e41b81526001600160a01b03821690636d3f7cb090612d89908990899060040161485c565b60006040518083038186803b158015612da157600080fd5b505afa158015612db5573d6000803e3d6000fd5b505050506040513d6000823e601f3d908101601f19168201604052612ddd919081019061424d565b9350505050611092565b6001600160e01b03198381169083161415612e0657612ddd86866136a5565b60405162461bcd60e51b8152600401610c4190614634565b6000808215612e5d576020808601510151612e3990856121ad565b9150612e5685606001516020015186602001516020015184613702565b9050612e90565b606085015160200151612e7090856121ad565b9050612e8d85602001516020015186606001516020015183613702565b91505b935093915050565b612ea0613af4565b6000612ead858585613702565b905085811115612f04576040805162461bcd60e51b815260206004820152601860248201527f66696c6c4c6566743a20756e61626c6520746f2066696c6c0000000000000000604482015290519081900360640190fd5b5050604080518082019091529384525050602082015290565b612f25613af4565b6000612f32838787613702565b905083811115612f89576040805162461bcd60e51b815260206004820152601960248201527f66696c6c52696768743a20756e61626c6520746f2066696c6c00000000000000604482015290519081900360640190fd5b604080518082019091529283526020830152509392505050565b6000612fb9612fb28585613246565b8590611035565b905060005b825181101561300e57613004612ffd848381518110612fd957fe5b6020026020010151602001516001600160601b03168761324690919063ffffffff16565b8390611035565b9150600101612fbe565b509392505050565b600080600061303c888861303760026101615461376890919063ffffffff16565b6137c1565b909250905080156131075784516000906001600160e01b0319166322ba176160e21b141561308357856020015180602001905181019061307c9190613ea2565b90506130bc565b85516001600160e01b03191663025ceed960e61b14156130bc57600086602001518060200190518101906130b791906140ae565b509150505b613105604051806040016040528088815260200184815250886130de846137e3565b887ff87e69cb514f255f3d32f9d90f25160a10d0cdefe6618a6406db334d4450595c61325e565b505b509695505050505050565b60008061311e87613822565b90506000806131528a8989868a8a7fb3c5c697ec0b511b76d12f6293e6ee827b1e1df79ac7c64d0466d945904893d7613185565b915091506113888111156131785760405162461bcd60e51b8152600401610c419061466b565b5098975050505050505050565b856000805b86518110156121a0576131c68782815181106131a257fe5b6020026020010151602001516001600160601b03168361103590919063ffffffff16565b91506000806131f6858b8b86815181106131dc57fe5b6020026020010151602001516001600160601b03166137c1565b9095508592509050801561323c5761323c60405180604001604052808e815260200183815250898b868151811061322957fe5b6020026020010151600001518a8a61325e565b505060010161318a565b600061108f6127106132588585613768565b9061399b565b8451516001600160e01b0319166355575f5d60e11b1415613297576020850151613292906001600160a01b0385169061220a565b61359f565b8451516001600160e01b0319166322ba176160e21b14156133755760008560000151602001518060200190518101906132d09190613ea2565b6322ba176160e21b600052609760209081527f4532fa16f071d6234e30e1a1e69b9806f04095edf37a1ca7a25c8d6af7861cc0549088015160405163776062c360e01b81529293506001600160a01b039091169163776062c39161333d9185918a918a919060040161460a565b600060405180830381600087803b15801561335757600080fd5b505af115801561336b573d6000803e3d6000fd5b505050505061359f565b8451516001600160e01b0319166339d690a360e11b1415613475576000808660000151602001518060200190518101906133af91906140ae565b9150915086602001516001146133d75760405162461bcd60e51b8152600401610c4190614714565b6339d690a360e11b60005260976020527f30a684095c937b5aa064dcf94f9903a7d808e3efb22d8389dbd43080ad4ed3d554604051637b84dc8360e11b81526001600160a01b039091169063f709b9069061343c9085908a908a90879060040161460a565b600060405180830381600087803b15801561345657600080fd5b505af115801561346a573d6000803e3d6000fd5b50505050505061359f565b8451516001600160e01b03191663025ceed960e61b141561351e576000808660000151602001518060200190518101906134af91906140ae565b63025ceed960e61b600052609760209081527f4b5822151ea34b7c8d9e37c3e466bcecb631efe6a9f26a4a4054110a93dd316f54908a0151604051639c1c2ee960e01b81529395509193506001600160a01b031691639c1c2ee99161343c9186918b918b9188916004016145c7565b8451516001600160e01b031916600090815260976020526040908190205490516354bc0cf160e01b81526001600160a01b03909116906354bc0cf19061356c90889088908890600401614881565b600060405180830381600087803b15801561358657600080fd5b505af115801561359a573d6000803e3d6000fd5b505050505b7fcae9d16f553e92058883de29cb3135dbc0c1e31fd7eace79fef1d80577fe482e85858585856040516135d69594939291906148b4565b60405180910390a15050505050565b60c95490565b60ca5490565b60008383836135fe6122a9565b3060405160200180868152602001858152602001848152602001838152602001826001600160a01b03168152602001955050505050506040516020818303038152906040528051906020012090505b9392505050565b604080517f19457468657265756d205369676e6564204d6573736167653a0a333200000000602080830191909152603c8083019490945282518083039094018452605c909101909152815191012090565b6136ad613ab9565b602080840151805190820120838201518051920191909120808214156136d7578492505050611092565b5050604080518082018252600080825282516020808201909452908152918101919091529392505050565b600061370f848484613a02565b15613752576040805162461bcd60e51b815260206004820152600e60248201526d3937bab73234b7339032b93937b960911b604482015290519081900360640190fd5b613760836132588685613768565b949350505050565b60008261377757506000611092565b8282028284828161378457fe5b041461108f5760405162461bcd60e51b8152600401808060200182810382526021815260200180614b266021913960400191505060405180910390fd5b6000806137d7856137d28686613246565b613a91565b91509150935093915050565b6001600160a01b0380821660009081526101646020526040812054909116801561380e579050610f46565b5050610163546001600160a01b0316919050565b80516060906001600160e01b03191663025ceed960e61b1480613856575081516001600160e01b0319166339d690a360e11b145b1561390c57600080836020015180602001905181019061387691906140ae565b61016254604051634e53ee3d60e11b81529294509092506001600160a01b031690639ca7dc7a906138ad90859085906004016144f8565b600060405180830381600087803b1580156138c757600080fd5b505af11580156138db573d6000803e3d6000fd5b505050506040513d6000823e601f3d908101601f19168201604052613903919081019061418d565b92505050610f46565b81516001600160e01b03191662737ea960e61b141561394f5760008083602001518060200190518101906139409190613ebe565b608001519350610f4692505050565b81516001600160e01b03191663d8f960c160e01b14156139935760008083602001518060200190518101906139849190613fbb565b606001519350610f4692505050565b506060919050565b60008082116139f1576040805162461bcd60e51b815260206004820152601a60248201527f536166654d6174683a206469766973696f6e206279207a65726f000000000000604482015290519081900360640190fd5b8183816139fa57fe5b049392505050565b600082613a49576040805162461bcd60e51b815260206004820152601060248201526f6469766973696f6e206279207a65726f60801b604482015290519081900360640190fd5b811580613a54575083155b15613a615750600061364d565b60008380613a6b57fe5b8584099050613a7a8584613768565b613a86826103e8613768565b101595945050505050565b60008082841115613ab057613aa684846121ad565b9150829050611e17565b50600093915050565b60408051808201909152600081526060602082015290565b604051806060016040528060608152602001606081526020016000151581525090565b604051806040016040528060008152602001600081525090565b604080518082019091526000808252602082015290565b8035610f4681614995565b600082601f830112613b40578081fd5b81516020613b55613b508361492b565b614908565b82815281810190858301855b85811015613b8a57613b78898684518b0101613ca9565b84529284019290840190600101613b61565b5090979650505050505050565b600082601f830112613ba7578081fd5b81516020613bb7613b508361492b565b82815281810190858301604080860288018501891015613bd5578687fd5b865b86811015613c445781838b031215613bed578788fd5b81518281018181106001600160401b0382111715613c0757fe5b83528351613c1481614995565b8152838701516001600160601b0381168114613c2e57898afd5b8188015285529385019391810191600101613bd7565b509198975050505050505050565b8035610f46816149aa565b600082601f830112613c6d578081fd5b8135613c7b613b5082614948565b818152846020838601011115613c8f578283fd5b816020850160208301379081016020019190915292915050565b600082601f830112613cb9578081fd5b8151613cc7613b5082614948565b818152846020838601011115613cdb578283fd5b613760826020830160208701614969565b60006040808385031215613cfe578182fd5b80518181016001600160401b038282108183111715613d1957fe5b818452829450853581811115613d2e57600080fd5b8601808803851315613d3f57600080fd5b608084018381108382111715613d5157fe5b909452833593613d60856149aa565b93825260208401359381851115613d7657600080fd5b613d8288868301613c5d565b60608501525050815260209384013593019290925292915050565b6000610120808385031215613db0578182fd5b613db981614908565b915050613dc582613b25565b815260208201356001600160401b0380821115613de157600080fd5b613ded85838601613cec565b6020840152613dfe60408501613b25565b60408401526060840135915080821115613e1757600080fd5b613e2385838601613cec565b60608401526080840135608084015260a084013560a084015260c084013560c0840152613e5260e08501613c52565b60e084015261010091508184013581811115613e6d57600080fd5b613e7986828701613c5d565b8385015250505092915050565b600060208284031215613e97578081fd5b813561108f81614995565b600060208284031215613eb3578081fd5b815161108f81614995565b60008060408385031215613ed0578081fd5b8251613edb81614995565b60208401519092506001600160401b0380821115613ef7578283fd5b9084019060c08287031215613f0a578283fd5b613f1460c0614908565b82518152602083015182811115613f29578485fd5b613f3588828601613ca9565b60208301525060408301516040820152606083015182811115613f56578485fd5b613f6288828601613b97565b606083015250608083015182811115613f79578485fd5b613f8588828601613b97565b60808301525060a083015182811115613f9c578485fd5b613fa888828601613b30565b60a0830152508093505050509250929050565b60008060408385031215613fcd578182fd5b8251613fd881614995565b60208401519092506001600160401b0380821115613ff4578283fd5b9084019060a08287031215614007578283fd5b61401160a0614908565b82518152602083015182811115614026578485fd5b61403288828601613ca9565b602083015250604083015182811115614049578485fd5b61405588828601613b97565b60408301525060608301518281111561406c578485fd5b61407888828601613b97565b60608301525060808301518281111561408f578485fd5b61409b88828601613b30565b6080830152508093505050509250929050565b600080604083850312156140c0578182fd5b82516140cb81614995565b6020939093015192949293505050565b600080604083850312156140ed578182fd5b82356140f881614995565b9150602083013561410881614995565b809150509250929050565b600080600080600060a0868803121561412a578081fd5b853561413581614995565b945060208601356001600160401b0381111561414f578182fd5b61415b88828901613c5d565b9450506040860135925060608601359150608086013560ff8116811461417f578182fd5b809150509295509295909350565b60006020828403121561419e578081fd5b81516001600160401b038111156141b3578182fd5b61376084828501613b97565b6000602082840312156141d0578081fd5b5035919050565b600080604083850312156141e9578182fd5b82356140f8816149aa565b600080600080600060a0868803121561420b578283fd5b853561421681614995565b9450602086013561422681614995565b935060408601359250606086013561423d81614995565b9150608086013561417f81614995565b60006020828403121561425e578081fd5b81516001600160401b0380821115614274578283fd5b9083019060408286031215614287578283fd5b60405160408101818110838211171561429c57fe5b60405282516142aa816149aa565b81526020830151828111156142bd578485fd5b6142c987828601613ca9565b60208301525095945050505050565b6000602082840312156142e9578081fd5b81516001600160401b03808211156142ff578283fd5b9083019060608286031215614312578283fd5b60405160608101818110838211171561432757fe5b604052825182811115614338578485fd5b61434487828601613b97565b825250602083015182811115614358578485fd5b61436487828601613b97565b60208301525060408301519250821515831461437e578384fd5b6040810192909252509392505050565b60006020828403121561439f578081fd5b81356001600160401b038111156143b4578182fd5b61376084828501613d9d565b600080600080608085870312156143d5578182fd5b84356001600160401b03808211156143eb578384fd5b6143f788838901613d9d565b9550602087013591508082111561440c578384fd5b61441888838901613c5d565b9450604087013591508082111561442d578384fd5b61443988838901613d9d565b9350606087013591508082111561444e578283fd5b5061445b87828801613c5d565b91505092959194509250565b6000815180845261447f816020860160208601614969565b601f01601f19169290920160200192915050565b600063ffffffff60e01b82511683526020820151604060208501526137606040850182614467565b60008151604084526144d06040850182614493565b602093840151949093019390935250919050565b6001600160a01b0391909116815260200190565b6001600160a01b03929092168252602082015260400190565b8481526001600160a01b038416602082015260806040820181905260009061453b90830185614493565b828103606084015261454d8185614493565b979650505050505050565b888152602081018890526001600160a01b038781166040830152861660608201526080810185905260a0810184905261010060c082018190526000906145a083820186614493565b905082810360e08401526125b88185614493565b60006020825261108f6020830184614467565b6001600160a01b03958616815293851660208501529190931660408301526060820192909252608081019190915260c060a0820181905260009082015260e00190565b6001600160a01b039485168152928416602084015292166040820152606081019190915260800190565b60208082526017908201527f6e6f7420666f756e64204941737365744d617463686572000000000000000000604082015260600190565b6020808252601d908201527f526f79616c746965732061726520746f6f206869676820283e35302529000000604082015260600190565b6020808252601490820152730c081cd85b1d0818d85b89dd081899481d5cd95960621b604082015260600190565b60208082526024908201527f72696768744f726465722e74616b657220766572696669636174696f6e2066616040820152631a5b195960e21b606082015260800190565b60208082526012908201527132b9319b9918903b30b63ab29032b93937b960711b604082015260600190565b6020808252600f908201526e1b9bdd1a1a5b99c81d1bc8199a5b1b608a1b604082015260600190565b6020808252601e908201527f53756d207061796f75747320427073206e6f7420657175616c20313030250000604082015260600190565b6020808252601290820152710c2e6e6cae8e640c8dedc4ee840dac2e8c6d60731b604082015260600190565b60208082526023908201527f6c6566744f726465722e74616b657220766572696669636174696f6e206661696040820152621b195960ea1b606082015260800190565b6020808252600e908201526d0dcdee840cadcdeeaced040cae8d60931b604082015260600190565b6020808252600b908201526a3737ba10309036b0b5b2b960a91b604082015260600190565b60006040825261486f6040830185614493565b8281036020840152612bf98185614493565b60006060825261489460608301866144bb565b6001600160a01b0394851660208401529290931660409091015292915050565b600060a082526148c760a08301886144bb565b6001600160a01b0396871660208401529490951660408201526001600160e01b03199283166060820152911660809091015292915050565b90815260200190565b6040518181016001600160401b038111828210171561492357fe5b604052919050565b60006001600160401b0382111561493e57fe5b5060209081020190565b60006001600160401b0382111561495b57fe5b50601f01601f191660200190565b60005b8381101561498457818101518382015260200161496c565b83811115610e225750506000910152565b6001600160a01b038116811461115757600080fd5b6001600160e01b03198116811461115757600080fdfe4d6574615472616e73616374696f6e2875696e74323536206e6f6e63652c616464726573732066726f6d2c62797465732066756e6374696f6e5369676e6174757265294f776e61626c653a206e6577206f776e657220697320746865207a65726f206164647265737366756e6374696f6e5369676e61747572652063616e206e6f74206265206f6620657865637574654d6574615472616e73616374696f6e206d6574686f6445434453413a20696e76616c6964207369676e6174757265202773272076616c75656f72646572207369676e617475726520766572696669636174696f6e206572726f72636f6e7472616374206f72646572207369676e617475726520766572696669636174696f6e206572726f72496e697469616c697a61626c653a20636f6e747261637420697320616c726561647920696e697469616c697a656445434453413a20696e76616c6964207369676e6174757265202776272076616c7565536166654d6174683a206d756c7469706c69636174696f6e206f766572666c6f774f776e61626c653a2063616c6c6572206973206e6f7420746865206f776e65725369676e657220616e64207369676e617475726520646f206e6f74206d61746368a2646970667358221220003483c10788c416a4733618eebe19ff332c3350a7e8c3597df80051eb8d304764736f6c63430007060033",
  "immutableReferences": {},
  "source": "// SPDX-License-Identifier: MIT\n\npragma solidity 0.7.6;\npragma abicoder v2;\n\nimport \"./ExchangeCore.sol\";\nimport \"./SipherTransferManager.sol\";\nimport \"@sipher/meta-tx/contracts/EIP712MetaTransaction.sol\";\nimport \"@sipher/royalties/contracts/IRoyaltiesProvider.sol\";\n\ncontract ExchangeMeta is\n    ExchangeCore,\n    SipherTransferManager,\n    EIP712MetaTransaction\n{\n    function __Exchange_init(\n        INftTransferProxy _transferProxy,\n        IERC20TransferProxy _erc20TransferProxy,\n        uint256 newProtocolFee,\n        address newDefaultFeeReceiver,\n        IRoyaltiesProvider newRoyaltiesProvider\n    ) external initializer {\n        __Context_init_unchained();\n        __Ownable_init_unchained();\n        __TransferExecutor_init_unchained(_transferProxy, _erc20TransferProxy);\n        __SipherTransferManager_init_unchained(\n            newProtocolFee,\n            newDefaultFeeReceiver,\n            newRoyaltiesProvider\n        );\n        __OrderValidator_init_unchained();\n        __MetaTransaction_init_unchained(\"Exchange\", \"1\");\n    }\n\n    function _msgSender()\n        internal\n        view\n        virtual\n        override(ContextUpgradeable, EIP712MetaTransaction)\n        returns (address payable)\n    {\n        return super._msgSender();\n    }\n}\n",
  "sourcePath": "/Users/vule/SIPHER/sc/protocol-contracts/exchange-v2/contracts/ExchangeMeta.sol",
  "compiler": {
    "name": "solc",
    "version": "0.7.6+commit.7338295f.Emscripten.clang"
  },
  "schemaVersion": "3.4.5",
  "updatedAt": "2022-02-24T02:20:00.301Z",
  "devdoc": {
    "kind": "dev",
    "methods": {
      "owner()": {
        "details": "Returns the address of the current owner."
      },
      "renounceOwnership()": {
        "details": "Leaves the contract without owner. It will not be possible to call `onlyOwner` functions anymore. Can only be called by the current owner. NOTE: Renouncing ownership will leave the contract without an owner, thereby removing any functionality that is only available to the owner."
      },
      "transferOwnership(address)": {
        "details": "Transfers ownership of the contract to a new account (`newOwner`). Can only be called by the current owner."
      }
    },
    "version": 1
  },
  "userdoc": {
    "kind": "user",
    "methods": {},
    "version": 1
  }
}