{
  "contractName": "Exchange",
  "abi": [
    {
      "anonymous": false,
      "inputs": [
        {
          "indexed": false,
          "internalType": "bytes32",
          "name": "hash",
          "type": "bytes32"
        },
        {
          "indexed": false,
          "internalType": "address",
          "name": "maker",
          "type": "address"
        },
        {
          "components": [
            {
              "internalType": "bytes4",
              "name": "assetClass",
              "type": "bytes4"
            },
            {
              "internalType": "bytes",
              "name": "data",
              "type": "bytes"
            }
          ],
          "indexed": false,
          "internalType": "struct LibAsset.AssetType",
          "name": "makeAssetType",
          "type": "tuple"
        },
        {
          "components": [
            {
              "internalType": "bytes4",
              "name": "assetClass",
              "type": "bytes4"
            },
            {
              "internalType": "bytes",
              "name": "data",
              "type": "bytes"
            }
          ],
          "indexed": false,
          "internalType": "struct LibAsset.AssetType",
          "name": "takeAssetType",
          "type": "tuple"
        }
      ],
      "name": "Cancel",
      "type": "event"
    },
    {
      "anonymous": false,
      "inputs": [
        {
          "indexed": false,
          "internalType": "bytes32",
          "name": "leftHash",
          "type": "bytes32"
        },
        {
          "indexed": false,
          "internalType": "bytes32",
          "name": "rightHash",
          "type": "bytes32"
        },
        {
          "indexed": false,
          "internalType": "address",
          "name": "leftMaker",
          "type": "address"
        },
        {
          "indexed": false,
          "internalType": "address",
          "name": "rightMaker",
          "type": "address"
        },
        {
          "indexed": false,
          "internalType": "uint256",
          "name": "newLeftFill",
          "type": "uint256"
        },
        {
          "indexed": false,
          "internalType": "uint256",
          "name": "newRightFill",
          "type": "uint256"
        },
        {
          "components": [
            {
              "internalType": "bytes4",
              "name": "assetClass",
              "type": "bytes4"
            },
            {
              "internalType": "bytes",
              "name": "data",
              "type": "bytes"
            }
          ],
          "indexed": false,
          "internalType": "struct LibAsset.AssetType",
          "name": "leftAsset",
          "type": "tuple"
        },
        {
          "components": [
            {
              "internalType": "bytes4",
              "name": "assetClass",
              "type": "bytes4"
            },
            {
              "internalType": "bytes",
              "name": "data",
              "type": "bytes"
            }
          ],
          "indexed": false,
          "internalType": "struct LibAsset.AssetType",
          "name": "rightAsset",
          "type": "tuple"
        }
      ],
      "name": "Match",
      "type": "event"
    },
    {
      "anonymous": false,
      "inputs": [
        {
          "indexed": true,
          "internalType": "bytes4",
          "name": "assetType",
          "type": "bytes4"
        },
        {
          "indexed": false,
          "internalType": "address",
          "name": "matcher",
          "type": "address"
        }
      ],
      "name": "MatcherChange",
      "type": "event"
    },
    {
      "anonymous": false,
      "inputs": [
        {
          "indexed": true,
          "internalType": "address",
          "name": "previousOwner",
          "type": "address"
        },
        {
          "indexed": true,
          "internalType": "address",
          "name": "newOwner",
          "type": "address"
        }
      ],
      "name": "OwnershipTransferred",
      "type": "event"
    },
    {
      "anonymous": false,
      "inputs": [
        {
          "indexed": true,
          "internalType": "bytes4",
          "name": "assetType",
          "type": "bytes4"
        },
        {
          "indexed": false,
          "internalType": "address",
          "name": "proxy",
          "type": "address"
        }
      ],
      "name": "ProxyChange",
      "type": "event"
    },
    {
      "anonymous": false,
      "inputs": [
        {
          "components": [
            {
              "components": [
                {
                  "internalType": "bytes4",
                  "name": "assetClass",
                  "type": "bytes4"
                },
                {
                  "internalType": "bytes",
                  "name": "data",
                  "type": "bytes"
                }
              ],
              "internalType": "struct LibAsset.AssetType",
              "name": "assetType",
              "type": "tuple"
            },
            {
              "internalType": "uint256",
              "name": "value",
              "type": "uint256"
            }
          ],
          "indexed": false,
          "internalType": "struct LibAsset.Asset",
          "name": "asset",
          "type": "tuple"
        },
        {
          "indexed": false,
          "internalType": "address",
          "name": "from",
          "type": "address"
        },
        {
          "indexed": false,
          "internalType": "address",
          "name": "to",
          "type": "address"
        },
        {
          "indexed": false,
          "internalType": "bytes4",
          "name": "transferDirection",
          "type": "bytes4"
        },
        {
          "indexed": false,
          "internalType": "bytes4",
          "name": "transferType",
          "type": "bytes4"
        }
      ],
      "name": "Transfer",
      "type": "event"
    },
    {
      "inputs": [
        {
          "components": [
            {
              "internalType": "address",
              "name": "maker",
              "type": "address"
            },
            {
              "components": [
                {
                  "components": [
                    {
                      "internalType": "bytes4",
                      "name": "assetClass",
                      "type": "bytes4"
                    },
                    {
                      "internalType": "bytes",
                      "name": "data",
                      "type": "bytes"
                    }
                  ],
                  "internalType": "struct LibAsset.AssetType",
                  "name": "assetType",
                  "type": "tuple"
                },
                {
                  "internalType": "uint256",
                  "name": "value",
                  "type": "uint256"
                }
              ],
              "internalType": "struct LibAsset.Asset",
              "name": "makeAsset",
              "type": "tuple"
            },
            {
              "internalType": "address",
              "name": "taker",
              "type": "address"
            },
            {
              "components": [
                {
                  "components": [
                    {
                      "internalType": "bytes4",
                      "name": "assetClass",
                      "type": "bytes4"
                    },
                    {
                      "internalType": "bytes",
                      "name": "data",
                      "type": "bytes"
                    }
                  ],
                  "internalType": "struct LibAsset.AssetType",
                  "name": "assetType",
                  "type": "tuple"
                },
                {
                  "internalType": "uint256",
                  "name": "value",
                  "type": "uint256"
                }
              ],
              "internalType": "struct LibAsset.Asset",
              "name": "takeAsset",
              "type": "tuple"
            },
            {
              "internalType": "uint256",
              "name": "salt",
              "type": "uint256"
            },
            {
              "internalType": "uint256",
              "name": "start",
              "type": "uint256"
            },
            {
              "internalType": "uint256",
              "name": "end",
              "type": "uint256"
            },
            {
              "internalType": "bytes4",
              "name": "dataType",
              "type": "bytes4"
            },
            {
              "internalType": "bytes",
              "name": "data",
              "type": "bytes"
            }
          ],
          "internalType": "struct LibOrder.Order",
          "name": "order",
          "type": "tuple"
        }
      ],
      "name": "cancel",
      "outputs": [],
      "stateMutability": "nonpayable",
      "type": "function"
    },
    {
      "inputs": [],
      "name": "defaultFeeReceiver",
      "outputs": [
        {
          "internalType": "address",
          "name": "",
          "type": "address"
        }
      ],
      "stateMutability": "view",
      "type": "function"
    },
    {
      "inputs": [
        {
          "internalType": "address",
          "name": "",
          "type": "address"
        }
      ],
      "name": "feeReceivers",
      "outputs": [
        {
          "internalType": "address",
          "name": "",
          "type": "address"
        }
      ],
      "stateMutability": "view",
      "type": "function"
    },
    {
      "inputs": [
        {
          "internalType": "bytes32",
          "name": "",
          "type": "bytes32"
        }
      ],
      "name": "fills",
      "outputs": [
        {
          "internalType": "uint256",
          "name": "",
          "type": "uint256"
        }
      ],
      "stateMutability": "view",
      "type": "function"
    },
    {
      "inputs": [
        {
          "components": [
            {
              "internalType": "address",
              "name": "maker",
              "type": "address"
            },
            {
              "components": [
                {
                  "components": [
                    {
                      "internalType": "bytes4",
                      "name": "assetClass",
                      "type": "bytes4"
                    },
                    {
                      "internalType": "bytes",
                      "name": "data",
                      "type": "bytes"
                    }
                  ],
                  "internalType": "struct LibAsset.AssetType",
                  "name": "assetType",
                  "type": "tuple"
                },
                {
                  "internalType": "uint256",
                  "name": "value",
                  "type": "uint256"
                }
              ],
              "internalType": "struct LibAsset.Asset",
              "name": "makeAsset",
              "type": "tuple"
            },
            {
              "internalType": "address",
              "name": "taker",
              "type": "address"
            },
            {
              "components": [
                {
                  "components": [
                    {
                      "internalType": "bytes4",
                      "name": "assetClass",
                      "type": "bytes4"
                    },
                    {
                      "internalType": "bytes",
                      "name": "data",
                      "type": "bytes"
                    }
                  ],
                  "internalType": "struct LibAsset.AssetType",
                  "name": "assetType",
                  "type": "tuple"
                },
                {
                  "internalType": "uint256",
                  "name": "value",
                  "type": "uint256"
                }
              ],
              "internalType": "struct LibAsset.Asset",
              "name": "takeAsset",
              "type": "tuple"
            },
            {
              "internalType": "uint256",
              "name": "salt",
              "type": "uint256"
            },
            {
              "internalType": "uint256",
              "name": "start",
              "type": "uint256"
            },
            {
              "internalType": "uint256",
              "name": "end",
              "type": "uint256"
            },
            {
              "internalType": "bytes4",
              "name": "dataType",
              "type": "bytes4"
            },
            {
              "internalType": "bytes",
              "name": "data",
              "type": "bytes"
            }
          ],
          "internalType": "struct LibOrder.Order",
          "name": "orderLeft",
          "type": "tuple"
        },
        {
          "internalType": "bytes",
          "name": "signatureLeft",
          "type": "bytes"
        },
        {
          "components": [
            {
              "internalType": "address",
              "name": "maker",
              "type": "address"
            },
            {
              "components": [
                {
                  "components": [
                    {
                      "internalType": "bytes4",
                      "name": "assetClass",
                      "type": "bytes4"
                    },
                    {
                      "internalType": "bytes",
                      "name": "data",
                      "type": "bytes"
                    }
                  ],
                  "internalType": "struct LibAsset.AssetType",
                  "name": "assetType",
                  "type": "tuple"
                },
                {
                  "internalType": "uint256",
                  "name": "value",
                  "type": "uint256"
                }
              ],
              "internalType": "struct LibAsset.Asset",
              "name": "makeAsset",
              "type": "tuple"
            },
            {
              "internalType": "address",
              "name": "taker",
              "type": "address"
            },
            {
              "components": [
                {
                  "components": [
                    {
                      "internalType": "bytes4",
                      "name": "assetClass",
                      "type": "bytes4"
                    },
                    {
                      "internalType": "bytes",
                      "name": "data",
                      "type": "bytes"
                    }
                  ],
                  "internalType": "struct LibAsset.AssetType",
                  "name": "assetType",
                  "type": "tuple"
                },
                {
                  "internalType": "uint256",
                  "name": "value",
                  "type": "uint256"
                }
              ],
              "internalType": "struct LibAsset.Asset",
              "name": "takeAsset",
              "type": "tuple"
            },
            {
              "internalType": "uint256",
              "name": "salt",
              "type": "uint256"
            },
            {
              "internalType": "uint256",
              "name": "start",
              "type": "uint256"
            },
            {
              "internalType": "uint256",
              "name": "end",
              "type": "uint256"
            },
            {
              "internalType": "bytes4",
              "name": "dataType",
              "type": "bytes4"
            },
            {
              "internalType": "bytes",
              "name": "data",
              "type": "bytes"
            }
          ],
          "internalType": "struct LibOrder.Order",
          "name": "orderRight",
          "type": "tuple"
        },
        {
          "internalType": "bytes",
          "name": "signatureRight",
          "type": "bytes"
        }
      ],
      "name": "matchOrders",
      "outputs": [],
      "stateMutability": "payable",
      "type": "function"
    },
    {
      "inputs": [],
      "name": "owner",
      "outputs": [
        {
          "internalType": "address",
          "name": "",
          "type": "address"
        }
      ],
      "stateMutability": "view",
      "type": "function"
    },
    {
      "inputs": [],
      "name": "protocolFee",
      "outputs": [
        {
          "internalType": "uint256",
          "name": "",
          "type": "uint256"
        }
      ],
      "stateMutability": "view",
      "type": "function"
    },
    {
      "inputs": [],
      "name": "renounceOwnership",
      "outputs": [],
      "stateMutability": "nonpayable",
      "type": "function"
    },
    {
      "inputs": [],
      "name": "royaltiesRegistry",
      "outputs": [
        {
          "internalType": "contract IRoyaltiesProvider",
          "name": "",
          "type": "address"
        }
      ],
      "stateMutability": "view",
      "type": "function"
    },
    {
      "inputs": [
        {
          "internalType": "bytes4",
          "name": "assetType",
          "type": "bytes4"
        },
        {
          "internalType": "address",
          "name": "matcher",
          "type": "address"
        }
      ],
      "name": "setAssetMatcher",
      "outputs": [],
      "stateMutability": "nonpayable",
      "type": "function"
    },
    {
      "inputs": [
        {
          "internalType": "address payable",
          "name": "newDefaultFeeReceiver",
          "type": "address"
        }
      ],
      "name": "setDefaultFeeReceiver",
      "outputs": [],
      "stateMutability": "nonpayable",
      "type": "function"
    },
    {
      "inputs": [
        {
          "internalType": "address",
          "name": "token",
          "type": "address"
        },
        {
          "internalType": "address",
          "name": "wallet",
          "type": "address"
        }
      ],
      "name": "setFeeReceiver",
      "outputs": [],
      "stateMutability": "nonpayable",
      "type": "function"
    },
    {
      "inputs": [
        {
          "internalType": "uint256",
          "name": "newProtocolFee",
          "type": "uint256"
        }
      ],
      "name": "setProtocolFee",
      "outputs": [],
      "stateMutability": "nonpayable",
      "type": "function"
    },
    {
      "inputs": [
        {
          "internalType": "contract IRoyaltiesProvider",
          "name": "newRoyaltiesRegistry",
          "type": "address"
        }
      ],
      "name": "setRoyaltiesRegistry",
      "outputs": [],
      "stateMutability": "nonpayable",
      "type": "function"
    },
    {
      "inputs": [
        {
          "internalType": "bytes4",
          "name": "assetType",
          "type": "bytes4"
        },
        {
          "internalType": "address",
          "name": "proxy",
          "type": "address"
        }
      ],
      "name": "setTransferProxy",
      "outputs": [],
      "stateMutability": "nonpayable",
      "type": "function"
    },
    {
      "inputs": [
        {
          "internalType": "address",
          "name": "newOwner",
          "type": "address"
        }
      ],
      "name": "transferOwnership",
      "outputs": [],
      "stateMutability": "nonpayable",
      "type": "function"
    },
    {
      "inputs": [
        {
          "internalType": "contract INftTransferProxy",
          "name": "_transferProxy",
          "type": "address"
        },
        {
          "internalType": "contract IERC20TransferProxy",
          "name": "_erc20TransferProxy",
          "type": "address"
        },
        {
          "internalType": "uint256",
          "name": "newProtocolFee",
          "type": "uint256"
        },
        {
          "internalType": "address",
          "name": "newDefaultFeeReceiver",
          "type": "address"
        },
        {
          "internalType": "contract IRoyaltiesProvider",
          "name": "newRoyaltiesProvider",
          "type": "address"
        }
      ],
      "name": "__Exchange_init",
      "outputs": [],
      "stateMutability": "nonpayable",
      "type": "function"
    }
  ],
  "bytecode": "0x608060405234801561001057600080fd5b506143e2806100206000396000f3fe6080604052600436106100fe5760003560e01c8063787dce3d11610095578063b39deb4611610064578063b39deb4614610271578063e2864fe314610291578063e66db25e146102b1578063e99a3f80146102d1578063f2fde38b146102e4576100fe565b8063787dce3d146102075780637ed4bc4e146102275780638da5cb5b14610247578063b0e21e8a1461025c576100fe565b80633abf6fd4116100d15780633abf6fd4146101a85780633be89922146101bd5780636d8f0694146101dd578063715018a6146101f2576100fe565b806302097ab1146101035780631cdfe3d81461013957806320158c441461015b57806330c642f114610188575b600080fd5b34801561010f57600080fd5b5061012361011e3660046137d6565b610304565b6040516101309190613dbd565b60405180910390f35b34801561014557600080fd5b506101596101543660046137d6565b610320565b005b34801561016757600080fd5b5061017b610176366004613a95565b6103a5565b60405161013091906141c5565b34801561019457600080fd5b506101596101a3366004613aad565b6103b8565b3480156101b457600080fd5b50610123610488565b3480156101c957600080fd5b506101596101d83660046137d6565b610498565b3480156101e957600080fd5b5061012361051d565b3480156101fe57600080fd5b5061015961052d565b34801561021357600080fd5b50610159610222366004613a95565b6105d9565b34801561023357600080fd5b50610159610242366004613aca565b610641565b34801561025357600080fd5b50610123610715565b34801561026857600080fd5b5061017b610724565b34801561027d57600080fd5b5061015961028c366004613aad565b61072b565b34801561029d57600080fd5b506101596102ac366004613c72565b6107ef565b3480156102bd57600080fd5b506101596102cc366004613a2b565b6108c2565b6101596102df366004613ca4565b610953565b3480156102f057600080fd5b506101596102ff3660046137d6565b610a0f565b610164602052600090815260409020546001600160a01b031681565b610328610b12565b6001600160a01b0316610339610715565b6001600160a01b031614610382576040805162461bcd60e51b8152602060048201819052602482015260008051602061438d833981519152604482015290519081900360640190fd5b61016380546001600160a01b0319166001600160a01b0392909216919091179055565b61012f6020526000908152604090205481565b6103c0610b12565b6001600160a01b03166103d1610715565b6001600160a01b03161461041a576040805162461bcd60e51b8152602060048201819052602482015260008051602061438d833981519152604482015290519081900360640190fd5b6001600160e01b031982166000818152609760205260409081902080546001600160a01b0319166001600160a01b038516179055517f4b5aced933c0c9a88aeac3f0b3b72c5aaf75df8ebaf53225773248c4c31535939061047c908490613dbd565b60405180910390a25050565b610163546001600160a01b031681565b6104a0610b12565b6001600160a01b03166104b1610715565b6001600160a01b0316146104fa576040805162461bcd60e51b8152602060048201819052602482015260008051602061438d833981519152604482015290519081900360640190fd5b61016280546001600160a01b0319166001600160a01b0392909216919091179055565b610162546001600160a01b031681565b610535610b12565b6001600160a01b0316610546610715565b6001600160a01b03161461058f576040805162461bcd60e51b8152602060048201819052602482015260008051602061438d833981519152604482015290519081900360640190fd5b6033546040516000916001600160a01b0316907f8be0079c531659141344cd1fd0a4f28419497f9722a3daafe3b4186f6b6457e0908390a3603380546001600160a01b0319169055565b6105e1610b12565b6001600160a01b03166105f2610715565b6001600160a01b03161461063b576040805162461bcd60e51b8152602060048201819052602482015260008051602061438d833981519152604482015290519081900360640190fd5b61016155565b600054610100900460ff168061065a575061065a610b16565b80610668575060005460ff16155b6106a35760405162461bcd60e51b815260040180806020018281038252602e81526020018061431c602e913960400191505060405180910390fd5b600054610100900460ff161580156106ce576000805460ff1961ff0019909116610100171660011790555b6106d6610b27565b6106de610bc9565b6106e88686610cc2565b6106f3848484610d6c565b6106fb610e48565b801561070d576000805461ff00191690555b505050505050565b6033546001600160a01b031690565b6101615481565b610733610b12565b6001600160a01b0316610744610715565b6001600160a01b03161461078d576040805162461bcd60e51b8152602060048201819052602482015260008051602061438d833981519152604482015290519081900360640190fd5b6001600160e01b031982166000818152606560205260409081902080546001600160a01b0319166001600160a01b038516179055517fd2bf91075f105d0fd80328da28e20ebdad1c1261839711183bc29a44cbe6c72f9061047c908490613dbd565b80516001600160a01b0316610802610b12565b6001600160a01b0316146108315760405162461bcd60e51b8152600401610828906140fd565b60405180910390fd5b60808101516108525760405162461bcd60e51b815260040161082890613f68565b600061085d82610f18565b600081815261012f602090815260409182902060001990558451908501515160608601515192519394507fbbdc98cb2835f4f846e6a63700d0498b4674f0e8858fd50c6379314227afa04e936108b69386939291613dea565b60405180910390a15050565b6108ca610b12565b6001600160a01b03166108db610715565b6001600160a01b031614610924576040805162461bcd60e51b8152602060048201819052602482015260008051602061438d833981519152604482015290519081900360640190fd5b6001600160a01b0391821660009081526101646020526040902080546001600160a01b03191691909216179055565b61095d8484610ffc565b6109678282610ffc565b60408401516001600160a01b0316156109b35783604001516001600160a01b031682600001516001600160a01b0316146109b35760405162461bcd60e51b815260040161082890614092565b60408201516001600160a01b0316156109ff5783600001516001600160a01b031682604001516001600160a01b0316146109ff5760405162461bcd60e51b815260040161082890613f96565b610a098483611013565b50505050565b610a17610b12565b6001600160a01b0316610a28610715565b6001600160a01b031614610a71576040805162461bcd60e51b8152602060048201819052602482015260008051602061438d833981519152604482015290519081900360640190fd5b6001600160a01b038116610ab65760405162461bcd60e51b81526004018080602001828103825260268152602001806142876026913960400191505060405180910390fd5b6033546040516001600160a01b038084169216907f8be0079c531659141344cd1fd0a4f28419497f9722a3daafe3b4186f6b6457e090600090a3603380546001600160a01b0319166001600160a01b0392909216919091179055565b3390565b6000610b21306111ac565b15905090565b600054610100900460ff1680610b405750610b40610b16565b80610b4e575060005460ff16155b610b895760405162461bcd60e51b815260040180806020018281038252602e81526020018061431c602e913960400191505060405180910390fd5b600054610100900460ff16158015610bb4576000805460ff1961ff0019909116610100171660011790555b8015610bc6576000805461ff00191690555b50565b600054610100900460ff1680610be25750610be2610b16565b80610bf0575060005460ff16155b610c2b5760405162461bcd60e51b815260040180806020018281038252602e81526020018061431c602e913960400191505060405180910390fd5b600054610100900460ff16158015610c56576000805460ff1961ff0019909116610100171660011790555b6000610c60610b12565b603380546001600160a01b0319166001600160a01b038316908117909155604051919250906000907f8be0079c531659141344cd1fd0a4f28419497f9722a3daafe3b4186f6b6457e0908290a3508015610bc6576000805461ff001916905550565b60976020527f4532fa16f071d6234e30e1a1e69b9806f04095edf37a1ca7a25c8d6af7861cc080546001600160a01b039283166001600160a01b0319918216179091557f30a684095c937b5aa064dcf94f9903a7d808e3efb22d8389dbd43080ad4ed3d5805493909216928116831790915563025ceed960e61b6000527f4b5822151ea34b7c8d9e37c3e466bcecb631efe6a9f26a4a4054110a93dd316f80549091169091179055565b600054610100900460ff1680610d855750610d85610b16565b80610d93575060005460ff16155b610dce5760405162461bcd60e51b815260040180806020018281038252602e81526020018061431c602e913960400191505060405180910390fd5b600054610100900460ff16158015610df9576000805460ff1961ff0019909116610100171660011790555b61016184905561016380546001600160a01b038086166001600160a01b0319928316179092556101628054928516929091169190911790558015610a09576000805461ff001916905550505050565b600054610100900460ff1680610e615750610e61610b16565b80610e6f575060005460ff16155b610eaa5760405162461bcd60e51b815260040180806020018281038252602e81526020018061431c602e913960400191505060405180910390fd5b600054610100900460ff16158015610ed5576000805460ff1961ff0019909116610100171660011790555b610bb46040518060400160405280600881526020016745786368616e676560c01b815250604051806040016040528060018152602001601960f91b8152506111b2565b805160208201515160009190610f2d90611273565b606084015151610f3c90611273565b846080015185610100015160405160200180866001600160a01b0316815260200185815260200184815260200183815260200180602001828103825283818151815260200191508051906020019080838360005b83811015610fa8578181015183820152602001610f90565b50505050905090810190601f168015610fd55780820380516001836020036101000a031916815260200191505b5096505050505050506040516020818303038152906040528051906020012090505b919050565b611005826112dd565b61100f82826113a7565b5050565b6000806110208484611630565b91509150600061102f85610f18565b9050600061103c85610f18565b90506000611049876116c9565b90506000611056876116c9565b90506000611068898987878787611785565b905060008061107c8989858e8e8a8a6118b0565b8a5191935091506001600160e01b0319166355575f5d60e11b14156110fb5787516001600160e01b0319166355575f5d60e11b14156110ba57600080fd5b813410156110da5760405162461bcd60e51b8152600401610828906140d5565b813411156110f6576110f66110ef3484611a58565b3390611aba565b61114a565b87516001600160e01b0319166355575f5d60e11b141561114a57803410156111355760405162461bcd60e51b8152600401610828906140d5565b8034111561114a5761114a6110ef3483611a58565b7f268820db288a211986b26a8fda86b1e0046281b21206936bb0e61c67b5c79ef487878d600001518d60000151876020015188600001518f8f604051611197989796959493929190613e31565b60405180910390a15050505050505050505050565b3b151590565b600054610100900460ff16806111cb57506111cb610b16565b806111d9575060005460ff16155b6112145760405162461bcd60e51b815260040180806020018281038252602e81526020018061431c602e913960400191505060405180910390fd5b600054610100900460ff1615801561123f576000805460ff1961ff0019909116610100171660011790555b825160208085019190912083519184019190912060c99190915560ca55801561126e576000805461ff00191690555b505050565b8051602091820151805190830120604080517f452a0dc408cb0d27ffc3b3caff933a5208040a53a9dbecd8d89cad2c0d40e00c818601526001600160e01b031990931683820152606080840192909252805180840390920182526080909201909152805191012090565b60a081015115806112f15750428160a00151105b611342576040805162461bcd60e51b815260206004820152601d60248201527f4f726465722073746172742076616c69646174696f6e206661696c6564000000604482015290519081900360640190fd5b60c081015115806113565750428160c00151115b610bc6576040805162461bcd60e51b815260206004820152601b60248201527f4f7264657220656e642076616c69646174696f6e206661696c65640000000000604482015290519081900360640190fd5b60808201516114455781516001600160a01b03161561142c5781516001600160a01b03166113d3610b12565b6001600160a01b031614611427576040805162461bcd60e51b815260206004820152601660248201527536b0b5b2b91034b9903737ba103a3c1039b2b73232b960511b604482015290519081900360640190fd5b611440565b611434610b12565b6001600160a01b031682525b61100f565b81516001600160a01b0316611458610b12565b6001600160a01b03161461100f57600061147183611b52565b90506000825160411415611495576114928361148c84611c42565b90611c8e565b90505b83516001600160a01b03828116911614610a095783516114bd906001600160a01b03166111ac565b156115f9578351630b135d3f60e11b906001600160a01b0316631626ba7e6114e485611c42565b866040518363ffffffff1660e01b81526004018083815260200180602001828103825283818151815260200191508051906020019080838360005b8381101561153757818101518382015260200161151f565b50505050905090810190601f1680156115645780820380516001836020036101000a031916815260200191505b50935050505060206040518083038186803b15801561158257600080fd5b505afa158015611596573d6000803e3d6000fd5b505050506040513d60208110156115ac57600080fd5b50516001600160e01b031916146115f45760405162461bcd60e51b815260040180806020018281038252602b8152602001806142f1602b913960400191505060405180910390fd5b610a09565b60405162461bcd60e51b81526004018080602001828103825260228152602001806142cf6022913960400191505060405180910390fd5b611638613409565b611640613409565b6020840151516060840151516116569190611d04565b80519092506001600160e01b0319166116815760405162461bcd60e51b815260040161082890614066565b6060840151516020840151516116979190611d04565b80519091506001600160e01b0319166116c25760405162461bcd60e51b815260040161082890614066565b9250929050565b6116d1613421565b60e08201516001600160e01b0319166323d235ef60e01b1415611703576116fc826101000151611d44565b905061176c565b60e08201516001600160e01b0319908116141561171f5761176c565b6040805162461bcd60e51b815260206004820152601760248201527f556e6b6e6f776e204f7264657220646174612074797065000000000000000000604482015290519081900360640190fd5b805151610ff757815161177e90611d60565b8152919050565b61178d613444565b60006117998887611dfb565b905060006117a78887611dfb565b905060006117c18a8a85858a604001518a60400151611e28565b9050600081602001511180156117d75750805115155b6117f35760405162461bcd60e51b815260040161082890614006565b60808a01511561184a57856040015115611829578051611814908490611eae565b600089815261012f602052604090205561184a565b6020810151611839908490611eae565b600089815261012f60205260409020555b6080890151156118a15784604001511561188357602081015161186e908390611eae565b600088815261012f60205260409020556118a1565b8051611890908390611eae565b600088815261012f60205260409020555b925050505b9695505050505050565b60008060006118c78a600001518a60000151611f0f565b885160208a01519094509250905060018160028111156118e357fe5b141561195c578751875161191c919087878e8e7f1a0388dd7519a093630516a672419a2562e0e74deb98af068657dc265f0164c9611fe0565b9250611957898960200151886000015188600001517fb45a3ba14423c8f1b71cc094845ab56b5294dbe8d8e3ba53f3cdb63d59a4044b6120a4565b611a4b565b600281600281111561196a57fe5b14156119de576119a78860200151876000015186888d8f7fb45a3ba14423c8f1b71cc094845ab56b5294dbe8d8e3ba53f3cdb63d59a4044b611fe0565b885188518651929450611957928d9291907f1a0388dd7519a093630516a672419a2562e0e74deb98af068657dc265f0164c96120a4565b875187518551611a12928d9290917f1a0388dd7519a093630516a672419a2562e0e74deb98af068657dc265f0164c96120a4565b611a4b898960200151886000015188600001517fb45a3ba14423c8f1b71cc094845ab56b5294dbe8d8e3ba53f3cdb63d59a4044b6120a4565b5097509795505050505050565b600082821115611aaf576040805162461bcd60e51b815260206004820152601e60248201527f536166654d6174683a207375627472616374696f6e206f766572666c6f770000604482015290519081900360640190fd5b508082035b92915050565b6040516000906001600160a01b0384169083908381818185875af1925050503d8060008114611b05576040519150601f19603f3d011682016040523d82523d6000602084013e611b0a565b606091505b505090508061126e576040805162461bcd60e51b815260206004820152600f60248201526e1d1c985b9cd9995c8819985a5b1959608a1b604482015290519081900360640190fd5b60007f477ed43b8020849b755512278536c3766a3b4ab547519949a75f483372493f8d8260000151611b878460200151612249565b8460400151611b998660600151612249565b86608001518760a001518860c001518960e001518a610100015180519060200120604051602001808b81526020018a6001600160a01b03168152602001898152602001886001600160a01b03168152602001878152602001868152602001858152602001848152602001836001600160e01b03191681526020018281526020019a5050505050505050505050604051602081830303815290604052805190602001209050919050565b6000611c4c6122b9565b82604051602001808061190160f01b81525060020183815260200182815260200192505050604051602081830303815290604052805190602001209050919050565b60008151604114611ce6576040805162461bcd60e51b815260206004820152601f60248201527f45434453413a20696e76616c6964207369676e6174757265206c656e67746800604482015290519081900360640190fd5b60208201516040830151606084015160001a6118a6868285856122f9565b611d0c613409565b6000611d18848461254f565b80519091506001600160e01b031916611d3d57611d35838561254f565b915050611ab4565b9050611ab4565b611d4c613421565b81806020019051810190611ab49190613bbc565b60408051600180825281830190925260609160009190816020015b611d8361345e565b815260200190600190039081611d7b5790505090508281600081518110611da657fe5b6020026020010151600001906001600160a01b031690816001600160a01b03168152505061271081600081518110611dda57fe5b6020908102919091018101516001600160601b039092169101529050919050565b6000826080015160001415611e1257506000611ab4565b50600090815261012f6020526040902054919050565b611e30613444565b600080611e3e89888761276b565b91509150600080611e508a898861276b565b9150915083811115611e8357611e7884848c60200151602001518d60600151602001516127e5565b9450505050506118a6565b611e9f8b60200151602001518c6060015160200151848461286a565b9b9a5050505050505050505050565b600082820183811015611f08576040805162461bcd60e51b815260206004820152601b60248201527f536166654d6174683a206164646974696f6e206f766572666c6f770000000000604482015290519081900360640190fd5b9392505050565b60006001600160e01b031983166355575f5d60e11b1415611f3257506001611ab4565b6001600160e01b031982166355575f5d60e11b1415611f5357506002611ab4565b6001600160e01b031983166322ba176160e21b1415611f7457506001611ab4565b6001600160e01b031982166322ba176160e21b1415611f9557506002611ab4565b6001600160e01b0319831663025ceed960e61b1415611fb657506001611ab4565b6001600160e01b0319821663025ceed960e61b1415611fd757506002611ab4565b50600092915050565b6000611ff4886101615488602001516128f0565b90506000612005828a8a8887612963565b90506120158585838c8c88612a5f565b905061204a85828b8a602001518c887fdfdfdaf4cc275341b6776a7ee23b953990b8d991717449077287da70f32cf955612ad2565b508091505061208285828b89602001518c887fdfdfdaf4cc275341b6776a7ee23b953990b8d991717449077287da70f32cf955612ad2565b508091505061209885828a8960000151876120a4565b50979650505050505050565b600084815b60018551038110156121945760006120ea8683815181106120c657fe5b6020026020010151602001516001600160601b031689612b9390919063ffffffff16565b905061211f8683815181106120fb57fe5b6020026020010151602001516001600160601b031685611eae90919063ffffffff16565b9350801561218b576121318382611a58565b925061218b60405180604001604052808b8152602001838152508888858151811061215857fe5b602002602001015160000151887fa10bb5b2060a412d05113732875a5431ca23453eb93f797e0ffcb5b40e5f2c3e612bab565b506001016120a9565b506000846001865103815181106121a757fe5b602002602001015190506121d181602001516001600160601b031684611eae90919063ffffffff16565b925082612710146121f45760405162461bcd60e51b81526004016108289061402f565b811561223f5761223f60405180604001604052808a815260200184815250878360000151877fa10bb5b2060a412d05113732875a5431ca23453eb93f797e0ffcb5b40e5f2c3e612bab565b5050505050505050565b60007fdb6f72e915676cfc289da13bc4ece054fd17b1df6d77ffc4a60510718c236b086122798360000151611273565b8360200151604051602001808481526020018381526020018281526020019350505050604051602081830303815290604052805190602001209050919050565b60006122f47f8b73c3c69bb8fe3d512ecc4cf759cc79239f7b179b0ffacaa9a75d522b39400f6122e7612f32565b6122ef612f38565b612f3e565b905090565b60007f7fffffffffffffffffffffffffffffff5d576e7357a4501ddfe92f46681b20a082111561235a5760405162461bcd60e51b81526004018080602001828103825260228152602001806142ad6022913960400191505060405180910390fd5b6000601e8560ff161115612434576004850360ff16601b148061238357506004850360ff16601c145b6123be5760405162461bcd60e51b815260040180806020018281038252602281526020018061434a6022913960400191505060405180910390fd5b60016123c987612fa0565b60048703868660405160008152602001604052604051808581526020018460ff1681526020018381526020018281526020019450505050506020604051602081039080840390855afa158015612423573d6000803e3d6000fd5b5050506020604051035190506124eb565b8460ff16601b148061244957508460ff16601c145b6124845760405162461bcd60e51b815260040180806020018281038252602281526020018061434a6022913960400191505060405180910390fd5b60018686868660405160008152602001604052604051808581526020018460ff1681526020018381526020018281526020019450505050506020604051602081039080840390855afa1580156124de573d6000803e3d6000fd5b5050506020604051035190505b6001600160a01b038116612546576040805162461bcd60e51b815260206004820152601860248201527f45434453413a20696e76616c6964207369676e61747572650000000000000000604482015290519081900360640190fd5b95945050505050565b612557613409565b825182516001600160e01b031982166355575f5d60e11b14156125c2576001600160e01b031981166355575f5d60e11b1415612597578492505050611ab4565b5050604080518082018252600080825282516020818101909452908152918101919091529050611ab4565b6001600160e01b031982166322ba176160e21b1415612607576001600160e01b031981166322ba176160e21b1415612597576125fe8585612ff1565b92505050611ab4565b6001600160e01b031982166339d690a360e11b1415612643576001600160e01b031981166339d690a360e11b1415612597576125fe8585612ff1565b6001600160e01b0319821663025ceed960e61b141561267f576001600160e01b0319811663025ceed960e61b1415612597576125fe8585612ff1565b6001600160e01b031982166000908152606560205260409020546001600160a01b03168015612734576040516306d3f7cb60e41b81526001600160a01b03821690636d3f7cb0906126d69089908990600401614122565b60006040518083038186803b1580156126ee57600080fd5b505afa158015612702573d6000803e3d6000fd5b505050506040513d6000823e601f3d908101601f1916820160405261272a9190810190613b31565b9350505050611ab4565b6001600160e01b031983811690831614156127535761272a8686612ff1565b60405162461bcd60e51b815260040161082890613efa565b60008082156127aa5760208086015101516127869085611a58565b91506127a38560600151602001518660200151602001518461304e565b90506127dd565b6060850151602001516127bd9085611a58565b90506127da8560200151602001518660600151602001518361304e565b91505b935093915050565b6127ed613444565b60006127fa85858561304e565b905085811115612851576040805162461bcd60e51b815260206004820152601860248201527f66696c6c4c6566743a20756e61626c6520746f2066696c6c0000000000000000604482015290519081900360640190fd5b5050604080518082019091529384525050602082015290565b612872613444565b600061287f83878761304e565b9050838111156128d6576040805162461bcd60e51b815260206004820152601960248201527f66696c6c52696768743a20756e61626c6520746f2066696c6c00000000000000604482015290519081900360640190fd5b604080518082019091529283526020830152509392505050565b60006129066128ff8585612b93565b8590611eae565b905060005b825181101561295b5761295161294a84838151811061292657fe5b6020026020010151602001516001600160601b031687612b9390919063ffffffff16565b8390611eae565b915060010161290b565b509392505050565b600080600061298988886129846002610161546130b490919063ffffffff16565b61310d565b90925090508015612a545784516000906001600160e01b0319166322ba176160e21b14156129d05785602001518060200190518101906129c991906137f2565b9050612a09565b85516001600160e01b03191663025ceed960e61b1415612a095760008660200151806020019051810190612a0491906139fe565b509150505b612a5260405180604001604052808881526020018481525088612a2b8461312f565b887ff87e69cb514f255f3d32f9d90f25160a10d0cdefe6618a6406db334d4450595c612bab565b505b509695505050505050565b600080612a6b8761316e565b9050600080612a9f8a8989868a8a7fb3c5c697ec0b511b76d12f6293e6ee827b1e1df79ac7c64d0466d945904893d7612ad2565b91509150611388811115612ac55760405162461bcd60e51b815260040161082890613f31565b5098975050505050505050565b856000805b8651811015611a4b57612b13878281518110612aef57fe5b6020026020010151602001516001600160601b031683611eae90919063ffffffff16565b9150600080612b43858b8b8681518110612b2957fe5b6020026020010151602001516001600160601b031661310d565b90955085925090508015612b8957612b8960405180604001604052808e815260200183815250898b8681518110612b7657fe5b6020026020010151600001518a8a612bab565b5050600101612ad7565b6000611f08612710612ba585856130b4565b906132e7565b8451516001600160e01b0319166355575f5d60e11b1415612be4576020850151612bdf906001600160a01b03851690611aba565b612eec565b8451516001600160e01b0319166322ba176160e21b1415612cc2576000856000015160200151806020019051810190612c1d91906137f2565b6322ba176160e21b600052609760209081527f4532fa16f071d6234e30e1a1e69b9806f04095edf37a1ca7a25c8d6af7861cc0549088015160405163776062c360e01b81529293506001600160a01b039091169163776062c391612c8a9185918a918a9190600401613ed0565b600060405180830381600087803b158015612ca457600080fd5b505af1158015612cb8573d6000803e3d6000fd5b5050505050612eec565b8451516001600160e01b0319166339d690a360e11b1415612dc257600080866000015160200151806020019051810190612cfc91906139fe565b915091508660200151600114612d245760405162461bcd60e51b815260040161082890613fda565b6339d690a360e11b60005260976020527f30a684095c937b5aa064dcf94f9903a7d808e3efb22d8389dbd43080ad4ed3d554604051637b84dc8360e11b81526001600160a01b039091169063f709b90690612d899085908a908a908790600401613ed0565b600060405180830381600087803b158015612da357600080fd5b505af1158015612db7573d6000803e3d6000fd5b505050505050612eec565b8451516001600160e01b03191663025ceed960e61b1415612e6b57600080866000015160200151806020019051810190612dfc91906139fe565b63025ceed960e61b600052609760209081527f4b5822151ea34b7c8d9e37c3e466bcecb631efe6a9f26a4a4054110a93dd316f54908a0151604051639c1c2ee960e01b81529395509193506001600160a01b031691639c1c2ee991612d899186918b918b918891600401613e8d565b8451516001600160e01b031916600090815260976020526040908190205490516354bc0cf160e01b81526001600160a01b03909116906354bc0cf190612eb990889088908890600401614147565b600060405180830381600087803b158015612ed357600080fd5b505af1158015612ee7573d6000803e3d6000fd5b505050505b7fcae9d16f553e92058883de29cb3135dbc0c1e31fd7eace79fef1d80577fe482e8585858585604051612f2395949392919061417a565b60405180910390a15050505050565b60c95490565b60ca5490565b6000838383612f4b61334e565b3060405160200180868152602001858152602001848152602001838152602001826001600160a01b03168152602001955050505050506040516020818303038152906040528051906020012090509392505050565b604080517f19457468657265756d205369676e6564204d6573736167653a0a333200000000602080830191909152603c8083019490945282518083039094018452605c909101909152815191012090565b612ff9613409565b60208084015180519082012083820151805192019190912080821415613023578492505050611ab4565b5050604080518082018252600080825282516020808201909452908152918101919091529392505050565b600061305b848484613352565b1561309e576040805162461bcd60e51b815260206004820152600e60248201526d3937bab73234b7339032b93937b960911b604482015290519081900360640190fd5b6130ac83612ba586856130b4565b949350505050565b6000826130c357506000611ab4565b828202828482816130d057fe5b0414611f085760405162461bcd60e51b815260040180806020018281038252602181526020018061436c6021913960400191505060405180910390fd5b6000806131238561311e8686612b93565b6133e1565b91509150935093915050565b6001600160a01b0380821660009081526101646020526040812054909116801561315a579050610ff7565b5050610163546001600160a01b0316919050565b80516060906001600160e01b03191663025ceed960e61b14806131a2575081516001600160e01b0319166339d690a360e11b145b156132585760008083602001518060200190518101906131c291906139fe565b61016254604051634e53ee3d60e11b81529294509092506001600160a01b031690639ca7dc7a906131f99085908590600401613dd1565b600060405180830381600087803b15801561321357600080fd5b505af1158015613227573d6000803e3d6000fd5b505050506040513d6000823e601f3d908101601f1916820160405261324f9190810190613a63565b92505050610ff7565b81516001600160e01b03191662737ea960e61b141561329b57600080836020015180602001905181019061328c919061380e565b608001519350610ff792505050565b81516001600160e01b03191663d8f960c160e01b14156132df5760008083602001518060200190518101906132d0919061390b565b606001519350610ff792505050565b506060919050565b600080821161333d576040805162461bcd60e51b815260206004820152601a60248201527f536166654d6174683a206469766973696f6e206279207a65726f000000000000604482015290519081900360640190fd5b81838161334657fe5b049392505050565b4690565b600082613399576040805162461bcd60e51b815260206004820152601060248201526f6469766973696f6e206279207a65726f60801b604482015290519081900360640190fd5b8115806133a4575083155b156133b157506000611f08565b600083806133bb57fe5b85840990506133ca85846130b4565b6133d6826103e86130b4565b101595945050505050565b60008082841115613400576133f68484611a58565b91508290506116c2565b50600093915050565b60408051808201909152600081526060602082015290565b604051806060016040528060608152602001606081526020016000151581525090565b604051806040016040528060008152602001600081525090565b604080518082019091526000808252602082015290565b8035610ff78161425b565b600082601f830112613490578081fd5b815160206134a56134a0836141f1565b6141ce565b82815281810190858301855b858110156134da576134c8898684518b01016135f9565b845292840192908401906001016134b1565b5090979650505050505050565b600082601f8301126134f7578081fd5b815160206135076134a0836141f1565b82815281810190858301604080860288018501891015613525578687fd5b865b868110156135945781838b03121561353d578788fd5b81518281018181106001600160401b038211171561355757fe5b835283516135648161425b565b8152838701516001600160601b038116811461357e57898afd5b8188015285529385019391810191600101613527565b509198975050505050505050565b8035610ff781614270565b600082601f8301126135bd578081fd5b81356135cb6134a08261420e565b8181528460208386010111156135df578283fd5b816020850160208301379081016020019190915292915050565b600082601f830112613609578081fd5b81516136176134a08261420e565b81815284602083860101111561362b578283fd5b6130ac82602083016020870161422f565b6000604080838503121561364e578182fd5b80518181016001600160401b03828210818311171561366957fe5b81845282945085358181111561367e57600080fd5b860180880385131561368f57600080fd5b6080840183811083821117156136a157fe5b9094528335936136b085614270565b938252602084013593818511156136c657600080fd5b6136d2888683016135ad565b60608501525050815260209384013593019290925292915050565b6000610120808385031215613700578182fd5b613709816141ce565b91505061371582613475565b815260208201356001600160401b038082111561373157600080fd5b61373d8583860161363c565b602084015261374e60408501613475565b6040840152606084013591508082111561376757600080fd5b6137738583860161363c565b60608401526080840135608084015260a084013560a084015260c084013560c08401526137a260e085016135a2565b60e0840152610100915081840135818111156137bd57600080fd5b6137c9868287016135ad565b8385015250505092915050565b6000602082840312156137e7578081fd5b8135611f088161425b565b600060208284031215613803578081fd5b8151611f088161425b565b60008060408385031215613820578081fd5b825161382b8161425b565b60208401519092506001600160401b0380821115613847578283fd5b9084019060c0828703121561385a578283fd5b61386460c06141ce565b82518152602083015182811115613879578485fd5b613885888286016135f9565b602083015250604083015160408201526060830151828111156138a6578485fd5b6138b2888286016134e7565b6060830152506080830151828111156138c9578485fd5b6138d5888286016134e7565b60808301525060a0830151828111156138ec578485fd5b6138f888828601613480565b60a0830152508093505050509250929050565b6000806040838503121561391d578182fd5b82516139288161425b565b60208401519092506001600160401b0380821115613944578283fd5b9084019060a08287031215613957578283fd5b61396160a06141ce565b82518152602083015182811115613976578485fd5b613982888286016135f9565b602083015250604083015182811115613999578485fd5b6139a5888286016134e7565b6040830152506060830151828111156139bc578485fd5b6139c8888286016134e7565b6060830152506080830151828111156139df578485fd5b6139eb88828601613480565b6080830152508093505050509250929050565b60008060408385031215613a10578182fd5b8251613a1b8161425b565b6020939093015192949293505050565b60008060408385031215613a3d578182fd5b8235613a488161425b565b91506020830135613a588161425b565b809150509250929050565b600060208284031215613a74578081fd5b81516001600160401b03811115613a89578182fd5b6130ac848285016134e7565b600060208284031215613aa6578081fd5b5035919050565b60008060408385031215613abf578182fd5b8235613a4881614270565b600080600080600060a08688031215613ae1578081fd5b8535613aec8161425b565b94506020860135613afc8161425b565b9350604086013592506060860135613b138161425b565b91506080860135613b238161425b565b809150509295509295909350565b600060208284031215613b42578081fd5b81516001600160401b0380821115613b58578283fd5b9083019060408286031215613b6b578283fd5b604051604081018181108382111715613b8057fe5b6040528251613b8e81614270565b8152602083015182811115613ba1578485fd5b613bad878286016135f9565b60208301525095945050505050565b600060208284031215613bcd578081fd5b81516001600160401b0380821115613be3578283fd5b9083019060608286031215613bf6578283fd5b604051606081018181108382111715613c0b57fe5b604052825182811115613c1c578485fd5b613c28878286016134e7565b825250602083015182811115613c3c578485fd5b613c48878286016134e7565b602083015250604083015192508215158314613c62578384fd5b6040810192909252509392505050565b600060208284031215613c83578081fd5b81356001600160401b03811115613c98578182fd5b6130ac848285016136ed565b60008060008060808587031215613cb9578182fd5b84356001600160401b0380821115613ccf578384fd5b613cdb888389016136ed565b95506020870135915080821115613cf0578384fd5b613cfc888389016135ad565b94506040870135915080821115613d11578384fd5b613d1d888389016136ed565b93506060870135915080821115613d32578283fd5b50613d3f878288016135ad565b91505092959194509250565b600063ffffffff60e01b82511683526020820151604060208501528051806040860152613d7f81606087016020850161422f565b601f01601f1916939093016060019392505050565b6000815160408452613da96040850182613d4b565b602093840151949093019390935250919050565b6001600160a01b0391909116815260200190565b6001600160a01b03929092168252602082015260400190565b8481526001600160a01b0384166020820152608060408201819052600090613e1490830185613d4b565b8281036060840152613e268185613d4b565b979650505050505050565b888152602081018890526001600160a01b038781166040830152861660608201526080810185905260a0810184905261010060c08201819052600090613e7983820186613d4b565b905082810360e0840152611e9f8185613d4b565b6001600160a01b03958616815293851660208501529190931660408301526060820192909252608081019190915260c060a0820181905260009082015260e00190565b6001600160a01b039485168152928416602084015292166040820152606081019190915260800190565b60208082526017908201527f6e6f7420666f756e64204941737365744d617463686572000000000000000000604082015260600190565b6020808252601d908201527f526f79616c746965732061726520746f6f206869676820283e35302529000000604082015260600190565b6020808252601490820152730c081cd85b1d0818d85b89dd081899481d5cd95960621b604082015260600190565b60208082526024908201527f72696768744f726465722e74616b657220766572696669636174696f6e2066616040820152631a5b195960e21b606082015260800190565b60208082526012908201527132b9319b9918903b30b63ab29032b93937b960711b604082015260600190565b6020808252600f908201526e1b9bdd1a1a5b99c81d1bc8199a5b1b608a1b604082015260600190565b6020808252601e908201527f53756d207061796f75747320427073206e6f7420657175616c20313030250000604082015260600190565b6020808252601290820152710c2e6e6cae8e640c8dedc4ee840dac2e8c6d60731b604082015260600190565b60208082526023908201527f6c6566744f726465722e74616b657220766572696669636174696f6e206661696040820152621b195960ea1b606082015260800190565b6020808252600e908201526d0dcdee840cadcdeeaced040cae8d60931b604082015260600190565b6020808252600b908201526a3737ba10309036b0b5b2b960a91b604082015260600190565b6000604082526141356040830185613d4b565b82810360208401526125468185613d4b565b60006060825261415a6060830186613d94565b6001600160a01b0394851660208401529290931660409091015292915050565b600060a0825261418d60a0830188613d94565b6001600160a01b0396871660208401529490951660408201526001600160e01b03199283166060820152911660809091015292915050565b90815260200190565b6040518181016001600160401b03811182821017156141e957fe5b604052919050565b60006001600160401b0382111561420457fe5b5060209081020190565b60006001600160401b0382111561422157fe5b50601f01601f191660200190565b60005b8381101561424a578181015183820152602001614232565b83811115610a095750506000910152565b6001600160a01b0381168114610bc657600080fd5b6001600160e01b031981168114610bc657600080fdfe4f776e61626c653a206e6577206f776e657220697320746865207a65726f206164647265737345434453413a20696e76616c6964207369676e6174757265202773272076616c75656f72646572207369676e617475726520766572696669636174696f6e206572726f72636f6e7472616374206f72646572207369676e617475726520766572696669636174696f6e206572726f72496e697469616c697a61626c653a20636f6e747261637420697320616c726561647920696e697469616c697a656445434453413a20696e76616c6964207369676e6174757265202776272076616c7565536166654d6174683a206d756c7469706c69636174696f6e206f766572666c6f774f776e61626c653a2063616c6c6572206973206e6f7420746865206f776e6572a2646970667358221220399efa8bd23cf6bf5cbe2f7faffa39a71f21ca15abd5762a60e6e8ec9874f36e64736f6c63430007060033",
  "immutableReferences": {},
  "source": "// SPDX-License-Identifier: MIT\n\npragma solidity 0.7.6;\npragma abicoder v2;\n\nimport \"./ExchangeCore.sol\";\nimport \"./SipherTransferManager.sol\";\nimport \"@sipher/royalties/contracts/IRoyaltiesProvider.sol\";\n\ncontract Exchange is ExchangeCore, SipherTransferManager {\n    function __Exchange_init(\n        INftTransferProxy _transferProxy,\n        IERC20TransferProxy _erc20TransferProxy,\n        uint newProtocolFee,\n        address newDefaultFeeReceiver,\n        IRoyaltiesProvider newRoyaltiesProvider\n    ) external initializer {\n        __Context_init_unchained();\n        __Ownable_init_unchained();\n        __TransferExecutor_init_unchained(_transferProxy, _erc20TransferProxy);\n        __SipherTransferManager_init_unchained(newProtocolFee, newDefaultFeeReceiver, newRoyaltiesProvider);\n        __OrderValidator_init_unchained();\n    }\n}",
  "sourcePath": "/Users/vule/SIPHER/sc/protocol-contracts/exchange-v2/contracts/Exchange.sol",
  "compiler": {
    "name": "solc",
    "version": "0.7.6+commit.7338295f.Emscripten.clang"
  },
  "schemaVersion": "3.4.5",
  "updatedAt": "2022-02-24T02:20:00.290Z",
  "devdoc": {
    "kind": "dev",
    "methods": {
      "owner()": {
        "details": "Returns the address of the current owner."
      },
      "renounceOwnership()": {
        "details": "Leaves the contract without owner. It will not be possible to call `onlyOwner` functions anymore. Can only be called by the current owner. NOTE: Renouncing ownership will leave the contract without an owner, thereby removing any functionality that is only available to the owner."
      },
      "transferOwnership(address)": {
        "details": "Transfers ownership of the contract to a new account (`newOwner`). Can only be called by the current owner."
      }
    },
    "version": 1
  },
  "userdoc": {
    "kind": "user",
    "methods": {},
    "version": 1
  }
}