{
  "contractName": "ERC1155Test",
  "abi": [
    {
      "inputs": [],
      "name": "__ERC1155Test_init",
      "outputs": [],
      "stateMutability": "nonpayable",
      "type": "function"
    },
    {
      "inputs": [
        {
          "components": [
            {
              "internalType": "uint256",
              "name": "tokenId",
              "type": "uint256"
            },
            {
              "internalType": "string",
              "name": "tokenURI",
              "type": "string"
            },
            {
              "internalType": "uint256",
              "name": "supply",
              "type": "uint256"
            },
            {
              "components": [
                {
                  "internalType": "address payable",
                  "name": "account",
                  "type": "address"
                },
                {
                  "internalType": "uint96",
                  "name": "value",
                  "type": "uint96"
                }
              ],
              "internalType": "struct LibPart.Part[]",
              "name": "creators",
              "type": "tuple[]"
            },
            {
              "components": [
                {
                  "internalType": "address payable",
                  "name": "account",
                  "type": "address"
                },
                {
                  "internalType": "uint96",
                  "name": "value",
                  "type": "uint96"
                }
              ],
              "internalType": "struct LibPart.Part[]",
              "name": "royalties",
              "type": "tuple[]"
            },
            {
              "internalType": "bytes[]",
              "name": "signatures",
              "type": "bytes[]"
            }
          ],
          "internalType": "struct LibERC1155LazyMint.Mint1155Data",
          "name": "data",
          "type": "tuple"
        },
        {
          "internalType": "bytes",
          "name": "signature",
          "type": "bytes"
        }
      ],
      "name": "recover",
      "outputs": [
        {
          "internalType": "address",
          "name": "",
          "type": "address"
        }
      ],
      "stateMutability": "view",
      "type": "function"
    }
  ],
  "bytecode": "0x608060405234801561001057600080fd5b50610d8b806100206000396000f3fe608060405234801561001057600080fd5b50600436106100365760003560e01c8063294b5d651461003b578063f538658314610045575b600080fd5b61004361006e565b005b610058610053366004610b81565b610153565b6040516100659190610c8d565b60405180910390f35b600054610100900460ff16806100875750610087610181565b80610095575060005460ff16155b6100d05760405162461bcd60e51b815260040180806020018281038252602e815260200180610d06602e913960400191505060405180910390fd5b600054610100900460ff161580156100fb576000805460ff1961ff0019909116610100171660011790555b61013e604051806040016040528060088152602001674d696e743131353560c01b815250604051806040016040528060018152602001603160f81b815250610192565b8015610150576000805461ff00191690555b50565b60008061015f84610240565b9050600061016c82610495565b905061017881856104e1565b95945050505050565b600061018c30610561565b15905090565b600054610100900460ff16806101ab57506101ab610181565b806101b9575060005460ff16155b6101f45760405162461bcd60e51b815260040180806020018281038252602e815260200180610d06602e913960400191505060405180910390fd5b600054610100900460ff1615801561021f576000805460ff1961ff0019909116610100171660011790555b6102298383610567565b801561023b576000805461ff00191690555b505050565b60008082608001515167ffffffffffffffff8111801561025f57600080fd5b50604051908082528060200260200182016040528015610289578160200160208202803683370190505b50905060005b8360800151518110156102db576102bc846080015182815181106102af57fe5b6020026020010151610627565b8282815181106102c857fe5b602090810291909101015260010161028f565b50600083606001515167ffffffffffffffff811180156102fa57600080fd5b50604051908082528060200260200182016040528015610324578160200160208202803683370190505b50905060005b8460600151518110156103695761034a856060015182815181106102af57fe5b82828151811061035657fe5b602090810291909101015260010161032a565b507ffb988707ebb338694f318760b0fd5cfe756d00a2ade251fda110b80c336a3c7f846000015185604001518660200151805190602001208460405160200180828051906020019060200280838360005b838110156103d25781810151838201526020016103ba565b50505050905001915050604051602081830303815290604052805190602001208660405160200180828051906020019060200280838360005b8381101561042357818101518382015260200161040b565b50505050905001915050604051602081830303815290604052805190602001206040516020018087815260200186815260200185815260200184815260200183815260200182815260200196505050505050506040516020818303038152906040528051906020012092505050919050565b600061049f610699565b82604051602001808061190160f01b81525060020183815260200182815260200192505050604051602081830303815290604052805190602001209050919050565b60008151604114610539576040805162461bcd60e51b815260206004820152601f60248201527f45434453413a20696e76616c6964207369676e6174757265206c656e67746800604482015290519081900360640190fd5b60208201516040830151606084015160001a610557868285856106d9565b9695505050505050565b3b151590565b600054610100900460ff16806105805750610580610181565b8061058e575060005460ff16155b6105c95760405162461bcd60e51b815260040180806020018281038252602e815260200180610d06602e913960400191505060405180910390fd5b600054610100900460ff161580156105f4576000805460ff1961ff0019909116610100171660011790555b8251602080850191909120835191840191909120600191909155600255801561023b576000805461ff0019169055505050565b8051602091820151604080517f397e04204c1e1a60ee8724b71f8244e10ab5f2e9009854d80f602bda21b59ebb818601526001600160a01b03909316838201526bffffffffffffffffffffffff9091166060808401919091528151808403909101815260809092019052805191012090565b60006106d47f8b73c3c69bb8fe3d512ecc4cf759cc79239f7b179b0ffacaa9a75d522b39400f6106c7610926565b6106cf61092c565b610932565b905090565b60007f7fffffffffffffffffffffffffffffff5d576e7357a4501ddfe92f46681b20a082111561073a5760405162461bcd60e51b8152600401808060200182810382526022815260200180610ce46022913960400191505060405180910390fd5b6000601e8560ff161115610814576004850360ff16601b148061076357506004850360ff16601c145b61079e5760405162461bcd60e51b8152600401808060200182810382526022815260200180610d346022913960400191505060405180910390fd5b60016107a987610994565b60048703868660405160008152602001604052604051808581526020018460ff1681526020018381526020018281526020019450505050506020604051602081039080840390855afa158015610803573d6000803e3d6000fd5b5050506020604051035190506108cb565b8460ff16601b148061082957508460ff16601c145b6108645760405162461bcd60e51b8152600401808060200182810382526022815260200180610d346022913960400191505060405180910390fd5b60018686868660405160008152602001604052604051808581526020018460ff1681526020018381526020018281526020019450505050506020604051602081039080840390855afa1580156108be573d6000803e3d6000fd5b5050506020604051035190505b6001600160a01b038116610178576040805162461bcd60e51b815260206004820152601860248201527f45434453413a20696e76616c6964207369676e61747572650000000000000000604482015290519081900360640190fd5b60015490565b60025490565b600083838361093f6109e5565b3060405160200180868152602001858152602001848152602001838152602001826001600160a01b03168152602001955050505050506040516020818303038152906040528051906020012090509392505050565b604080517f19457468657265756d205369676e6564204d6573736167653a0a333200000000602080830191909152603c8083019490945282518083039094018452605c909101909152815191012090565b4690565b600082601f8301126109f9578081fd5b81356020610a0e610a0983610cc5565b610ca1565b82815281810190858301855b85811015610a4357610a31898684358b0101610b1c565b84529284019290840190600101610a1a565b5090979650505050505050565b600082601f830112610a60578081fd5b81356020610a70610a0983610cc5565b82815281810190858301604080860288018501891015610a8e578687fd5b865b86811015610b0e5781838b031215610aa6578788fd5b815182810181811067ffffffffffffffff82111715610ac157fe5b835283356001600160a01b0381168114610ad957898afd5b8152838701356bffffffffffffffffffffffff81168114610af857898afd5b8188015285529385019391810191600101610a90565b509198975050505050505050565b600082601f830112610b2c578081fd5b813567ffffffffffffffff811115610b4057fe5b610b53601f8201601f1916602001610ca1565b818152846020838601011115610b67578283fd5b816020850160208301379081016020019190915292915050565b60008060408385031215610b93578182fd5b823567ffffffffffffffff80821115610baa578384fd5b9084019060c08287031215610bbd578384fd5b610bc760c0610ca1565b82358152602083013582811115610bdc578586fd5b610be888828601610b1c565b60208301525060408301356040820152606083013582811115610c09578586fd5b610c1588828601610a50565b606083015250608083013582811115610c2c578586fd5b610c3888828601610a50565b60808301525060a083013582811115610c4f578586fd5b610c5b888286016109e9565b60a08301525093506020850135915080821115610c76578283fd5b50610c8385828601610b1c565b9150509250929050565b6001600160a01b0391909116815260200190565b60405181810167ffffffffffffffff81118282101715610cbd57fe5b604052919050565b600067ffffffffffffffff821115610cd957fe5b506020908102019056fe45434453413a20696e76616c6964207369676e6174757265202773272076616c7565496e697469616c697a61626c653a20636f6e747261637420697320616c726561647920696e697469616c697a656445434453413a20696e76616c6964207369676e6174757265202776272076616c7565a2646970667358221220d2d128803d53bb51b1984995cc58ec5f24037f7c1717e3111d5eaf3adcf4be7c64736f6c63430007060033",
  "immutableReferences": {},
  "source": "// SPDX-License-Identifier: MIT\n\npragma solidity ^0.7.0;\npragma abicoder v2;\n\nimport \"../../contracts/erc-1155/LibERC1155LazyMint.sol\";\nimport \"@sipher/libraries/contracts/LibSignature.sol\";\nimport \"@openzeppelin/contracts-upgradeable/drafts/EIP712Upgradeable.sol\";\n\ncontract ERC1155Test is EIP712Upgradeable {\n    using LibSignature for bytes32;\n\n    function __ERC1155Test_init() external initializer {\n        __EIP712_init(\"Mint1155\", \"1\");\n    }\n\n    function recover(\n        LibERC1155LazyMint.Mint1155Data memory data,\n        bytes memory signature\n    ) external view returns (address) {\n        bytes32 structHash = LibERC1155LazyMint.hash(data);\n        bytes32 hash = _hashTypedDataV4(structHash);\n        return hash.recover(signature);\n    }\n}\n",
  "sourcePath": "/Users/vule/SIPHER/sc/protocol-contracts/lazy-mint/contracts/test/ERC1155Test.sol",
  "compiler": {
    "name": "solc",
    "version": "0.7.6+commit.7338295f.Emscripten.clang"
  },
  "schemaVersion": "3.4.5",
  "updatedAt": "2022-02-24T02:33:09.944Z",
  "devdoc": {
    "kind": "dev",
    "methods": {},
    "version": 1
  },
  "userdoc": {
    "kind": "user",
    "methods": {},
    "version": 1
  }
}