{
  "contractName": "ERC721Test",
  "abi": [
    {
      "inputs": [],
      "name": "__ERC721Test_init",
      "outputs": [],
      "stateMutability": "nonpayable",
      "type": "function"
    },
    {
      "inputs": [
        {
          "components": [
            {
              "internalType": "uint256",
              "name": "tokenId",
              "type": "uint256"
            },
            {
              "internalType": "string",
              "name": "tokenURI",
              "type": "string"
            },
            {
              "components": [
                {
                  "internalType": "address payable",
                  "name": "account",
                  "type": "address"
                },
                {
                  "internalType": "uint96",
                  "name": "value",
                  "type": "uint96"
                }
              ],
              "internalType": "struct LibPart.Part[]",
              "name": "creators",
              "type": "tuple[]"
            },
            {
              "components": [
                {
                  "internalType": "address payable",
                  "name": "account",
                  "type": "address"
                },
                {
                  "internalType": "uint96",
                  "name": "value",
                  "type": "uint96"
                }
              ],
              "internalType": "struct LibPart.Part[]",
              "name": "royalties",
              "type": "tuple[]"
            },
            {
              "internalType": "bytes[]",
              "name": "signatures",
              "type": "bytes[]"
            }
          ],
          "internalType": "struct LibERC721LazyMint.Mint721Data",
          "name": "data",
          "type": "tuple"
        },
        {
          "internalType": "bytes",
          "name": "signature",
          "type": "bytes"
        }
      ],
      "name": "recover",
      "outputs": [
        {
          "internalType": "address",
          "name": "",
          "type": "address"
        }
      ],
      "stateMutability": "view",
      "type": "function"
    }
  ],
  "bytecode": "0x608060405234801561001057600080fd5b50610d74806100206000396000f3fe608060405234801561001057600080fd5b50600436106100365760003560e01c806327079a7a1461003b5780633943639d14610045575b600080fd5b61004361006e565b005b610058610053366004610b74565b610152565b6040516100659190610c76565b60405180910390f35b600054610100900460ff16806100875750610087610180565b80610095575060005460ff16155b6100d05760405162461bcd60e51b815260040180806020018281038252602e815260200180610cef602e913960400191505060405180910390fd5b600054610100900460ff161580156100fb576000805460ff1961ff0019909116610100171660011790555b61013d604051806040016040528060078152602001664d696e7437323160c81b815250604051806040016040528060018152602001603160f81b815250610191565b801561014f576000805461ff00191690555b50565b60008061015e8461023f565b9050600061016b82610488565b905061017781856104d4565b95945050505050565b600061018b30610554565b15905090565b600054610100900460ff16806101aa57506101aa610180565b806101b8575060005460ff16155b6101f35760405162461bcd60e51b815260040180806020018281038252602e815260200180610cef602e913960400191505060405180910390fd5b600054610100900460ff1615801561021e576000805460ff1961ff0019909116610100171660011790555b610228838361055a565b801561023a576000805461ff00191690555b505050565b60008082606001515167ffffffffffffffff8111801561025e57600080fd5b50604051908082528060200260200182016040528015610288578160200160208202803683370190505b50905060005b8360600151518110156102da576102bb846060015182815181106102ae57fe5b602002602001015161061a565b8282815181106102c757fe5b602090810291909101015260010161028e565b50600083604001515167ffffffffffffffff811180156102f957600080fd5b50604051908082528060200260200182016040528015610323578160200160208202803683370190505b50905060005b84604001515181101561036857610349856040015182815181106102ae57fe5b82828151811061035557fe5b6020908102919091010152600101610329565b507ff64326045af5fd7e15297ba939f85b550474d3899daa47d2bc1ffbdb9ced344e84600001518560200151805190602001208360405160200180828051906020019060200280838360005b838110156103cc5781810151838201526020016103b4565b50505050905001915050604051602081830303815290604052805190602001208560405160200180828051906020019060200280838360005b8381101561041d578181015183820152602001610405565b505050509050019150506040516020818303038152906040528051906020012060405160200180868152602001858152602001848152602001838152602001828152602001955050505050506040516020818303038152906040528051906020012092505050919050565b600061049261068c565b82604051602001808061190160f01b81525060020183815260200182815260200192505050604051602081830303815290604052805190602001209050919050565b6000815160411461052c576040805162461bcd60e51b815260206004820152601f60248201527f45434453413a20696e76616c6964207369676e6174757265206c656e67746800604482015290519081900360640190fd5b60208201516040830151606084015160001a61054a868285856106cc565b9695505050505050565b3b151590565b600054610100900460ff16806105735750610573610180565b80610581575060005460ff16155b6105bc5760405162461bcd60e51b815260040180806020018281038252602e815260200180610cef602e913960400191505060405180910390fd5b600054610100900460ff161580156105e7576000805460ff1961ff0019909116610100171660011790555b8251602080850191909120835191840191909120600191909155600255801561023a576000805461ff0019169055505050565b8051602091820151604080517f397e04204c1e1a60ee8724b71f8244e10ab5f2e9009854d80f602bda21b59ebb818601526001600160a01b03909316838201526bffffffffffffffffffffffff9091166060808401919091528151808403909101815260809092019052805191012090565b60006106c77f8b73c3c69bb8fe3d512ecc4cf759cc79239f7b179b0ffacaa9a75d522b39400f6106ba610919565b6106c261091f565b610925565b905090565b60007f7fffffffffffffffffffffffffffffff5d576e7357a4501ddfe92f46681b20a082111561072d5760405162461bcd60e51b8152600401808060200182810382526022815260200180610ccd6022913960400191505060405180910390fd5b6000601e8560ff161115610807576004850360ff16601b148061075657506004850360ff16601c145b6107915760405162461bcd60e51b8152600401808060200182810382526022815260200180610d1d6022913960400191505060405180910390fd5b600161079c87610987565b60048703868660405160008152602001604052604051808581526020018460ff1681526020018381526020018281526020019450505050506020604051602081039080840390855afa1580156107f6573d6000803e3d6000fd5b5050506020604051035190506108be565b8460ff16601b148061081c57508460ff16601c145b6108575760405162461bcd60e51b8152600401808060200182810382526022815260200180610d1d6022913960400191505060405180910390fd5b60018686868660405160008152602001604052604051808581526020018460ff1681526020018381526020018281526020019450505050506020604051602081039080840390855afa1580156108b1573d6000803e3d6000fd5b5050506020604051035190505b6001600160a01b038116610177576040805162461bcd60e51b815260206004820152601860248201527f45434453413a20696e76616c6964207369676e61747572650000000000000000604482015290519081900360640190fd5b60015490565b60025490565b60008383836109326109d8565b3060405160200180868152602001858152602001848152602001838152602001826001600160a01b03168152602001955050505050506040516020818303038152906040528051906020012090509392505050565b604080517f19457468657265756d205369676e6564204d6573736167653a0a333200000000602080830191909152603c8083019490945282518083039094018452605c909101909152815191012090565b4690565b600082601f8301126109ec578081fd5b81356020610a016109fc83610cae565b610c8a565b82815281810190858301855b85811015610a3657610a24898684358b0101610b0f565b84529284019290840190600101610a0d565b5090979650505050505050565b600082601f830112610a53578081fd5b81356020610a636109fc83610cae565b82815281810190858301604080860288018501891015610a81578687fd5b865b86811015610b015781838b031215610a99578788fd5b815182810181811067ffffffffffffffff82111715610ab457fe5b835283356001600160a01b0381168114610acc57898afd5b8152838701356bffffffffffffffffffffffff81168114610aeb57898afd5b8188015285529385019391810191600101610a83565b509198975050505050505050565b600082601f830112610b1f578081fd5b813567ffffffffffffffff811115610b3357fe5b610b46601f8201601f1916602001610c8a565b818152846020838601011115610b5a578283fd5b816020850160208301379081016020019190915292915050565b60008060408385031215610b86578182fd5b823567ffffffffffffffff80821115610b9d578384fd5b9084019060a08287031215610bb0578384fd5b610bba60a0610c8a565b82358152602083013582811115610bcf578586fd5b610bdb88828601610b0f565b602083015250604083013582811115610bf2578586fd5b610bfe88828601610a43565b604083015250606083013582811115610c15578586fd5b610c2188828601610a43565b606083015250608083013582811115610c38578586fd5b610c44888286016109dc565b60808301525093506020850135915080821115610c5f578283fd5b50610c6c85828601610b0f565b9150509250929050565b6001600160a01b0391909116815260200190565b60405181810167ffffffffffffffff81118282101715610ca657fe5b604052919050565b600067ffffffffffffffff821115610cc257fe5b506020908102019056fe45434453413a20696e76616c6964207369676e6174757265202773272076616c7565496e697469616c697a61626c653a20636f6e747261637420697320616c726561647920696e697469616c697a656445434453413a20696e76616c6964207369676e6174757265202776272076616c7565a2646970667358221220e4a81ea300dcd103706e5aa90c4f3db1ec97d1a52caec18480cc7053bee0dbae64736f6c63430007060033",
  "immutableReferences": {},
  "source": "// SPDX-License-Identifier: MIT\n\npragma solidity ^0.7.0;\npragma abicoder v2;\n\nimport \"../../contracts/erc-721/LibERC721LazyMint.sol\";\nimport \"@openzeppelin/contracts-upgradeable/drafts/EIP712Upgradeable.sol\";\nimport \"@sipher/libraries/contracts/LibSignature.sol\";\n\ncontract ERC721Test is EIP712Upgradeable {\n    using LibSignature for bytes32;\n\n    function __ERC721Test_init() external initializer {\n        __EIP712_init(\"Mint721\", \"1\");\n    }\n\n    function recover(\n        LibERC721LazyMint.Mint721Data memory data,\n        bytes memory signature\n    ) external view returns (address) {\n        bytes32 structHash = LibERC721LazyMint.hash(data);\n        bytes32 hash = _hashTypedDataV4(structHash);\n        return hash.recover(signature);\n    }\n}\n",
  "sourcePath": "/Users/vule/SIPHER/sc/protocol-contracts/lazy-mint/contracts/test/ERC721Test.sol",
  "compiler": {
    "name": "solc",
    "version": "0.7.6+commit.7338295f.Emscripten.clang"
  },
  "schemaVersion": "3.4.5",
  "updatedAt": "2022-02-24T02:33:09.946Z",
  "devdoc": {
    "kind": "dev",
    "methods": {},
    "version": 1
  },
  "userdoc": {
    "kind": "user",
    "methods": {},
    "version": 1
  }
}