{
  "address": "0x0534422f2E075cBD0ef0C03c89b853DA915bC4c3",
  "abi": [
    {
      "inputs": [
        {
          "components": [
            {
              "internalType": "bytes4",
              "name": "assetClass",
              "type": "bytes4"
            },
            {
              "internalType": "bytes",
              "name": "data",
              "type": "bytes"
            }
          ],
          "internalType": "struct LibAsset.AssetType",
          "name": "leftAssetType",
          "type": "tuple"
        },
        {
          "components": [
            {
              "internalType": "bytes4",
              "name": "assetClass",
              "type": "bytes4"
            },
            {
              "internalType": "bytes",
              "name": "data",
              "type": "bytes"
            }
          ],
          "internalType": "struct LibAsset.AssetType",
          "name": "rightAssetType",
          "type": "tuple"
        }
      ],
      "name": "matchAssets",
      "outputs": [
        {
          "components": [
            {
              "internalType": "bytes4",
              "name": "assetClass",
              "type": "bytes4"
            },
            {
              "internalType": "bytes",
              "name": "data",
              "type": "bytes"
            }
          ],
          "internalType": "struct LibAsset.AssetType",
          "name": "",
          "type": "tuple"
        }
      ],
      "stateMutability": "view",
      "type": "function"
    }
  ],
  "transactionHash": "0xf8fc1dbbb1edb5cc73ae671ad4458df6a3ab0a72f52f17ab46136a9dd522c2ab",
  "args": [],
  "numDeployments": 1,
  "solcInputHash": "97c6bb67a11a3b86c8241c5966d7100e",
  "bytecode": "0x608060405234801561001057600080fd5b506105a6806100206000396000f3fe608060405234801561001057600080fd5b506004361061002b5760003560e01c80636d3f7cb014610030575b600080fd5b61004361003e366004610446565b610059565b60405161005091906104a7565b60405180910390f35b6100616102bd565b81517fffffffff00000000000000000000000000000000000000000000000000000000167f73ad21460000000000000000000000000000000000000000000000000000000014806100f4575081517fffffffff00000000000000000000000000000000000000000000000000000000167fd8f960c100000000000000000000000000000000000000000000000000000000145b80610141575081517fffffffff00000000000000000000000000000000000000000000000000000000167f973bb64000000000000000000000000000000000000000000000000000000000145b8061018e575081517fffffffff00000000000000000000000000000000000000000000000000000000167f1cdfaa4000000000000000000000000000000000000000000000000000000000145b806101db575081517fffffffff00000000000000000000000000000000000000000000000000000000167f3e6b89d400000000000000000000000000000000000000000000000000000000145b1561029357600083602001518060200190518101906101fa91906103fa565b905060008360200151806020019051810190610216919061041b565b5090508073ffffffffffffffffffffffffffffffffffffffff168273ffffffffffffffffffffffffffffffffffffffff1614156102905750506040805180820190915282517fffffffff000000000000000000000000000000000000000000000000000000001681526020808401519082015290506102b7565b50505b50604080518082018252600080825282516020818101909452908152918101919091525b92915050565b60408051808201909152600081526060602082015290565b805173ffffffffffffffffffffffffffffffffffffffff811681146102f957600080fd5b919050565b60006040828403121561030f578081fd5b6040516040810167ffffffffffffffff828210818311171561032d57fe5b81604052829350843591507fffffffff000000000000000000000000000000000000000000000000000000008216821461036657600080fd5b908252602090848201358181111561037d57600080fd5b8501601f8101871361038e57600080fd5b80358281111561039a57fe5b6103ca847fffffffffffffffffffffffffffffffffffffffffffffffffffffffffffffffe0601f8401160161054c565b925080835287848284010111156103e057600080fd5b808483018585013760009083018401525091015292915050565b60006020828403121561040b578081fd5b610414826102d5565b9392505050565b6000806040838503121561042d578081fd5b610436836102d5565b9150602083015190509250929050565b60008060408385031215610458578182fd5b823567ffffffffffffffff8082111561046f578384fd5b61047b868387016102fe565b93506020850135915080821115610490578283fd5b5061049d858286016102fe565b9150509250929050565b600060208083527fffffffff0000000000000000000000000000000000000000000000000000000084511681840152808401516040808501528051806060860152835b81811015610506578281018401518682016080015283016104ea565b818111156105175784608083880101525b50601f017fffffffffffffffffffffffffffffffffffffffffffffffffffffffffffffffe01693909301608001949350505050565b60405181810167ffffffffffffffff8111828210171561056857fe5b60405291905056fea2646970667358221220338f9f7c564b4a595144567b50ba4edf7347ffedb7fe003eaf30a6432c0f853e64736f6c63430007060033",
  "devdoc": {
    "kind": "dev",
    "methods": {},
    "version": 1
  },
  "userdoc": {
    "kind": "user",
    "methods": {},
    "version": 1
  },
  "storageLayout": {
    "storage": [],
    "types": null
  }
}