{
  "address": "0xa0ba486F4bC1Dab236c098a71E76829B15477202",
  "abi": [
    {
      "anonymous": false,
      "inputs": [
        {
          "indexed": true,
          "internalType": "address",
          "name": "previousOwner",
          "type": "address"
        },
        {
          "indexed": true,
          "internalType": "address",
          "name": "newOwner",
          "type": "address"
        }
      ],
      "name": "OwnershipTransferred",
      "type": "event"
    },
    {
      "inputs": [],
      "name": "__OperatorRole_init",
      "outputs": [],
      "stateMutability": "nonpayable",
      "type": "function"
    },
    {
      "inputs": [
        {
          "internalType": "address",
          "name": "operator",
          "type": "address"
        }
      ],
      "name": "addOperator",
      "outputs": [],
      "stateMutability": "nonpayable",
      "type": "function"
    },
    {
      "inputs": [],
      "name": "owner",
      "outputs": [
        {
          "internalType": "address",
          "name": "",
          "type": "address"
        }
      ],
      "stateMutability": "view",
      "type": "function"
    },
    {
      "inputs": [
        {
          "internalType": "address",
          "name": "operator",
          "type": "address"
        }
      ],
      "name": "removeOperator",
      "outputs": [],
      "stateMutability": "nonpayable",
      "type": "function"
    },
    {
      "inputs": [],
      "name": "renounceOwnership",
      "outputs": [],
      "stateMutability": "nonpayable",
      "type": "function"
    },
    {
      "inputs": [
        {
          "components": [
            {
              "components": [
                {
                  "internalType": "bytes4",
                  "name": "assetClass",
                  "type": "bytes4"
                },
                {
                  "internalType": "bytes",
                  "name": "data",
                  "type": "bytes"
                }
              ],
              "internalType": "struct LibAsset.AssetType",
              "name": "assetType",
              "type": "tuple"
            },
            {
              "internalType": "uint256",
              "name": "value",
              "type": "uint256"
            }
          ],
          "internalType": "struct LibAsset.Asset",
          "name": "asset",
          "type": "tuple"
        },
        {
          "internalType": "address",
          "name": "from",
          "type": "address"
        },
        {
          "internalType": "address",
          "name": "to",
          "type": "address"
        }
      ],
      "name": "transfer",
      "outputs": [],
      "stateMutability": "nonpayable",
      "type": "function"
    },
    {
      "inputs": [
        {
          "internalType": "address",
          "name": "newOwner",
          "type": "address"
        }
      ],
      "name": "transferOwnership",
      "outputs": [],
      "stateMutability": "nonpayable",
      "type": "function"
    }
  ],
  "transactionHash": "0x42ff15d936e5fa9c06fe12f1d87c7ec005b9e91e610d35a439b769780da3372a",
  "args": [],
  "numDeployments": 1,
  "solcInputHash": "97c6bb67a11a3b86c8241c5966d7100e",
  "bytecode": "0x608060405234801561001057600080fd5b5061127a806100206000396000f3fe608060405234801561001057600080fd5b506004361061007d5760003560e01c80638da5cb5b1161005b5780638da5cb5b146100a75780639870d7fe146100c5578063ac8a584a146100d8578063f2fde38b146100eb5761007d565b80632ff26a0a1461008257806354bc0cf11461008c578063715018a61461009f575b600080fd5b61008a6100fe565b005b61008a61009a366004610d85565b610222565b61008a61034c565b6100af610463565b6040516100bc9190610f9e565b60405180910390f35b61008a6100d3366004610c6b565b61047f565b61008a6100e6366004610c6b565b610576565b61008a6100f9366004610c6b565b61066a565b600054610100900460ff1680610117575061011761080c565b80610125575060005460ff16155b61017a576040517f08c379a000000000000000000000000000000000000000000000000000000000815260040180806020018281038252602e8152602001806111ef602e913960400191505060405180910390fd5b600054610100900460ff161580156101e057600080547fffffffffffffffffffffffffffffffffffffffffffffffffffffffffffffff007fffffffffffffffffffffffffffffffffffffffffffffffffffffffffffff00ff909116610100171660011790555b6101e861081d565b6101f061092f565b801561021f57600080547fffffffffffffffffffffffffffffffffffffffffffffffffffffffffffff00ff1690555b50565b6065600061022e610abf565b73ffffffffffffffffffffffffffffffffffffffff16815260208101919091526040016000205460ff166102ad576040517f08c379a000000000000000000000000000000000000000000000000000000000815260040180806020018281038252602881526020018061121d6028913960400191505060405180910390fd5b6000808460000151602001518060200190518101906102cc9190610c87565b915091508173ffffffffffffffffffffffffffffffffffffffff1663ffc4e0a782868689602001516040518563ffffffff1660e01b81526004016103139493929190610fbf565b600060405180830381600087803b15801561032d57600080fd5b505af1158015610341573d6000803e3d6000fd5b505050505050505050565b610354610abf565b73ffffffffffffffffffffffffffffffffffffffff16610372610463565b73ffffffffffffffffffffffffffffffffffffffff16146103f457604080517f08c379a000000000000000000000000000000000000000000000000000000000815260206004820181905260248201527f4f776e61626c653a2063616c6c6572206973206e6f7420746865206f776e6572604482015290519081900360640190fd5b60335460405160009173ffffffffffffffffffffffffffffffffffffffff16907f8be0079c531659141344cd1fd0a4f28419497f9722a3daafe3b4186f6b6457e0908390a3603380547fffffffffffffffffffffffff0000000000000000000000000000000000000000169055565b60335473ffffffffffffffffffffffffffffffffffffffff1690565b610487610abf565b73ffffffffffffffffffffffffffffffffffffffff166104a5610463565b73ffffffffffffffffffffffffffffffffffffffff161461052757604080517f08c379a000000000000000000000000000000000000000000000000000000000815260206004820181905260248201527f4f776e61626c653a2063616c6c6572206973206e6f7420746865206f776e6572604482015290519081900360640190fd5b73ffffffffffffffffffffffffffffffffffffffff16600090815260656020526040902080547fffffffffffffffffffffffffffffffffffffffffffffffffffffffffffffff00166001179055565b61057e610abf565b73ffffffffffffffffffffffffffffffffffffffff1661059c610463565b73ffffffffffffffffffffffffffffffffffffffff161461061e57604080517f08c379a000000000000000000000000000000000000000000000000000000000815260206004820181905260248201527f4f776e61626c653a2063616c6c6572206973206e6f7420746865206f776e6572604482015290519081900360640190fd5b73ffffffffffffffffffffffffffffffffffffffff16600090815260656020526040902080547fffffffffffffffffffffffffffffffffffffffffffffffffffffffffffffff00169055565b610672610abf565b73ffffffffffffffffffffffffffffffffffffffff16610690610463565b73ffffffffffffffffffffffffffffffffffffffff161461071257604080517f08c379a000000000000000000000000000000000000000000000000000000000815260206004820181905260248201527f4f776e61626c653a2063616c6c6572206973206e6f7420746865206f776e6572604482015290519081900360640190fd5b73ffffffffffffffffffffffffffffffffffffffff811661077e576040517f08c379a00000000000000000000000000000000000000000000000000000000081526004018080602001828103825260268152602001806111c96026913960400191505060405180910390fd5b60335460405173ffffffffffffffffffffffffffffffffffffffff8084169216907f8be0079c531659141344cd1fd0a4f28419497f9722a3daafe3b4186f6b6457e090600090a3603380547fffffffffffffffffffffffff00000000000000000000000000000000000000001673ffffffffffffffffffffffffffffffffffffffff92909216919091179055565b600061081730610ac3565b15905090565b600054610100900460ff1680610836575061083661080c565b80610844575060005460ff16155b610899576040517f08c379a000000000000000000000000000000000000000000000000000000000815260040180806020018281038252602e8152602001806111ef602e913960400191505060405180910390fd5b600054610100900460ff161580156101f057600080547fffffffffffffffffffffffffffffffffffffffffffffffffffffffffffffff007fffffffffffffffffffffffffffffffffffffffffffffffffffffffffffff00ff90911661010017166001179055801561021f57600080547fffffffffffffffffffffffffffffffffffffffffffffffffffffffffffff00ff16905550565b600054610100900460ff1680610948575061094861080c565b80610956575060005460ff16155b6109ab576040517f08c379a000000000000000000000000000000000000000000000000000000000815260040180806020018281038252602e8152602001806111ef602e913960400191505060405180910390fd5b600054610100900460ff16158015610a1157600080547fffffffffffffffffffffffffffffffffffffffffffffffffffffffffffffff007fffffffffffffffffffffffffffffffffffffffffffffffffffffffffffff00ff909116610100171660011790555b6000610a1b610abf565b603380547fffffffffffffffffffffffff00000000000000000000000000000000000000001673ffffffffffffffffffffffffffffffffffffffff8316908117909155604051919250906000907f8be0079c531659141344cd1fd0a4f28419497f9722a3daafe3b4186f6b6457e0908290a350801561021f57600080547fffffffffffffffffffffffffffffffffffffffffffffffffffffffffffff00ff16905550565b3390565b803b15155b919050565b6000610ae0610adb84611136565b6110f4565b9050828152838383011115610af457600080fd5b610b02836020830184611176565b9392505050565b8035610ac8816111a6565b600082601f830112610b24578081fd5b81516020610b34610adb83611118565b82815281810190858301855b85811015610b7e578151880189603f820112610b5a578788fd5b610b6b8a8783015160408401610acd565b8552509284019290840190600101610b40565b5090979650505050505050565b600082601f830112610b9b578081fd5b81516020610bab610adb83611118565b82815281810190858301604080860288018501891015610bc9578687fd5b865b86811015610c3e5781838b031215610be1578788fd5b815182810181811067ffffffffffffffff82111715610bfc57fe5b83528351610c09816111a6565b8152838701516bffffffffffffffffffffffff81168114610c2857898afd5b8188015285529385019391810191600101610bcb565b509198975050505050505050565b600082601f830112610c5c578081fd5b610b0283835160208501610acd565b600060208284031215610c7c578081fd5b8135610b02816111a6565b60008060408385031215610c99578081fd5b8251610ca4816111a6565b602084015190925067ffffffffffffffff80821115610cc1578283fd5b9084019060c08287031215610cd4578283fd5b610cde60c06110f4565b82518152602083015182811115610cf3578485fd5b610cff88828601610c4c565b60208301525060408301516040820152606083015182811115610d20578485fd5b610d2c88828601610b8b565b606083015250608083015182811115610d43578485fd5b610d4f88828601610b8b565b60808301525060a083015182811115610d66578485fd5b610d7288828601610b14565b60a0830152508093505050509250929050565b600080600060608486031215610d99578081fd5b833567ffffffffffffffff80821115610db0578283fd5b81860191506040808389031215610dc5578384fd5b80518181018181108482111715610dd857fe5b808352843584811115610de9578687fd5b8501808b03841315610df9578687fd5b608083018281108682111715610e0b57fe5b845280357fffffffff0000000000000000000000000000000000000000000000000000000081168114610e3c578788fd5b825260208181013586811115610e50578889fd5b82019550601f86018c13610e62578788fd5b85359150610e72610adb83611136565b8281528c82848901011115610e85578889fd5b828288018383013788828483010152806060860152508284528087013581850152839950610eb4818c01610b09565b985050505050610ec5818801610b09565b93505050509250925092565b73ffffffffffffffffffffffffffffffffffffffff169052565b6000815180845260208085019450808401835b83811015610f49578151805173ffffffffffffffffffffffffffffffffffffffff1688528301516bffffffffffffffffffffffff168388015260409096019590820190600101610efe565b509495945050505050565b60008151808452610f6c816020860160208601611176565b601f017fffffffffffffffffffffffffffffffffffffffffffffffffffffffffffffffe0169290920160200192915050565b73ffffffffffffffffffffffffffffffffffffffff91909116815260200190565b6000608082528551608083015260208087015160c060a0850152610fe7610140850182610f54565b9050604088015160c085015260608801517fffffffffffffffffffffffffffffffffffffffffffffffffffffffffffffff80808684030160e087015261102d8383610eeb565b925060808a01519150808684030161010087015261104b8383610eeb565b60a08b0151878203909201610120880152815180825290935090840191508383019084810284018501865b828110156110c2577fffffffffffffffffffffffffffffffffffffffffffffffffffffffffffffffe08683030184526110b0828651610f54565b94870194938701939150600101611076565b5080965050505050506110d781840187610ed1565b506110e56040830185610ed1565b82606083015295945050505050565b60405181810167ffffffffffffffff8111828210171561111057fe5b604052919050565b600067ffffffffffffffff82111561112c57fe5b5060209081020190565b600067ffffffffffffffff82111561114a57fe5b50601f017fffffffffffffffffffffffffffffffffffffffffffffffffffffffffffffffe01660200190565b60005b83811015611191578181015183820152602001611179565b838111156111a0576000848401525b50505050565b73ffffffffffffffffffffffffffffffffffffffff8116811461021f57600080fdfe4f776e61626c653a206e6577206f776e657220697320746865207a65726f2061646472657373496e697469616c697a61626c653a20636f6e747261637420697320616c726561647920696e697469616c697a65644f70657261746f72526f6c653a2063616c6c6572206973206e6f7420746865206f70657261746f72a2646970667358221220a9559fcbb2f365a4c886add0d0c375113571cce65edfa9daf7819de91938e4b564736f6c63430007060033",
  "devdoc": {
    "kind": "dev",
    "methods": {
      "owner()": {
        "details": "Returns the address of the current owner."
      },
      "renounceOwnership()": {
        "details": "Leaves the contract without owner. It will not be possible to call `onlyOwner` functions anymore. Can only be called by the current owner. NOTE: Renouncing ownership will leave the contract without an owner, thereby removing any functionality that is only available to the owner."
      },
      "transferOwnership(address)": {
        "details": "Transfers ownership of the contract to a new account (`newOwner`). Can only be called by the current owner."
      }
    },
    "version": 1
  },
  "userdoc": {
    "kind": "user",
    "methods": {},
    "version": 1
  },
  "storageLayout": {
    "storage": [
      {
        "astId": 812,
        "contract": "@rarible/transfer-proxy/contracts/lazy-mint/erc1155/ERC1155LazyMintTransferProxy.sol:ERC1155LazyMintTransferProxy",
        "label": "_initialized",
        "offset": 0,
        "slot": "0",
        "type": "t_bool"
      },
      {
        "astId": 815,
        "contract": "@rarible/transfer-proxy/contracts/lazy-mint/erc1155/ERC1155LazyMintTransferProxy.sol:ERC1155LazyMintTransferProxy",
        "label": "_initializing",
        "offset": 1,
        "slot": "0",
        "type": "t_bool"
      },
      {
        "astId": 1662,
        "contract": "@rarible/transfer-proxy/contracts/lazy-mint/erc1155/ERC1155LazyMintTransferProxy.sol:ERC1155LazyMintTransferProxy",
        "label": "__gap",
        "offset": 0,
        "slot": "1",
        "type": "t_array(t_uint256)50_storage"
      },
      {
        "astId": 10,
        "contract": "@rarible/transfer-proxy/contracts/lazy-mint/erc1155/ERC1155LazyMintTransferProxy.sol:ERC1155LazyMintTransferProxy",
        "label": "_owner",
        "offset": 0,
        "slot": "51",
        "type": "t_address"
      },
      {
        "astId": 129,
        "contract": "@rarible/transfer-proxy/contracts/lazy-mint/erc1155/ERC1155LazyMintTransferProxy.sol:ERC1155LazyMintTransferProxy",
        "label": "__gap",
        "offset": 0,
        "slot": "52",
        "type": "t_array(t_uint256)49_storage"
      },
      {
        "astId": 17019,
        "contract": "@rarible/transfer-proxy/contracts/lazy-mint/erc1155/ERC1155LazyMintTransferProxy.sol:ERC1155LazyMintTransferProxy",
        "label": "operators",
        "offset": 0,
        "slot": "101",
        "type": "t_mapping(t_address,t_bool)"
      }
    ],
    "types": {
      "t_address": {
        "encoding": "inplace",
        "label": "address",
        "numberOfBytes": "20"
      },
      "t_array(t_uint256)49_storage": {
        "base": "t_uint256",
        "encoding": "inplace",
        "label": "uint256[49]",
        "numberOfBytes": "1568"
      },
      "t_array(t_uint256)50_storage": {
        "base": "t_uint256",
        "encoding": "inplace",
        "label": "uint256[50]",
        "numberOfBytes": "1600"
      },
      "t_bool": {
        "encoding": "inplace",
        "label": "bool",
        "numberOfBytes": "1"
      },
      "t_mapping(t_address,t_bool)": {
        "encoding": "mapping",
        "key": "t_address",
        "label": "mapping(address => bool)",
        "numberOfBytes": "32",
        "value": "t_bool"
      },
      "t_uint256": {
        "encoding": "inplace",
        "label": "uint256",
        "numberOfBytes": "32"
      }
    }
  }
}