{
  "address": "0x7bC597F5f00EA639DCb487F8BEF5c2694Cf48039",
  "abi": [
    {
      "anonymous": false,
      "inputs": [
        {
          "indexed": true,
          "internalType": "address",
          "name": "owner",
          "type": "address"
        },
        {
          "indexed": true,
          "internalType": "address",
          "name": "approved",
          "type": "address"
        },
        {
          "indexed": true,
          "internalType": "uint256",
          "name": "tokenId",
          "type": "uint256"
        }
      ],
      "name": "Approval",
      "type": "event"
    },
    {
      "anonymous": false,
      "inputs": [
        {
          "indexed": true,
          "internalType": "address",
          "name": "owner",
          "type": "address"
        },
        {
          "indexed": true,
          "internalType": "address",
          "name": "operator",
          "type": "address"
        },
        {
          "indexed": false,
          "internalType": "bool",
          "name": "approved",
          "type": "bool"
        }
      ],
      "name": "ApprovalForAll",
      "type": "event"
    },
    {
      "anonymous": false,
      "inputs": [
        {
          "indexed": false,
          "internalType": "address",
          "name": "owner",
          "type": "address"
        },
        {
          "indexed": false,
          "internalType": "string",
          "name": "name",
          "type": "string"
        },
        {
          "indexed": false,
          "internalType": "string",
          "name": "symbol",
          "type": "string"
        }
      ],
      "name": "CreateERC721Sipher",
      "type": "event"
    },
    {
      "anonymous": false,
      "inputs": [
        {
          "indexed": false,
          "internalType": "uint256",
          "name": "tokenId",
          "type": "uint256"
        },
        {
          "components": [
            {
              "internalType": "address payable",
              "name": "account",
              "type": "address"
            },
            {
              "internalType": "uint96",
              "name": "value",
              "type": "uint96"
            }
          ],
          "indexed": false,
          "internalType": "struct LibPart.Part[]",
          "name": "creators",
          "type": "tuple[]"
        }
      ],
      "name": "Creators",
      "type": "event"
    },
    {
      "anonymous": false,
      "inputs": [
        {
          "indexed": true,
          "internalType": "address",
          "name": "operator",
          "type": "address"
        },
        {
          "indexed": false,
          "internalType": "bool",
          "name": "hasApproval",
          "type": "bool"
        }
      ],
      "name": "DefaultApproval",
      "type": "event"
    },
    {
      "anonymous": false,
      "inputs": [
        {
          "indexed": true,
          "internalType": "address",
          "name": "previousOwner",
          "type": "address"
        },
        {
          "indexed": true,
          "internalType": "address",
          "name": "newOwner",
          "type": "address"
        }
      ],
      "name": "OwnershipTransferred",
      "type": "event"
    },
    {
      "anonymous": false,
      "inputs": [
        {
          "indexed": false,
          "internalType": "uint256",
          "name": "tokenId",
          "type": "uint256"
        },
        {
          "components": [
            {
              "internalType": "address payable",
              "name": "account",
              "type": "address"
            },
            {
              "internalType": "uint96",
              "name": "value",
              "type": "uint96"
            }
          ],
          "indexed": false,
          "internalType": "struct LibPart.Part[]",
          "name": "royalties",
          "type": "tuple[]"
        }
      ],
      "name": "RoyaltiesSet",
      "type": "event"
    },
    {
      "anonymous": false,
      "inputs": [
        {
          "indexed": true,
          "internalType": "address",
          "name": "from",
          "type": "address"
        },
        {
          "indexed": true,
          "internalType": "address",
          "name": "to",
          "type": "address"
        },
        {
          "indexed": true,
          "internalType": "uint256",
          "name": "tokenId",
          "type": "uint256"
        }
      ],
      "name": "Transfer",
      "type": "event"
    },
    {
      "inputs": [
        {
          "internalType": "string",
          "name": "_name",
          "type": "string"
        },
        {
          "internalType": "string",
          "name": "_symbol",
          "type": "string"
        },
        {
          "internalType": "string",
          "name": "baseURI",
          "type": "string"
        },
        {
          "internalType": "string",
          "name": "contractURI",
          "type": "string"
        },
        {
          "internalType": "address",
          "name": "transferProxy",
          "type": "address"
        },
        {
          "internalType": "address",
          "name": "lazyTransferProxy",
          "type": "address"
        }
      ],
      "name": "__ERC721Sipher_init",
      "outputs": [],
      "stateMutability": "nonpayable",
      "type": "function"
    },
    {
      "inputs": [
        {
          "internalType": "address",
          "name": "to",
          "type": "address"
        },
        {
          "internalType": "uint256",
          "name": "tokenId",
          "type": "uint256"
        }
      ],
      "name": "approve",
      "outputs": [],
      "stateMutability": "nonpayable",
      "type": "function"
    },
    {
      "inputs": [
        {
          "internalType": "address",
          "name": "owner",
          "type": "address"
        }
      ],
      "name": "balanceOf",
      "outputs": [
        {
          "internalType": "uint256",
          "name": "",
          "type": "uint256"
        }
      ],
      "stateMutability": "view",
      "type": "function"
    },
    {
      "inputs": [],
      "name": "baseURI",
      "outputs": [
        {
          "internalType": "string",
          "name": "",
          "type": "string"
        }
      ],
      "stateMutability": "view",
      "type": "function"
    },
    {
      "inputs": [
        {
          "internalType": "uint256",
          "name": "tokenId",
          "type": "uint256"
        }
      ],
      "name": "burn",
      "outputs": [],
      "stateMutability": "nonpayable",
      "type": "function"
    },
    {
      "inputs": [],
      "name": "contractURI",
      "outputs": [
        {
          "internalType": "string",
          "name": "",
          "type": "string"
        }
      ],
      "stateMutability": "view",
      "type": "function"
    },
    {
      "inputs": [
        {
          "internalType": "uint256",
          "name": "tokenId",
          "type": "uint256"
        }
      ],
      "name": "getApproved",
      "outputs": [
        {
          "internalType": "address",
          "name": "",
          "type": "address"
        }
      ],
      "stateMutability": "view",
      "type": "function"
    },
    {
      "inputs": [
        {
          "internalType": "uint256",
          "name": "_id",
          "type": "uint256"
        }
      ],
      "name": "getCreators",
      "outputs": [
        {
          "components": [
            {
              "internalType": "address payable",
              "name": "account",
              "type": "address"
            },
            {
              "internalType": "uint96",
              "name": "value",
              "type": "uint96"
            }
          ],
          "internalType": "struct LibPart.Part[]",
          "name": "",
          "type": "tuple[]"
        }
      ],
      "stateMutability": "view",
      "type": "function"
    },
    {
      "inputs": [
        {
          "internalType": "uint256",
          "name": "id",
          "type": "uint256"
        }
      ],
      "name": "getSipherV2Royalties",
      "outputs": [
        {
          "components": [
            {
              "internalType": "address payable",
              "name": "account",
              "type": "address"
            },
            {
              "internalType": "uint96",
              "name": "value",
              "type": "uint96"
            }
          ],
          "internalType": "struct LibPart.Part[]",
          "name": "",
          "type": "tuple[]"
        }
      ],
      "stateMutability": "view",
      "type": "function"
    },
    {
      "inputs": [
        {
          "internalType": "address",
          "name": "owner",
          "type": "address"
        },
        {
          "internalType": "address",
          "name": "operator",
          "type": "address"
        }
      ],
      "name": "isApprovedForAll",
      "outputs": [
        {
          "internalType": "bool",
          "name": "",
          "type": "bool"
        }
      ],
      "stateMutability": "view",
      "type": "function"
    },
    {
      "inputs": [
        {
          "components": [
            {
              "internalType": "uint256",
              "name": "tokenId",
              "type": "uint256"
            },
            {
              "internalType": "string",
              "name": "tokenURI",
              "type": "string"
            },
            {
              "components": [
                {
                  "internalType": "address payable",
                  "name": "account",
                  "type": "address"
                },
                {
                  "internalType": "uint96",
                  "name": "value",
                  "type": "uint96"
                }
              ],
              "internalType": "struct LibPart.Part[]",
              "name": "creators",
              "type": "tuple[]"
            },
            {
              "components": [
                {
                  "internalType": "address payable",
                  "name": "account",
                  "type": "address"
                },
                {
                  "internalType": "uint96",
                  "name": "value",
                  "type": "uint96"
                }
              ],
              "internalType": "struct LibPart.Part[]",
              "name": "royalties",
              "type": "tuple[]"
            },
            {
              "internalType": "bytes[]",
              "name": "signatures",
              "type": "bytes[]"
            }
          ],
          "internalType": "struct LibERC721LazyMint.Mint721Data",
          "name": "data",
          "type": "tuple"
        },
        {
          "internalType": "address",
          "name": "to",
          "type": "address"
        }
      ],
      "name": "mintAndTransfer",
      "outputs": [],
      "stateMutability": "nonpayable",
      "type": "function"
    },
    {
      "inputs": [],
      "name": "name",
      "outputs": [
        {
          "internalType": "string",
          "name": "",
          "type": "string"
        }
      ],
      "stateMutability": "view",
      "type": "function"
    },
    {
      "inputs": [],
      "name": "owner",
      "outputs": [
        {
          "internalType": "address",
          "name": "",
          "type": "address"
        }
      ],
      "stateMutability": "view",
      "type": "function"
    },
    {
      "inputs": [
        {
          "internalType": "uint256",
          "name": "tokenId",
          "type": "uint256"
        }
      ],
      "name": "ownerOf",
      "outputs": [
        {
          "internalType": "address",
          "name": "",
          "type": "address"
        }
      ],
      "stateMutability": "view",
      "type": "function"
    },
    {
      "inputs": [],
      "name": "renounceOwnership",
      "outputs": [],
      "stateMutability": "nonpayable",
      "type": "function"
    },
    {
      "inputs": [
        {
          "internalType": "uint256",
          "name": "id",
          "type": "uint256"
        },
        {
          "internalType": "uint256",
          "name": "_salePrice",
          "type": "uint256"
        }
      ],
      "name": "royaltyInfo",
      "outputs": [
        {
          "internalType": "address",
          "name": "receiver",
          "type": "address"
        },
        {
          "internalType": "uint256",
          "name": "royaltyAmount",
          "type": "uint256"
        }
      ],
      "stateMutability": "view",
      "type": "function"
    },
    {
      "inputs": [
        {
          "internalType": "address",
          "name": "from",
          "type": "address"
        },
        {
          "internalType": "address",
          "name": "to",
          "type": "address"
        },
        {
          "internalType": "uint256",
          "name": "tokenId",
          "type": "uint256"
        }
      ],
      "name": "safeTransferFrom",
      "outputs": [],
      "stateMutability": "nonpayable",
      "type": "function"
    },
    {
      "inputs": [
        {
          "internalType": "address",
          "name": "from",
          "type": "address"
        },
        {
          "internalType": "address",
          "name": "to",
          "type": "address"
        },
        {
          "internalType": "uint256",
          "name": "tokenId",
          "type": "uint256"
        },
        {
          "internalType": "bytes",
          "name": "_data",
          "type": "bytes"
        }
      ],
      "name": "safeTransferFrom",
      "outputs": [],
      "stateMutability": "nonpayable",
      "type": "function"
    },
    {
      "inputs": [
        {
          "internalType": "address",
          "name": "operator",
          "type": "address"
        },
        {
          "internalType": "bool",
          "name": "approved",
          "type": "bool"
        }
      ],
      "name": "setApprovalForAll",
      "outputs": [],
      "stateMutability": "nonpayable",
      "type": "function"
    },
    {
      "inputs": [
        {
          "internalType": "bytes4",
          "name": "interfaceId",
          "type": "bytes4"
        }
      ],
      "name": "supportsInterface",
      "outputs": [
        {
          "internalType": "bool",
          "name": "",
          "type": "bool"
        }
      ],
      "stateMutability": "view",
      "type": "function"
    },
    {
      "inputs": [],
      "name": "symbol",
      "outputs": [
        {
          "internalType": "string",
          "name": "",
          "type": "string"
        }
      ],
      "stateMutability": "view",
      "type": "function"
    },
    {
      "inputs": [
        {
          "internalType": "uint256",
          "name": "index",
          "type": "uint256"
        }
      ],
      "name": "tokenByIndex",
      "outputs": [
        {
          "internalType": "uint256",
          "name": "",
          "type": "uint256"
        }
      ],
      "stateMutability": "view",
      "type": "function"
    },
    {
      "inputs": [
        {
          "internalType": "address",
          "name": "owner",
          "type": "address"
        },
        {
          "internalType": "uint256",
          "name": "index",
          "type": "uint256"
        }
      ],
      "name": "tokenOfOwnerByIndex",
      "outputs": [
        {
          "internalType": "uint256",
          "name": "",
          "type": "uint256"
        }
      ],
      "stateMutability": "view",
      "type": "function"
    },
    {
      "inputs": [
        {
          "internalType": "uint256",
          "name": "tokenId",
          "type": "uint256"
        }
      ],
      "name": "tokenURI",
      "outputs": [
        {
          "internalType": "string",
          "name": "",
          "type": "string"
        }
      ],
      "stateMutability": "view",
      "type": "function"
    },
    {
      "inputs": [],
      "name": "totalSupply",
      "outputs": [
        {
          "internalType": "uint256",
          "name": "",
          "type": "uint256"
        }
      ],
      "stateMutability": "view",
      "type": "function"
    },
    {
      "inputs": [
        {
          "internalType": "address",
          "name": "from",
          "type": "address"
        },
        {
          "internalType": "address",
          "name": "to",
          "type": "address"
        },
        {
          "internalType": "uint256",
          "name": "tokenId",
          "type": "uint256"
        }
      ],
      "name": "transferFrom",
      "outputs": [],
      "stateMutability": "nonpayable",
      "type": "function"
    },
    {
      "inputs": [
        {
          "components": [
            {
              "internalType": "uint256",
              "name": "tokenId",
              "type": "uint256"
            },
            {
              "internalType": "string",
              "name": "tokenURI",
              "type": "string"
            },
            {
              "components": [
                {
                  "internalType": "address payable",
                  "name": "account",
                  "type": "address"
                },
                {
                  "internalType": "uint96",
                  "name": "value",
                  "type": "uint96"
                }
              ],
              "internalType": "struct LibPart.Part[]",
              "name": "creators",
              "type": "tuple[]"
            },
            {
              "components": [
                {
                  "internalType": "address payable",
                  "name": "account",
                  "type": "address"
                },
                {
                  "internalType": "uint96",
                  "name": "value",
                  "type": "uint96"
                }
              ],
              "internalType": "struct LibPart.Part[]",
              "name": "royalties",
              "type": "tuple[]"
            },
            {
              "internalType": "bytes[]",
              "name": "signatures",
              "type": "bytes[]"
            }
          ],
          "internalType": "struct LibERC721LazyMint.Mint721Data",
          "name": "data",
          "type": "tuple"
        },
        {
          "internalType": "address",
          "name": "from",
          "type": "address"
        },
        {
          "internalType": "address",
          "name": "to",
          "type": "address"
        }
      ],
      "name": "transferFromOrMint",
      "outputs": [],
      "stateMutability": "nonpayable",
      "type": "function"
    },
    {
      "inputs": [
        {
          "internalType": "address",
          "name": "newOwner",
          "type": "address"
        }
      ],
      "name": "transferOwnership",
      "outputs": [],
      "stateMutability": "nonpayable",
      "type": "function"
    },
    {
      "inputs": [
        {
          "internalType": "uint256",
          "name": "_id",
          "type": "uint256"
        },
        {
          "internalType": "address",
          "name": "_from",
          "type": "address"
        },
        {
          "internalType": "address",
          "name": "_to",
          "type": "address"
        }
      ],
      "name": "updateAccount",
      "outputs": [],
      "stateMutability": "nonpayable",
      "type": "function"
    }
  ],
  "transactionHash": "0x32283afae0ca7a684cc5496bea555a61fb4ea8f27c13b75ff511efe4040279a9",
  "args": [],
  "numDeployments": 1,
  "solcInputHash": "486fac33c11fdad45a5597b727ee6185",
  "bytecode": "0x608060405234801561001057600080fd5b506153f7806100206000396000f3fe608060405234801561001057600080fd5b50600436106101cf5760003560e01c80636352211e1161010457806395d89b41116100a2578063e07f231911610071578063e07f2319146103c7578063e8a3d485146103da578063e985e9c5146103e2578063f2fde38b146103f5576101cf565b806395d89b4114610386578063a22cb4651461038e578063b88d4fde146103a1578063c87b56dd146103b4576101cf565b8063715018a6116100de578063715018a614610350578063832fbb2914610358578063891be9741461036b5780638da5cb5b1461037e576101cf565b80636352211e146103225780636c0360eb1461033557806370a082311461033d576101cf565b806323b872dd1161017157806337ed5d761161014b57806337ed5d76146102d657806342842e0e146102e957806342966c68146102fc5780634f6ccce71461030f576101cf565b806323b872dd1461028f5780632a55205a146102a25780632f745c59146102c3576101cf565b8063083d99bb116101ad578063083d99bb14610232578063095ea7b31461025257806318160ddd1461026757806322a775b61461027c576101cf565b806301ffc9a7146101d457806306fdde03146101fd578063081812fc14610212575b600080fd5b6101e76101e23660046149d8565b610408565b6040516101f49190614d53565b60405180910390f35b61020561041b565b6040516101f49190614d5e565b610225610220366004614b87565b6104b1565b6040516101f49190614cb8565b610245610240366004614b87565b610520565b6040516101f49190614d40565b6102656102603660046149ad565b6105d3565b005b61026f6106e2565b6040516101f49190614fa8565b61026561028a366004614ae0565b6106f3565b61026561029d3660046148d2565b6108cc565b6102b56102b0366004614bc5565b610923565b6040516101f4929190614d1a565b61026f6102d13660046149ad565b610a5b565b6102656102e4366004614a18565b610a93565b6102656102f73660046148d2565b610b8b565b61026561030a366004614b87565b610ba6565b61026f61031d366004614b87565b610c8a565b610225610330366004614b87565b610ca0565b610205610cc8565b61026f61034b36600461487e565b610d29565b610265610dab565b610265610366366004614b25565b610ea8565b610245610379366004614b87565b610ed6565b610225610f74565b610205610f90565b61026561039c36600461497c565b610ff1565b6102656103af366004614912565b61112a565b6102056103c2366004614b87565b611188565b6102656103d5366004614b9f565b61139e565b6102056113fb565b6101e76103f036600461489a565b61148a565b61026561040336600461487e565b611496565b600061041382611604565b90505b919050565b609c8054604080516020601f60026000196101006001881615020190951694909404938401819004810282018101909252828152606093909290918301828280156104a75780601f1061047c576101008083540402835291602001916104a7565b820191906000526020600020905b81548152906001019060200180831161048a57829003601f168201915b5050505050905090565b60006104bc82611815565b6104f75760405162461bcd60e51b815260040180806020018281038252602c81526020018061526b602c913960400191505060405180910390fd5b506000908152609a602052604090205473ffffffffffffffffffffffffffffffffffffffff1690565b60606101c66000838152602001908152602001600020805480602002602001604051908101604052809291908181526020016000905b828210156105c8576000848152602090819020604080518082019091529084015473ffffffffffffffffffffffffffffffffffffffff811682527401000000000000000000000000000000000000000090046bffffffffffffffffffffffff1681830152825260019092019101610556565b505050509050919050565b60006105de82610ca0565b90508073ffffffffffffffffffffffffffffffffffffffff168373ffffffffffffffffffffffffffffffffffffffff16141561064b5760405162461bcd60e51b815260040180806020018281038252602181526020018061531b6021913960400191505060405180910390fd5b8073ffffffffffffffffffffffffffffffffffffffff1661066a611822565b73ffffffffffffffffffffffffffffffffffffffff161480610698575061069881610693611822565b611826565b6106d35760405162461bcd60e51b81526004018080602001828103825260388152602001806151416038913960400191505060405180910390fd5b6106dd8383611861565b505050565b60006106ee6098611901565b905090565b815160601c6000610702611822565b9050836040015160008151811061071557fe5b60200260200101516000015173ffffffffffffffffffffffffffffffffffffffff168273ffffffffffffffffffffffffffffffffffffffff16146107745760405162461bcd60e51b815260040161076b90614ddd565b60405180910390fd5b8360800151518460400151511461078a57600080fd5b8073ffffffffffffffffffffffffffffffffffffffff168273ffffffffffffffffffffffffffffffffffffffff1614806107c957506107c9828261148a565b6107e55760405162461bcd60e51b815260040161076b90614eb7565b60006107f08561190c565b905060005b8560400151518110156108805760008660400151828151811061081457fe5b60200260200101516000015190508373ffffffffffffffffffffffffffffffffffffffff168173ffffffffffffffffffffffffffffffffffffffff16146108775761087781848960800151858151811061086a57fe5b6020026020010151611b55565b506001016107f5565b5061088f848660000151611b60565b6108a185600001518660600151611b7e565b6108b385600001518660400151611dcc565b6108c585600001518660200151611fda565b5050505050565b6108dd6108d7611822565b8261203d565b6109185760405162461bcd60e51b815260040180806020018281038252603181526020018061533c6031913960400191505060405180910390fd5b6106dd838383612049565b60008281526101c66020526040812054819061094457506000905080610a54565b60008481526101c66020908152604080832080548251818502810185019093528083529192909190849084015b828210156109e3576000848152602090819020604080518082019091529084015473ffffffffffffffffffffffffffffffffffffffff811682527401000000000000000000000000000000000000000090046bffffffffffffffffffffffff1681830152825260019092019101610971565b505050509050806000815181106109f657fe5b60209081029190910101515192506000805b8251811015610a4857828181518110610a1d57fe5b6020026020010151602001516bffffffffffffffffffffffff16820191508080600101915050610a08565b50612710908502049150505b9250929050565b73ffffffffffffffffffffffffffffffffffffffff82166000908152609760205260408120610a8a90836121f0565b90505b92915050565b600054610100900460ff1680610aac5750610aac6121fc565b80610aba575060005460ff16155b610af55760405162461bcd60e51b815260040180806020018281038252602e8152602001806151cc602e913960400191505060405180910390fd5b600054610100900460ff16158015610b20576000805460ff1961ff0019909116610100171660011790555b610b2e87878787878761220d565b7f1c82072046345795ece476153b70942e74da1b15d7977faabb077e8cad76d8b2610b57611822565b8888604051610b6893929190614cd9565b60405180910390a18015610b82576000805461ff00191690555b50505050505050565b6106dd8383836040518060200160405280600081525061112a565b610baf81611815565b610c3857606081901c610bc0611822565b73ffffffffffffffffffffffffffffffffffffffff168173ffffffffffffffffffffffffffffffffffffffff1614610c295760405162461bcd60e51b815260040180806020018281038252602d81526020018061523e602d913960400191505060405180910390fd5b610c328261227f565b50610c87565b610c436108d7611822565b610c7e5760405162461bcd60e51b81526004018080602001828103825260308152602001806153926030913960400191505060405180910390fd5b610c878161229a565b50565b600080610c9860988461238a565b509392505050565b6000610413826040518060600160405280602981526020016151a360299139609891906123a6565b609f8054604080516020601f60026000196101006001881615020190951694909404938401819004810282018101909252828152606093909290918301828280156104a75780601f1061047c576101008083540402835291602001916104a7565b600073ffffffffffffffffffffffffffffffffffffffff8216610d7d5760405162461bcd60e51b815260040180806020018281038252602a815260200180615179602a913960400191505060405180910390fd5b73ffffffffffffffffffffffffffffffffffffffff8216600090815260976020526040902061041390611901565b610db3611822565b73ffffffffffffffffffffffffffffffffffffffff16610dd1610f74565b73ffffffffffffffffffffffffffffffffffffffff1614610e39576040805162461bcd60e51b815260206004820181905260248201527f4f776e61626c653a2063616c6c6572206973206e6f7420746865206f776e6572604482015290519081900360640190fd5b60335460405160009173ffffffffffffffffffffffffffffffffffffffff16907f8be0079c531659141344cd1fd0a4f28419497f9722a3daafe3b4186f6b6457e0908390a3603380547fffffffffffffffffffffffff0000000000000000000000000000000000000000169055565b8251610eb390611815565b15610ecc57610ec782828560000151610b8b565b6106dd565b6106dd83826106f3565b60008181526101c7602090815260408083208054825181850281018501909352808352606094929391929091840182156105c8576000848152602090819020604080518082019091529084015473ffffffffffffffffffffffffffffffffffffffff811682527401000000000000000000000000000000000000000090046bffffffffffffffffffffffff1681830152825260019092019101610556565b60335473ffffffffffffffffffffffffffffffffffffffff1690565b609d8054604080516020601f60026000196101006001881615020190951694909404938401819004810282018101909252828152606093909290918301828280156104a75780601f1061047c576101008083540402835291602001916104a7565b610ff9611822565b73ffffffffffffffffffffffffffffffffffffffff168273ffffffffffffffffffffffffffffffffffffffff161415611079576040805162461bcd60e51b815260206004820152601960248201527f4552433732313a20617070726f766520746f2063616c6c657200000000000000604482015290519081900360640190fd5b80609b6000611086611822565b73ffffffffffffffffffffffffffffffffffffffff908116825260208083019390935260409182016000908120918716808252919093529120805460ff1916921515929092179091556110d7611822565b73ffffffffffffffffffffffffffffffffffffffff167f17307eab39ab6107e8899845ad3d59bd9653f200f220920489ca2b5937696c318360405180821515815260200191505060405180910390a35050565b61113b611135611822565b8361203d565b6111765760405162461bcd60e51b815260040180806020018281038252603181526020018061533c6031913960400191505060405180910390fd5b611182848484846123bd565b50505050565b606061119382611815565b6111ce5760405162461bcd60e51b815260040180806020018281038252602f8152602001806152ec602f913960400191505060405180910390fd5b6000828152609e602090815260408083208054825160026001831615610100026000190190921691909104601f8101859004850282018501909352828152929091908301828280156112615780601f1061123657610100808354040283529160200191611261565b820191906000526020600020905b81548152906001019060200180831161124457829003601f168201915b505050505090506000611272610cc8565b905080516000141561128657509050610416565b8151156112a057611297818361240f565b92505050610416565b806112aa8561269c565b6040516020018083805190602001908083835b602083106112fa57805182527fffffffffffffffffffffffffffffffffffffffffffffffffffffffffffffffe090920191602091820191016112bd565b51815160209384036101000a600019018019909216911617905285519190930192850191508083835b6020831061136057805182527fffffffffffffffffffffffffffffffffffffffffffffffffffffffffffffffe09092019160209182019101611323565b6001836020036101000a0380198251168184511680821785525050505050509050019250505060405160208183030381529060405292505050919050565b8173ffffffffffffffffffffffffffffffffffffffff166113bd611822565b73ffffffffffffffffffffffffffffffffffffffff16146113f05760405162461bcd60e51b815260040161076b90614e14565b6106dd8383836127ab565b6101fa805460408051602060026001851615610100026000190190941693909304601f810184900484028201840190925281815292918301828280156114825780601f1061145757610100808354040283529160200191611482565b820191906000526020600020905b81548152906001019060200180831161146557829003601f168201915b505050505081565b6000610a8a8383612896565b61149e611822565b73ffffffffffffffffffffffffffffffffffffffff166114bc610f74565b73ffffffffffffffffffffffffffffffffffffffff1614611524576040805162461bcd60e51b815260206004820181905260248201527f4f776e61626c653a2063616c6c6572206973206e6f7420746865206f776e6572604482015290519081900360640190fd5b73ffffffffffffffffffffffffffffffffffffffff81166115765760405162461bcd60e51b81526004018080602001828103825260268152602001806150836026913960400191505060405180910390fd5b60335460405173ffffffffffffffffffffffffffffffffffffffff8084169216907f8be0079c531659141344cd1fd0a4f28419497f9722a3daafe3b4186f6b6457e090600090a3603380547fffffffffffffffffffffffff00000000000000000000000000000000000000001673ffffffffffffffffffffffffffffffffffffffff92909216919091179055565b60007fffffffff0000000000000000000000000000000000000000000000000000000082167f8486f69f00000000000000000000000000000000000000000000000000000000148061169757507fffffffff0000000000000000000000000000000000000000000000000000000082167fcad96cca00000000000000000000000000000000000000000000000000000000145b806116e357507fffffffff0000000000000000000000000000000000000000000000000000000082167f2a55205a00000000000000000000000000000000000000000000000000000000145b8061172f57507fffffffff0000000000000000000000000000000000000000000000000000000082167f01ffc9a700000000000000000000000000000000000000000000000000000000145b8061177b57507fffffffff0000000000000000000000000000000000000000000000000000000082167f80ac58cd00000000000000000000000000000000000000000000000000000000145b806117c757507fffffffff0000000000000000000000000000000000000000000000000000000082167f5b5e139f00000000000000000000000000000000000000000000000000000000145b806104135750507fffffffff00000000000000000000000000000000000000000000000000000000167f780e9d63000000000000000000000000000000000000000000000000000000001490565b60006104136098836128cf565b3390565b73ffffffffffffffffffffffffffffffffffffffff9182166000908152609b6020908152604080832093909416825291909152205460ff1690565b6000818152609a6020526040902080547fffffffffffffffffffffffff00000000000000000000000000000000000000001673ffffffffffffffffffffffffffffffffffffffff841690811790915581906118bb82610ca0565b73ffffffffffffffffffffffffffffffffffffffff167f8c5be1e5ebec7d5bd14f71427d1e84f3dd0314c0f7b2291e5b200ac8c7c3b92560405160405180910390a45050565b6000610413826128db565b60008082606001515167ffffffffffffffff8111801561192b57600080fd5b50604051908082528060200260200182016040528015611955578160200160208202803683370190505b50905060005b8360600151518110156119a7576119888460600151828151811061197b57fe5b60200260200101516128df565b82828151811061199457fe5b602090810291909101015260010161195b565b50600083604001515167ffffffffffffffff811180156119c657600080fd5b506040519080825280602002602001820160405280156119f0578160200160208202803683370190505b50905060005b846040015151811015611a3557611a168560400151828151811061197b57fe5b828281518110611a2257fe5b60209081029190910101526001016119f6565b507ff64326045af5fd7e15297ba939f85b550474d3899daa47d2bc1ffbdb9ced344e84600001518560200151805190602001208360405160200180828051906020019060200280838360005b83811015611a99578181015183820152602001611a81565b50505050905001915050604051602081830303815290604052805190602001208560405160200180828051906020019060200280838360005b83811015611aea578181015183820152602001611ad2565b505050509050019150506040516020818303038152906040528051906020012060405160200180868152602001858152602001848152602001838152602001828152602001955050505050506040516020818303038152906040528051906020012092505050919050565b6106dd83838361295e565b611b7a828260405180602001604052806000815250612c42565b5050565b6000805b8251811015611d8157600073ffffffffffffffffffffffffffffffffffffffff16838281518110611baf57fe5b60200260200101516000015173ffffffffffffffffffffffffffffffffffffffff161415611c24576040805162461bcd60e51b815260206004820152601b60248201527f526563697069656e742073686f756c642062652070726573656e740000000000604482015290519081900360640190fd5b828181518110611c3057fe5b6020026020010151602001516bffffffffffffffffffffffff1660001415611c9f576040805162461bcd60e51b815260206004820181905260248201527f526f79616c74792076616c75652073686f756c6420626520706f736974697665604482015290519081900360640190fd5b828181518110611cab57fe5b6020026020010151602001516bffffffffffffffffffffffff16820191506101c66000858152602001908152602001600020838281518110611ce957fe5b60209081029190910181015182546001818101855560009485529383902082519101805492909301516bffffffffffffffffffffffff16740100000000000000000000000000000000000000000273ffffffffffffffffffffffffffffffffffffffff9182167fffffffffffffffffffffffff0000000000000000000000000000000000000000909316929092171617905501611b82565b506127108110611dc25760405162461bcd60e51b815260040180806020018281038252602581526020018061536d6025913960400191505060405180910390fd5b6106dd8383612c94565b60008281526101c76020526040812090805b8351811015611f7957600073ffffffffffffffffffffffffffffffffffffffff16848281518110611e0b57fe5b60200260200101516000015173ffffffffffffffffffffffffffffffffffffffff161415611e4b5760405162461bcd60e51b815260040161076b90614e80565b838181518110611e5757fe5b6020026020010151602001516bffffffffffffffffffffffff1660001415611e915760405162461bcd60e51b815260040161076b90614da8565b82848281518110611e9e57fe5b602090810291909101810151825460018101845560009384529282902081519301805491909201516bffffffffffffffffffffffff16740100000000000000000000000000000000000000000273ffffffffffffffffffffffffffffffffffffffff9384167fffffffffffffffffffffffff0000000000000000000000000000000000000000909216919091179092169190911790558351611f6f90859083908110611f4657fe5b6020026020010151602001516bffffffffffffffffffffffff1683612cd190919063ffffffff16565b9150600101611dde565b508061271014611f9b5760405162461bcd60e51b815260040161076b90614f4b565b7f841ffb90d4cabdd1f16034f3fa831d79060febbb8167bdd54a49269365bdf78f8484604051611fcc929190614fb1565b60405180910390a150505050565b611fe382611815565b61201e5760405162461bcd60e51b815260040180806020018281038252602c815260200180615297602c913960400191505060405180910390fd5b6000828152609e6020908152604090912082516106dd92840190614523565b6000610a8a8383612d2b565b8273ffffffffffffffffffffffffffffffffffffffff1661206982610ca0565b73ffffffffffffffffffffffffffffffffffffffff16146120bb5760405162461bcd60e51b81526004018080602001828103825260298152602001806152c36029913960400191505060405180910390fd5b73ffffffffffffffffffffffffffffffffffffffff821661210d5760405162461bcd60e51b81526004018080602001828103825260248152602001806150a96024913960400191505060405180910390fd5b6121188383836106dd565b612123600082611861565b73ffffffffffffffffffffffffffffffffffffffff831660009081526097602052604090206121529082612d64565b5073ffffffffffffffffffffffffffffffffffffffff821660009081526097602052604090206121829082612d70565b5061218f60988284612d7c565b50808273ffffffffffffffffffffffffffffffffffffffff168473ffffffffffffffffffffffffffffffffffffffff167fddf252ad1be2c89b69c2b068fc378daa952ba7f163c4a11628f55a4df523b3ef60405160405180910390a4505050565b6000610a8a8383612d9f565b600061220730612e03565b15905090565b61221684612e09565b61221e612e1c565b612226612ebd565b61222e612e1c565b612236612f73565b61223e613029565b612246612e1c565b61224e613147565b61225783613248565b6122618686613328565b61226c82600161346e565b61227781600161346e565b505050505050565b600090815260a060205260409020805460ff19166001179055565b60006122a582610ca0565b90506122b3816000846106dd565b6122be600083611861565b6000828152609e602052604090205460026000196101006001841615020190911604156122fc576000828152609e602052604081206122fc916145af565b73ffffffffffffffffffffffffffffffffffffffff8116600090815260976020526040902061232b9083612d64565b506123376098836134db565b506123418261227f565b604051829060009073ffffffffffffffffffffffffffffffffffffffff8416907fddf252ad1be2c89b69c2b068fc378daa952ba7f163c4a11628f55a4df523b3ef908390a45050565b600080808061239986866134e7565b9097909650945050505050565b60006123b3848484613562565b90505b9392505050565b6123c8848484612049565b6123d4848484846135ef565b6111825760405162461bcd60e51b81526004018080602001828103825260328152602001806150516032913960400191505060405180910390fd5b805182516060918491849110156125165784846040516020018083805190602001908083835b6020831061247257805182527fffffffffffffffffffffffffffffffffffffffffffffffffffffffffffffffe09092019160209182019101612435565b51815160209384036101000a600019018019909216911617905285519190930192850191508083835b602083106124d857805182527fffffffffffffffffffffffffffffffffffffffffffffffffffffffffffffffe0909201916020918201910161249b565b6001836020036101000a0380198251168184511680821785525050505050509050019250505060405160208183030381529060405292505050610a8d565b60005b82518110156126925782818151811061252e57fe5b602001015160f81c60f81b7effffffffffffffffffffffffffffffffffffffffffffffffffffffffffffff191682828151811061256757fe5b01602001517fff00000000000000000000000000000000000000000000000000000000000000161461268a5785856040516020018083805190602001908083835b602083106125e557805182527fffffffffffffffffffffffffffffffffffffffffffffffffffffffffffffffe090920191602091820191016125a8565b51815160209384036101000a600019018019909216911617905285519190930192850191508083835b6020831061264b57805182527fffffffffffffffffffffffffffffffffffffffffffffffffffffffffffffffe0909201916020918201910161260e565b6001836020036101000a038019825116818451168082178552505050505050905001925050506040516020818303038152906040529350505050610a8d565b600101612519565b5092949350505050565b6060816126dd575060408051808201909152600181527f30000000000000000000000000000000000000000000000000000000000000006020820152610416565b8160005b81156126f557600101600a820491506126e1565b60008167ffffffffffffffff8111801561270e57600080fd5b506040519080825280601f01601f191660200182016040528015612739576020820181803683370190505b50859350905060001982015b83156127a257600a840660300160f81b8282806001900393508151811061276857fe5b60200101907effffffffffffffffffffffffffffffffffffffffffffffffffffffffffffff1916908160001a905350600a84049350612745565b50949350505050565b60008381526101c66020526040812054905b818110156108c55760008581526101c660205260409020805473ffffffffffffffffffffffffffffffffffffffff86169190839081106127f957fe5b60009182526020909120015473ffffffffffffffffffffffffffffffffffffffff16141561288e5760008581526101c66020526040902080548491908390811061283f57fe5b600091825260209091200180547fffffffffffffffffffffffff00000000000000000000000000000000000000001673ffffffffffffffffffffffffffffffffffffffff929092169190911790555b6001016127bd565b73ffffffffffffffffffffffffffffffffffffffff8116600090815260c9602052604081205460ff1680610a8a5750610a8a8383611826565b6000610a8a8383613800565b5490565b8051602091820151604080517f397e04204c1e1a60ee8724b71f8244e10ab5f2e9009854d80f602bda21b59ebb8186015273ffffffffffffffffffffffffffffffffffffffff909316838201526bffffffffffffffffffffffff9091166060808401919091528151808403909101815260809092019052805191012090565b600061296983613818565b9050600082516041141561298457612981828461387f565b90505b8473ffffffffffffffffffffffffffffffffffffffff168173ffffffffffffffffffffffffffffffffffffffff16146108c5576129d68573ffffffffffffffffffffffffffffffffffffffff16612e03565b15612bca57604080517f1626ba7e000000000000000000000000000000000000000000000000000000008082526004820185815260248301938452865160448401528651919373ffffffffffffffffffffffffffffffffffffffff8a1693631626ba7e9388938a9390929091606490910190602085019080838360005b83811015612a6b578181015183820152602001612a53565b50505050905090810190601f168015612a985780820380516001836020036101000a031916815260200191505b50935050505060206040518083038186803b158015612ab657600080fd5b505afa158015612aca573d6000803e3d6000fd5b505050506040513d6020811015612ae057600080fd5b505160408051808201909152601c81527f7369676e617475726520766572696669636174696f6e206572726f72000000006020820152917fffffffff0000000000000000000000000000000000000000000000000000000090911614612bc45760405162461bcd60e51b81526004018080602001828103825283818151815260200191508051906020019080838360005b83811015612b89578181015183820152602001612b71565b50505050905090810190601f168015612bb65780820380516001836020036101000a031916815260200191505b509250505060405180910390fd5b506108c5565b604080518082018252601c81527f7369676e617475726520766572696669636174696f6e206572726f72000000006020808301918252925162461bcd60e51b81526004810193845282516024820152825192939283926044909201919080838360008315612b89578181015183820152602001612b71565b612c4c83836138ff565b612c5960008484846135ef565b6106dd5760405162461bcd60e51b81526004018080602001828103825260328152602001806150516032913960400191505060405180910390fd5b7f3fa96d7b6bcbfe71ef171666d84db3cf52fa2d1c8afdb1cc8e486177f208b7df8282604051612cc5929190614fb1565b60405180910390a15050565b600082820183811015610a8a576040805162461bcd60e51b815260206004820152601b60248201527f536166654d6174683a206164646974696f6e206f766572666c6f770000000000604482015290519081900360640190fd5b73ffffffffffffffffffffffffffffffffffffffff8216600090815260c9602052604081205460ff1680610a8a5750610a8a8383613909565b6000610a8a83836139d9565b6000610a8a8383613a9f565b60006123b3848473ffffffffffffffffffffffffffffffffffffffff8516613ae9565b81546000908210612de15760405162461bcd60e51b815260040180806020018281038252602281526020018061502f6022913960400191505060405180910390fd5b826000018281548110612df057fe5b9060005260206000200154905092915050565b3b151590565b8051611b7a90609f906020840190614523565b600054610100900460ff1680612e355750612e356121fc565b80612e43575060005460ff16155b612e7e5760405162461bcd60e51b815260040180806020018281038252602e8152602001806151cc602e913960400191505060405180910390fd5b600054610100900460ff16158015612ea9576000805460ff1961ff0019909116610100171660011790555b8015610c87576000805461ff001916905550565b600054610100900460ff1680612ed65750612ed66121fc565b80612ee4575060005460ff16155b612f1f5760405162461bcd60e51b815260040180806020018281038252602e8152602001806151cc602e913960400191505060405180910390fd5b600054610100900460ff16158015612f4a576000805460ff1961ff0019909116610100171660011790555b612ea97fcad96cca00000000000000000000000000000000000000000000000000000000613b80565b600054610100900460ff1680612f8c5750612f8c6121fc565b80612f9a575060005460ff16155b612fd55760405162461bcd60e51b815260040180806020018281038252602e8152602001806151cc602e913960400191505060405180910390fd5b600054610100900460ff16158015613000576000805460ff1961ff0019909116610100171660011790555b612ea97f01ffc9a700000000000000000000000000000000000000000000000000000000613b80565b600054610100900460ff168061304257506130426121fc565b80613050575060005460ff16155b61308b5760405162461bcd60e51b815260040180806020018281038252602e8152602001806151cc602e913960400191505060405180910390fd5b600054610100900460ff161580156130b6576000805460ff1961ff0019909116610100171660011790555b60006130c0611822565b603380547fffffffffffffffffffffffff00000000000000000000000000000000000000001673ffffffffffffffffffffffffffffffffffffffff8316908117909155604051919250906000907f8be0079c531659141344cd1fd0a4f28419497f9722a3daafe3b4186f6b6457e0908290a3508015610c87576000805461ff001916905550565b600054610100900460ff168061316057506131606121fc565b8061316e575060005460ff16155b6131a95760405162461bcd60e51b815260040180806020018281038252602e8152602001806151cc602e913960400191505060405180910390fd5b600054610100900460ff161580156131d4576000805460ff1961ff0019909116610100171660011790555b612ea96040518060400160405280600781526020017f4d696e74373231000000000000000000000000000000000000000000000000008152506040518060400160405280600181526020017f3100000000000000000000000000000000000000000000000000000000000000815250613c34565b600054610100900460ff168061326157506132616121fc565b8061326f575060005460ff16155b6132aa5760405162461bcd60e51b815260040180806020018281038252602e8152602001806151cc602e913960400191505060405180910390fd5b600054610100900460ff161580156132d5576000805460ff1961ff0019909116610100171660011790555b81516132e9906101fa906020850190614523565b506133137fe8a3d48500000000000000000000000000000000000000000000000000000000613b80565b8015611b7a576000805461ff00191690555050565b600054610100900460ff168061334157506133416121fc565b8061334f575060005460ff16155b61338a5760405162461bcd60e51b815260040180806020018281038252602e8152602001806151cc602e913960400191505060405180910390fd5b600054610100900460ff161580156133b5576000805460ff1961ff0019909116610100171660011790555b82516133c890609c906020860190614523565b5081516133dc90609d906020850190614523565b506134067f80ac58cd00000000000000000000000000000000000000000000000000000000613b80565b61342f7f5b5e139f00000000000000000000000000000000000000000000000000000000613b80565b6134587f780e9d6300000000000000000000000000000000000000000000000000000000613b80565b80156106dd576000805461ff0019169055505050565b73ffffffffffffffffffffffffffffffffffffffff8216600081815260c96020908152604091829020805460ff1916851515908117909155825190815291517f270dbb8ba4292910ae92862466486be25c355c837270a3d8824b36a8bc7c653b9281900390910190a25050565b6000610a8a8383613cf6565b81546000908190831061352b5760405162461bcd60e51b815260040180806020018281038252602281526020018061521c6022913960400191505060405180910390fd5b600084600001848154811061353c57fe5b906000526020600020906002020190508060000154816001015492509250509250929050565b600082815260018401602052604081205482816135c05760405162461bcd60e51b8152602060048201818152835160248401528351909283926044909101919085019080838360008315612b89578181015183820152602001612b71565b508460000160018203815481106135d357fe5b9060005260206000209060020201600101549150509392505050565b60006136108473ffffffffffffffffffffffffffffffffffffffff16612e03565b61361c575060016137f8565b60006137947f150b7a020000000000000000000000000000000000000000000000000000000061364a611822565b888787604051602401808573ffffffffffffffffffffffffffffffffffffffff1681526020018473ffffffffffffffffffffffffffffffffffffffff16815260200183815260200180602001828103825283818151815260200191508051906020019080838360005b838110156136cb5781810151838201526020016136b3565b50505050905090810190601f1680156136f85780820380516001836020036101000a031916815260200191505b5095505050505050604051602081830303815290604052907bffffffffffffffffffffffffffffffffffffffffffffffffffffffff19166020820180517bffffffffffffffffffffffffffffffffffffffffffffffffffffffff83818316178352505050506040518060600160405280603281526020016150516032913973ffffffffffffffffffffffffffffffffffffffff88169190613dca565b905060008180602001905160208110156137ad57600080fd5b50517fffffffff00000000000000000000000000000000000000000000000000000000167f150b7a020000000000000000000000000000000000000000000000000000000014925050505b949350505050565b60009081526001919091016020526040902054151590565b6000613822613dd9565b8260405160200180807f190100000000000000000000000000000000000000000000000000000000000081525060020183815260200182815260200192505050604051602081830303815290604052805190602001209050919050565b600081516041146138d7576040805162461bcd60e51b815260206004820152601f60248201527f45434453413a20696e76616c6964207369676e6174757265206c656e67746800604482015290519081900360640190fd5b60208201516040830151606084015160001a6138f586828585613e14565b9695505050505050565b611b7a8282614077565b600061391482611815565b61394f5760405162461bcd60e51b815260040180806020018281038252602c815260200180615115602c913960400191505060405180910390fd5b600061395a83610ca0565b90508073ffffffffffffffffffffffffffffffffffffffff168473ffffffffffffffffffffffffffffffffffffffff1614806139c957508373ffffffffffffffffffffffffffffffffffffffff166139b1846104b1565b73ffffffffffffffffffffffffffffffffffffffff16145b806137f857506137f88185611826565b60008181526001830160205260408120548015613a955783546000198083019190810190600090879083908110613a0c57fe5b9060005260206000200154905080876000018481548110613a2957fe5b600091825260208083209091019290925582815260018981019092526040902090840190558654879080613a5957fe5b60019003818190600052602060002001600090559055866001016000878152602001908152602001600020600090556001945050505050610a8d565b6000915050610a8d565b6000613aab8383613800565b613ae157508154600181810184556000848152602080822090930184905584548482528286019093526040902091909155610a8d565b506000610a8d565b600082815260018401602052604081205480613b4e5750506040805180820182528381526020808201848152865460018181018955600089815284812095516002909302909501918255915190820155865486845281880190925292909120556123b6565b82856000016001830381548110613b6157fe5b90600052602060002090600202016001018190555060009150506123b6565b7fffffffff000000000000000000000000000000000000000000000000000000008082161415613bf7576040805162461bcd60e51b815260206004820152601c60248201527f4552433136353a20696e76616c696420696e7465726661636520696400000000604482015290519081900360640190fd5b7fffffffff00000000000000000000000000000000000000000000000000000000166000908152606560205260409020805460ff19166001179055565b600054610100900460ff1680613c4d5750613c4d6121fc565b80613c5b575060005460ff16155b613c965760405162461bcd60e51b815260040180806020018281038252602e8152602001806151cc602e913960400191505060405180910390fd5b600054610100900460ff16158015613cc1576000805460ff1961ff0019909116610100171660011790555b825160208085019190912083519184019190912061012e9190915561012f5580156106dd576000805461ff0019169055505050565b60008181526001830160205260408120548015613a955783546000198083019190810190600090879083908110613d2957fe5b9060005260206000209060020201905080876000018481548110613d4957fe5b600091825260208083208454600290930201918255600193840154918401919091558354825289830190526040902090840190558654879080613d8857fe5b6000828152602080822060026000199094019384020182815560019081018390559290935588815289820190925260408220919091559450610a8d9350505050565b60606123b38484600085614250565b60006106ee7f8b73c3c69bb8fe3d512ecc4cf759cc79239f7b179b0ffacaa9a75d522b39400f613e076143d6565b613e0f6143dd565b6143e4565b60007f7fffffffffffffffffffffffffffffff5d576e7357a4501ddfe92f46681b20a0821115613e755760405162461bcd60e51b81526004018080602001828103825260228152602001806150cd6022913960400191505060405180910390fd5b6000601e8560ff161115613f4f576004850360ff16601b1480613e9e57506004850360ff16601c145b613ed95760405162461bcd60e51b81526004018080602001828103825260228152602001806151fa6022913960400191505060405180910390fd5b6001613ee487614453565b60048703868660405160008152602001604052604051808581526020018460ff1681526020018381526020018281526020019450505050506020604051602081039080840390855afa158015613f3e573d6000803e3d6000fd5b505050602060405103519050614006565b8460ff16601b1480613f6457508460ff16601c145b613f9f5760405162461bcd60e51b81526004018080602001828103825260228152602001806151fa6022913960400191505060405180910390fd5b60018686868660405160008152602001604052604051808581526020018460ff1681526020018381526020018281526020019450505050506020604051602081039080840390855afa158015613ff9573d6000803e3d6000fd5b5050506020604051035190505b73ffffffffffffffffffffffffffffffffffffffff811661406e576040805162461bcd60e51b815260206004820152601860248201527f45434453413a20696e76616c6964207369676e61747572650000000000000000604482015290519081900360640190fd5b95945050505050565b73ffffffffffffffffffffffffffffffffffffffff82166140aa5760405162461bcd60e51b815260040161076b90614e4b565b6140b3816144a4565b156140d05760405162461bcd60e51b815260040161076b90614f14565b6140d981611815565b156140f65760405162461bcd60e51b815260040161076b90614d71565b614102600083836106dd565b73ffffffffffffffffffffffffffffffffffffffff821660009081526097602052604090206141319082612d70565b5061413e60988284612d7c565b50606081901c73ffffffffffffffffffffffffffffffffffffffff8316811461420657604051829073ffffffffffffffffffffffffffffffffffffffff8316906000907fddf252ad1be2c89b69c2b068fc378daa952ba7f163c4a11628f55a4df523b3ef908290a4818373ffffffffffffffffffffffffffffffffffffffff168273ffffffffffffffffffffffffffffffffffffffff167fddf252ad1be2c89b69c2b068fc378daa952ba7f163c4a11628f55a4df523b3ef60405160405180910390a46106dd565b604051829073ffffffffffffffffffffffffffffffffffffffff8516906000907fddf252ad1be2c89b69c2b068fc378daa952ba7f163c4a11628f55a4df523b3ef908290a4505050565b6060824710156142915760405162461bcd60e51b81526004018080602001828103825260268152602001806150ef6026913960400191505060405180910390fd5b61429a85612e03565b6142eb576040805162461bcd60e51b815260206004820152601d60248201527f416464726573733a2063616c6c20746f206e6f6e2d636f6e7472616374000000604482015290519081900360640190fd5b6000808673ffffffffffffffffffffffffffffffffffffffff1685876040518082805190602001908083835b6020831061435457805182527fffffffffffffffffffffffffffffffffffffffffffffffffffffffffffffffe09092019160209182019101614317565b6001836020036101000a03801982511681845116808217855250505050505090500191505060006040518083038185875af1925050503d80600081146143b6576040519150601f19603f3d011682016040523d82523d6000602084013e6143bb565b606091505b50915091506143cb8282866144b9565b979650505050505050565b61012e5490565b61012f5490565b60008383836143f161451f565b30604051602001808681526020018581526020018481526020018381526020018273ffffffffffffffffffffffffffffffffffffffff168152602001955050505050506040516020818303038152906040528051906020012090509392505050565b604080517f19457468657265756d205369676e6564204d6573736167653a0a333200000000602080830191909152603c8083019490945282518083039094018452605c909101909152815191012090565b600090815260a0602052604090205460ff1690565b606083156144c85750816123b6565b8251156144d85782518084602001fd5b60405162461bcd60e51b8152602060048201818152845160248401528451859391928392604401919085019080838360008315612b89578181015183820152602001612b71565b4690565b828054600181600116156101000203166002900490600052602060002090601f016020900481019282614559576000855561459f565b82601f1061457257805160ff191683800117855561459f565b8280016001018555821561459f579182015b8281111561459f578251825591602001919060010190614584565b506145ab9291506145ef565b5090565b50805460018160011615610100020316600290046000825580601f106145d55750610c87565b601f016020900490600052602060002090810190610c8791905b5b808211156145ab57600081556001016145f0565b80356104168161500c565b600082601f83011261461f578081fd5b8135602061463461462f83614fee565b614fca565b82815281810190858301855b8581101561466957614657898684358b0101614737565b84529284019290840190600101614640565b5090979650505050505050565b600082601f830112614686578081fd5b8135602061469661462f83614fee565b828152818101908583016040808602880185018910156146b4578687fd5b865b868110156147295781838b0312156146cc578788fd5b815182810181811067ffffffffffffffff821117156146e757fe5b835283356146f48161500c565b8152838701356bffffffffffffffffffffffff8116811461471357898afd5b81880152855293850193918101916001016146b6565b509198975050505050505050565b600082601f830112614747578081fd5b813567ffffffffffffffff81111561475b57fe5b61478c60207fffffffffffffffffffffffffffffffffffffffffffffffffffffffffffffffe0601f84011601614fca565b8181528460208386010111156147a0578283fd5b816020850160208301379081016020019190915292915050565b600060a082840312156147cb578081fd5b6147d560a0614fca565b905081358152602082013567ffffffffffffffff808211156147f657600080fd5b61480285838601614737565b6020840152604084013591508082111561481b57600080fd5b61482785838601614676565b6040840152606084013591508082111561484057600080fd5b61484c85838601614676565b6060840152608084013591508082111561486557600080fd5b506148728482850161460f565b60808301525092915050565b60006020828403121561488f578081fd5b8135610a8a8161500c565b600080604083850312156148ac578081fd5b82356148b78161500c565b915060208301356148c78161500c565b809150509250929050565b6000806000606084860312156148e6578081fd5b83356148f18161500c565b925060208401356149018161500c565b929592945050506040919091013590565b60008060008060808587031215614927578081fd5b84356149328161500c565b935060208501356149428161500c565b925060408501359150606085013567ffffffffffffffff811115614964578182fd5b61497087828801614737565b91505092959194509250565b6000806040838503121561498e578182fd5b82356149998161500c565b9150602083013580151581146148c7578182fd5b600080604083850312156149bf578182fd5b82356149ca8161500c565b946020939093013593505050565b6000602082840312156149e9578081fd5b81357fffffffff0000000000000000000000000000000000000000000000000000000081168114610a8a578182fd5b60008060008060008060c08789031215614a30578384fd5b863567ffffffffffffffff80821115614a47578586fd5b614a538a838b01614737565b97506020890135915080821115614a68578586fd5b614a748a838b01614737565b96506040890135915080821115614a89578586fd5b614a958a838b01614737565b95506060890135915080821115614aaa578384fd5b50614ab789828a01614737565b935050614ac660808801614604565b9150614ad460a08801614604565b90509295509295509295565b60008060408385031215614af2578182fd5b823567ffffffffffffffff811115614b08578283fd5b614b14858286016147ba565b92505060208301356148c78161500c565b600080600060608486031215614b39578081fd5b833567ffffffffffffffff811115614b4f578182fd5b614b5b868287016147ba565b9350506020840135614b6c8161500c565b91506040840135614b7c8161500c565b809150509250925092565b600060208284031215614b98578081fd5b5035919050565b600080600060608486031215614bb3578081fd5b833592506020840135614b6c8161500c565b60008060408385031215614bd7578182fd5b50508035926020909101359150565b6000815180845260208085019450808401835b83811015614c44578151805173ffffffffffffffffffffffffffffffffffffffff1688528301516bffffffffffffffffffffffff168388015260409096019590820190600101614bf9565b509495945050505050565b60008151808452815b81811015614c7457602081850181015186830182015201614c58565b81811115614c855782602083870101525b50601f017fffffffffffffffffffffffffffffffffffffffffffffffffffffffffffffffe0169290920160200192915050565b73ffffffffffffffffffffffffffffffffffffffff91909116815260200190565b600073ffffffffffffffffffffffffffffffffffffffff8516825260606020830152614d086060830185614c4f565b82810360408401526138f58185614c4f565b73ffffffffffffffffffffffffffffffffffffffff929092168252602082015260400190565b600060208252610a8a6020830184614be6565b901515815260200190565b600060208252610a8a6020830184614c4f565b6020808252601c908201527f4552433732313a20746f6b656e20616c7265616479206d696e74656400000000604082015260600190565b6020808252818101527f43726561746f722073686172652073686f756c6420626520706f736974697665604082015260600190565b60208082526011908201527f746f6b656e496420696e636f7272656374000000000000000000000000000000604082015260600190565b6020808252600b908201527f6e6f7420616c6c6f776564000000000000000000000000000000000000000000604082015260600190565b6020808252818101527f4552433732313a206d696e7420746f20746865207a65726f2061646472657373604082015260600190565b60208082526019908201527f4163636f756e742073686f756c642062652070726573656e7400000000000000604082015260600190565b60208082526031908201527f4552433732313a207472616e736665722063616c6c6572206973206e6f74206f60408201527f776e6572206e6f7220617070726f766564000000000000000000000000000000606082015260800190565b60208082526014908201527f746f6b656e20616c7265616479206275726e6564000000000000000000000000604082015260600190565b6020808252602e908201527f746f74616c20616d6f756e74206f662063726561746f7273207368617265207360408201527f686f756c64206265203130303030000000000000000000000000000000000000606082015260800190565b90815260200190565b6000838252604060208301526123b36040830184614be6565b60405181810167ffffffffffffffff81118282101715614fe657fe5b604052919050565b600067ffffffffffffffff82111561500257fe5b5060209081020190565b73ffffffffffffffffffffffffffffffffffffffff81168114610c8757600080fdfe456e756d657261626c655365743a20696e646578206f7574206f6620626f756e64734552433732313a207472616e7366657220746f206e6f6e20455243373231526563656976657220696d706c656d656e7465724f776e61626c653a206e6577206f776e657220697320746865207a65726f20616464726573734552433732313a207472616e7366657220746f20746865207a65726f206164647265737345434453413a20696e76616c6964207369676e6174757265202773272076616c7565416464726573733a20696e73756666696369656e742062616c616e636520666f722063616c6c4552433732313a206f70657261746f7220717565727920666f72206e6f6e6578697374656e7420746f6b656e4552433732313a20617070726f76652063616c6c6572206973206e6f74206f776e6572206e6f7220617070726f76656420666f7220616c6c4552433732313a2062616c616e636520717565727920666f7220746865207a65726f20616464726573734552433732313a206f776e657220717565727920666f72206e6f6e6578697374656e7420746f6b656e496e697469616c697a61626c653a20636f6e747261637420697320616c726561647920696e697469616c697a656445434453413a20696e76616c6964207369676e6174757265202776272076616c7565456e756d657261626c654d61703a20696e646578206f7574206f6620626f756e64734552433732314275726e61626c653a2063616c6c6572206973206e6f74206f776e65722c206e6f74206275726e4552433732313a20617070726f76656420717565727920666f72206e6f6e6578697374656e7420746f6b656e4552433732314d657461646174613a2055524920736574206f66206e6f6e6578697374656e7420746f6b656e4552433732313a207472616e73666572206f6620746f6b656e2074686174206973206e6f74206f776e4552433732314d657461646174613a2055524920717565727920666f72206e6f6e6578697374656e7420746f6b656e4552433732313a20617070726f76616c20746f2063757272656e74206f776e65724552433732313a207472616e736665722063616c6c6572206973206e6f74206f776e6572206e6f7220617070726f766564526f79616c747920746f74616c2076616c75652073686f756c64206265203c2031303030304552433732314275726e61626c653a2063616c6c6572206973206e6f74206f776e6572206e6f7220617070726f766564a26469706673582212204bbaddee1b0389793b003d2556fa7a907296bd57c25ea0f3b889201318a229b664736f6c63430007060033",
  "devdoc": {
    "kind": "dev",
    "methods": {
      "approve(address,uint256)": {
        "details": "See {IERC721-approve}."
      },
      "balanceOf(address)": {
        "details": "See {IERC721-balanceOf}."
      },
      "baseURI()": {
        "details": "Returns the base URI set via {_setBaseURI}. This will be automatically added as a prefix in {tokenURI} to each token's URI, or to the token ID if no specific URI is set for that token ID."
      },
      "burn(uint256)": {
        "details": "Burns `tokenId`. See {ERC721-_burn}. Requirements: - The caller must own `tokenId` or be an approved operator."
      },
      "getApproved(uint256)": {
        "details": "See {IERC721-getApproved}."
      },
      "name()": {
        "details": "See {IERC721Metadata-name}."
      },
      "owner()": {
        "details": "Returns the address of the current owner."
      },
      "ownerOf(uint256)": {
        "details": "See {IERC721-ownerOf}."
      },
      "renounceOwnership()": {
        "details": "Leaves the contract without owner. It will not be possible to call `onlyOwner` functions anymore. Can only be called by the current owner. NOTE: Renouncing ownership will leave the contract without an owner, thereby removing any functionality that is only available to the owner."
      },
      "safeTransferFrom(address,address,uint256)": {
        "details": "See {IERC721-safeTransferFrom}."
      },
      "safeTransferFrom(address,address,uint256,bytes)": {
        "details": "See {IERC721-safeTransferFrom}."
      },
      "setApprovalForAll(address,bool)": {
        "details": "See {IERC721-setApprovalForAll}."
      },
      "symbol()": {
        "details": "See {IERC721Metadata-symbol}."
      },
      "tokenByIndex(uint256)": {
        "details": "See {IERC721Enumerable-tokenByIndex}."
      },
      "tokenOfOwnerByIndex(address,uint256)": {
        "details": "See {IERC721Enumerable-tokenOfOwnerByIndex}."
      },
      "tokenURI(uint256)": {
        "details": "See {IERC721Metadata-tokenURI}."
      },
      "totalSupply()": {
        "details": "See {IERC721Enumerable-totalSupply}."
      },
      "transferFrom(address,address,uint256)": {
        "details": "See {IERC721-transferFrom}."
      },
      "transferOwnership(address)": {
        "details": "Transfers ownership of the contract to a new account (`newOwner`). Can only be called by the current owner."
      }
    },
    "version": 1
  },
  "userdoc": {
    "kind": "user",
    "methods": {},
    "version": 1
  },
  "storageLayout": {
    "storage": [
      {
        "astId": 812,
        "contract": "@sipher/tokens/contracts/erc-721/ERC721Sipher.sol:ERC721Sipher",
        "label": "_initialized",
        "offset": 0,
        "slot": "0",
        "type": "t_bool"
      },
      {
        "astId": 815,
        "contract": "@sipher/tokens/contracts/erc-721/ERC721Sipher.sol:ERC721Sipher",
        "label": "_initializing",
        "offset": 1,
        "slot": "0",
        "type": "t_bool"
      },
      {
        "astId": 1662,
        "contract": "@sipher/tokens/contracts/erc-721/ERC721Sipher.sol:ERC721Sipher",
        "label": "__gap",
        "offset": 0,
        "slot": "1",
        "type": "t_array(t_uint256)50_storage"
      },
      {
        "astId": 10,
        "contract": "@sipher/tokens/contracts/erc-721/ERC721Sipher.sol:ERC721Sipher",
        "label": "_owner",
        "offset": 0,
        "slot": "51",
        "type": "t_address"
      },
      {
        "astId": 129,
        "contract": "@sipher/tokens/contracts/erc-721/ERC721Sipher.sol:ERC721Sipher",
        "label": "__gap",
        "offset": 0,
        "slot": "52",
        "type": "t_array(t_uint256)49_storage"
      },
      {
        "astId": 307,
        "contract": "@sipher/tokens/contracts/erc-721/ERC721Sipher.sol:ERC721Sipher",
        "label": "_supportedInterfaces",
        "offset": 0,
        "slot": "101",
        "type": "t_mapping(t_bytes4,t_bool)"
      },
      {
        "astId": 364,
        "contract": "@sipher/tokens/contracts/erc-721/ERC721Sipher.sol:ERC721Sipher",
        "label": "__gap",
        "offset": 0,
        "slot": "102",
        "type": "t_array(t_uint256)49_storage"
      },
      {
        "astId": 15895,
        "contract": "@sipher/tokens/contracts/erc-721/ERC721Sipher.sol:ERC721Sipher",
        "label": "_holderTokens",
        "offset": 0,
        "slot": "151",
        "type": "t_mapping(t_address,t_struct(UintSet)2620_storage)"
      },
      {
        "astId": 15897,
        "contract": "@sipher/tokens/contracts/erc-721/ERC721Sipher.sol:ERC721Sipher",
        "label": "_tokenOwners",
        "offset": 0,
        "slot": "152",
        "type": "t_struct(UintToAddressMap)1997_storage"
      },
      {
        "astId": 15901,
        "contract": "@sipher/tokens/contracts/erc-721/ERC721Sipher.sol:ERC721Sipher",
        "label": "_tokenApprovals",
        "offset": 0,
        "slot": "154",
        "type": "t_mapping(t_uint256,t_address)"
      },
      {
        "astId": 15907,
        "contract": "@sipher/tokens/contracts/erc-721/ERC721Sipher.sol:ERC721Sipher",
        "label": "_operatorApprovals",
        "offset": 0,
        "slot": "155",
        "type": "t_mapping(t_address,t_mapping(t_address,t_bool))"
      },
      {
        "astId": 15909,
        "contract": "@sipher/tokens/contracts/erc-721/ERC721Sipher.sol:ERC721Sipher",
        "label": "_name",
        "offset": 0,
        "slot": "156",
        "type": "t_string_storage"
      },
      {
        "astId": 15911,
        "contract": "@sipher/tokens/contracts/erc-721/ERC721Sipher.sol:ERC721Sipher",
        "label": "_symbol",
        "offset": 0,
        "slot": "157",
        "type": "t_string_storage"
      },
      {
        "astId": 15915,
        "contract": "@sipher/tokens/contracts/erc-721/ERC721Sipher.sol:ERC721Sipher",
        "label": "_tokenURIs",
        "offset": 0,
        "slot": "158",
        "type": "t_mapping(t_uint256,t_string_storage)"
      },
      {
        "astId": 15917,
        "contract": "@sipher/tokens/contracts/erc-721/ERC721Sipher.sol:ERC721Sipher",
        "label": "_baseURI",
        "offset": 0,
        "slot": "159",
        "type": "t_string_storage"
      },
      {
        "astId": 15930,
        "contract": "@sipher/tokens/contracts/erc-721/ERC721Sipher.sol:ERC721Sipher",
        "label": "_burnedTokens",
        "offset": 0,
        "slot": "160",
        "type": "t_mapping(t_uint256,t_bool)"
      },
      {
        "astId": 16855,
        "contract": "@sipher/tokens/contracts/erc-721/ERC721Sipher.sol:ERC721Sipher",
        "label": "__gap",
        "offset": 0,
        "slot": "161",
        "type": "t_array(t_uint256)40_storage"
      },
      {
        "astId": 15182,
        "contract": "@sipher/tokens/contracts/erc-721/ERC721Sipher.sol:ERC721Sipher",
        "label": "defaultApprovals",
        "offset": 0,
        "slot": "201",
        "type": "t_mapping(t_address,t_bool)"
      },
      {
        "astId": 15253,
        "contract": "@sipher/tokens/contracts/erc-721/ERC721Sipher.sol:ERC721Sipher",
        "label": "__gap",
        "offset": 0,
        "slot": "202",
        "type": "t_array(t_uint256)50_storage"
      },
      {
        "astId": 15172,
        "contract": "@sipher/tokens/contracts/erc-721/ERC721Sipher.sol:ERC721Sipher",
        "label": "__gap",
        "offset": 0,
        "slot": "252",
        "type": "t_array(t_uint256)50_storage"
      },
      {
        "astId": 138,
        "contract": "@sipher/tokens/contracts/erc-721/ERC721Sipher.sol:ERC721Sipher",
        "label": "_HASHED_NAME",
        "offset": 0,
        "slot": "302",
        "type": "t_bytes32"
      },
      {
        "astId": 140,
        "contract": "@sipher/tokens/contracts/erc-721/ERC721Sipher.sol:ERC721Sipher",
        "label": "_HASHED_VERSION",
        "offset": 0,
        "slot": "303",
        "type": "t_bytes32"
      },
      {
        "astId": 289,
        "contract": "@sipher/tokens/contracts/erc-721/ERC721Sipher.sol:ERC721Sipher",
        "label": "__gap",
        "offset": 0,
        "slot": "304",
        "type": "t_array(t_uint256)50_storage"
      },
      {
        "astId": 13850,
        "contract": "@sipher/tokens/contracts/erc-721/ERC721Sipher.sol:ERC721Sipher",
        "label": "__gap",
        "offset": 0,
        "slot": "354",
        "type": "t_array(t_uint256)50_storage"
      },
      {
        "astId": 10234,
        "contract": "@sipher/tokens/contracts/erc-721/ERC721Sipher.sol:ERC721Sipher",
        "label": "__gap",
        "offset": 0,
        "slot": "404",
        "type": "t_array(t_uint256)50_storage"
      },
      {
        "astId": 8975,
        "contract": "@sipher/tokens/contracts/erc-721/ERC721Sipher.sol:ERC721Sipher",
        "label": "royalties",
        "offset": 0,
        "slot": "454",
        "type": "t_mapping(t_uint256,t_array(t_struct(Part)8804_storage)dyn_storage)"
      },
      {
        "astId": 15298,
        "contract": "@sipher/tokens/contracts/erc-721/ERC721Sipher.sol:ERC721Sipher",
        "label": "creators",
        "offset": 0,
        "slot": "455",
        "type": "t_mapping(t_uint256,t_array(t_struct(Part)8804_storage)dyn_storage)"
      },
      {
        "astId": 15731,
        "contract": "@sipher/tokens/contracts/erc-721/ERC721Sipher.sol:ERC721Sipher",
        "label": "__gap",
        "offset": 0,
        "slot": "456",
        "type": "t_array(t_uint256)50_storage"
      },
      {
        "astId": 10085,
        "contract": "@sipher/tokens/contracts/erc-721/ERC721Sipher.sol:ERC721Sipher",
        "label": "contractURI",
        "offset": 0,
        "slot": "506",
        "type": "t_string_storage"
      },
      {
        "astId": 10119,
        "contract": "@sipher/tokens/contracts/erc-721/ERC721Sipher.sol:ERC721Sipher",
        "label": "__gap",
        "offset": 0,
        "slot": "507",
        "type": "t_array(t_uint256)49_storage"
      },
      {
        "astId": 15086,
        "contract": "@sipher/tokens/contracts/erc-721/ERC721Sipher.sol:ERC721Sipher",
        "label": "__gap",
        "offset": 0,
        "slot": "556",
        "type": "t_array(t_uint256)50_storage"
      },
      {
        "astId": 15844,
        "contract": "@sipher/tokens/contracts/erc-721/ERC721Sipher.sol:ERC721Sipher",
        "label": "__gap",
        "offset": 0,
        "slot": "606",
        "type": "t_array(t_uint256)50_storage"
      }
    ],
    "types": {
      "t_address": {
        "encoding": "inplace",
        "label": "address",
        "numberOfBytes": "20"
      },
      "t_address_payable": {
        "encoding": "inplace",
        "label": "address payable",
        "numberOfBytes": "20"
      },
      "t_array(t_bytes32)dyn_storage": {
        "base": "t_bytes32",
        "encoding": "dynamic_array",
        "label": "bytes32[]",
        "numberOfBytes": "32"
      },
      "t_array(t_struct(MapEntry)1671_storage)dyn_storage": {
        "base": "t_struct(MapEntry)1671_storage",
        "encoding": "dynamic_array",
        "label": "struct EnumerableMapUpgradeable.MapEntry[]",
        "numberOfBytes": "32"
      },
      "t_array(t_struct(Part)8804_storage)dyn_storage": {
        "base": "t_struct(Part)8804_storage",
        "encoding": "dynamic_array",
        "label": "struct LibPart.Part[]",
        "numberOfBytes": "32"
      },
      "t_array(t_uint256)40_storage": {
        "base": "t_uint256",
        "encoding": "inplace",
        "label": "uint256[40]",
        "numberOfBytes": "1280"
      },
      "t_array(t_uint256)49_storage": {
        "base": "t_uint256",
        "encoding": "inplace",
        "label": "uint256[49]",
        "numberOfBytes": "1568"
      },
      "t_array(t_uint256)50_storage": {
        "base": "t_uint256",
        "encoding": "inplace",
        "label": "uint256[50]",
        "numberOfBytes": "1600"
      },
      "t_bool": {
        "encoding": "inplace",
        "label": "bool",
        "numberOfBytes": "1"
      },
      "t_bytes32": {
        "encoding": "inplace",
        "label": "bytes32",
        "numberOfBytes": "32"
      },
      "t_bytes4": {
        "encoding": "inplace",
        "label": "bytes4",
        "numberOfBytes": "4"
      },
      "t_mapping(t_address,t_bool)": {
        "encoding": "mapping",
        "key": "t_address",
        "label": "mapping(address => bool)",
        "numberOfBytes": "32",
        "value": "t_bool"
      },
      "t_mapping(t_address,t_mapping(t_address,t_bool))": {
        "encoding": "mapping",
        "key": "t_address",
        "label": "mapping(address => mapping(address => bool))",
        "numberOfBytes": "32",
        "value": "t_mapping(t_address,t_bool)"
      },
      "t_mapping(t_address,t_struct(UintSet)2620_storage)": {
        "encoding": "mapping",
        "key": "t_address",
        "label": "mapping(address => struct EnumerableSetUpgradeable.UintSet)",
        "numberOfBytes": "32",
        "value": "t_struct(UintSet)2620_storage"
      },
      "t_mapping(t_bytes32,t_uint256)": {
        "encoding": "mapping",
        "key": "t_bytes32",
        "label": "mapping(bytes32 => uint256)",
        "numberOfBytes": "32",
        "value": "t_uint256"
      },
      "t_mapping(t_bytes4,t_bool)": {
        "encoding": "mapping",
        "key": "t_bytes4",
        "label": "mapping(bytes4 => bool)",
        "numberOfBytes": "32",
        "value": "t_bool"
      },
      "t_mapping(t_uint256,t_address)": {
        "encoding": "mapping",
        "key": "t_uint256",
        "label": "mapping(uint256 => address)",
        "numberOfBytes": "32",
        "value": "t_address"
      },
      "t_mapping(t_uint256,t_array(t_struct(Part)8804_storage)dyn_storage)": {
        "encoding": "mapping",
        "key": "t_uint256",
        "label": "mapping(uint256 => struct LibPart.Part[])",
        "numberOfBytes": "32",
        "value": "t_array(t_struct(Part)8804_storage)dyn_storage"
      },
      "t_mapping(t_uint256,t_bool)": {
        "encoding": "mapping",
        "key": "t_uint256",
        "label": "mapping(uint256 => bool)",
        "numberOfBytes": "32",
        "value": "t_bool"
      },
      "t_mapping(t_uint256,t_string_storage)": {
        "encoding": "mapping",
        "key": "t_uint256",
        "label": "mapping(uint256 => string)",
        "numberOfBytes": "32",
        "value": "t_string_storage"
      },
      "t_string_storage": {
        "encoding": "bytes",
        "label": "string",
        "numberOfBytes": "32"
      },
      "t_struct(Map)1679_storage": {
        "encoding": "inplace",
        "label": "struct EnumerableMapUpgradeable.Map",
        "members": [
          {
            "astId": 1674,
            "contract": "@sipher/tokens/contracts/erc-721/ERC721Sipher.sol:ERC721Sipher",
            "label": "_entries",
            "offset": 0,
            "slot": "0",
            "type": "t_array(t_struct(MapEntry)1671_storage)dyn_storage"
          },
          {
            "astId": 1678,
            "contract": "@sipher/tokens/contracts/erc-721/ERC721Sipher.sol:ERC721Sipher",
            "label": "_indexes",
            "offset": 0,
            "slot": "1",
            "type": "t_mapping(t_bytes32,t_uint256)"
          }
        ],
        "numberOfBytes": "64"
      },
      "t_struct(MapEntry)1671_storage": {
        "encoding": "inplace",
        "label": "struct EnumerableMapUpgradeable.MapEntry",
        "members": [
          {
            "astId": 1668,
            "contract": "@sipher/tokens/contracts/erc-721/ERC721Sipher.sol:ERC721Sipher",
            "label": "_key",
            "offset": 0,
            "slot": "0",
            "type": "t_bytes32"
          },
          {
            "astId": 1670,
            "contract": "@sipher/tokens/contracts/erc-721/ERC721Sipher.sol:ERC721Sipher",
            "label": "_value",
            "offset": 0,
            "slot": "1",
            "type": "t_bytes32"
          }
        ],
        "numberOfBytes": "64"
      },
      "t_struct(Part)8804_storage": {
        "encoding": "inplace",
        "label": "struct LibPart.Part",
        "members": [
          {
            "astId": 8801,
            "contract": "@sipher/tokens/contracts/erc-721/ERC721Sipher.sol:ERC721Sipher",
            "label": "account",
            "offset": 0,
            "slot": "0",
            "type": "t_address_payable"
          },
          {
            "astId": 8803,
            "contract": "@sipher/tokens/contracts/erc-721/ERC721Sipher.sol:ERC721Sipher",
            "label": "value",
            "offset": 20,
            "slot": "0",
            "type": "t_uint96"
          }
        ],
        "numberOfBytes": "32"
      },
      "t_struct(Set)2234_storage": {
        "encoding": "inplace",
        "label": "struct EnumerableSetUpgradeable.Set",
        "members": [
          {
            "astId": 2229,
            "contract": "@sipher/tokens/contracts/erc-721/ERC721Sipher.sol:ERC721Sipher",
            "label": "_values",
            "offset": 0,
            "slot": "0",
            "type": "t_array(t_bytes32)dyn_storage"
          },
          {
            "astId": 2233,
            "contract": "@sipher/tokens/contracts/erc-721/ERC721Sipher.sol:ERC721Sipher",
            "label": "_indexes",
            "offset": 0,
            "slot": "1",
            "type": "t_mapping(t_bytes32,t_uint256)"
          }
        ],
        "numberOfBytes": "64"
      },
      "t_struct(UintSet)2620_storage": {
        "encoding": "inplace",
        "label": "struct EnumerableSetUpgradeable.UintSet",
        "members": [
          {
            "astId": 2619,
            "contract": "@sipher/tokens/contracts/erc-721/ERC721Sipher.sol:ERC721Sipher",
            "label": "_inner",
            "offset": 0,
            "slot": "0",
            "type": "t_struct(Set)2234_storage"
          }
        ],
        "numberOfBytes": "64"
      },
      "t_struct(UintToAddressMap)1997_storage": {
        "encoding": "inplace",
        "label": "struct EnumerableMapUpgradeable.UintToAddressMap",
        "members": [
          {
            "astId": 1996,
            "contract": "@sipher/tokens/contracts/erc-721/ERC721Sipher.sol:ERC721Sipher",
            "label": "_inner",
            "offset": 0,
            "slot": "0",
            "type": "t_struct(Map)1679_storage"
          }
        ],
        "numberOfBytes": "64"
      },
      "t_uint256": {
        "encoding": "inplace",
        "label": "uint256",
        "numberOfBytes": "32"
      },
      "t_uint96": {
        "encoding": "inplace",
        "label": "uint96",
        "numberOfBytes": "12"
      }
    }
  }
}