{
  "address": "0x3DBceAc5036b4892645f4CD3969e90fDF0C097A0",
  "abi": [
    {
      "anonymous": false,
      "inputs": [
        {
          "indexed": true,
          "internalType": "address",
          "name": "owner",
          "type": "address"
        },
        {
          "indexed": true,
          "internalType": "address",
          "name": "approved",
          "type": "address"
        },
        {
          "indexed": true,
          "internalType": "uint256",
          "name": "tokenId",
          "type": "uint256"
        }
      ],
      "name": "Approval",
      "type": "event"
    },
    {
      "anonymous": false,
      "inputs": [
        {
          "indexed": true,
          "internalType": "address",
          "name": "owner",
          "type": "address"
        },
        {
          "indexed": true,
          "internalType": "address",
          "name": "operator",
          "type": "address"
        },
        {
          "indexed": false,
          "internalType": "bool",
          "name": "approved",
          "type": "bool"
        }
      ],
      "name": "ApprovalForAll",
      "type": "event"
    },
    {
      "anonymous": false,
      "inputs": [
        {
          "indexed": false,
          "internalType": "address",
          "name": "owner",
          "type": "address"
        },
        {
          "indexed": false,
          "internalType": "string",
          "name": "name",
          "type": "string"
        },
        {
          "indexed": false,
          "internalType": "string",
          "name": "symbol",
          "type": "string"
        }
      ],
      "name": "CreateERC721Rarible",
      "type": "event"
    },
    {
      "anonymous": false,
      "inputs": [
        {
          "indexed": false,
          "internalType": "uint256",
          "name": "tokenId",
          "type": "uint256"
        },
        {
          "components": [
            {
              "internalType": "address payable",
              "name": "account",
              "type": "address"
            },
            {
              "internalType": "uint96",
              "name": "value",
              "type": "uint96"
            }
          ],
          "indexed": false,
          "internalType": "struct LibPart.Part[]",
          "name": "creators",
          "type": "tuple[]"
        }
      ],
      "name": "Creators",
      "type": "event"
    },
    {
      "anonymous": false,
      "inputs": [
        {
          "indexed": true,
          "internalType": "address",
          "name": "operator",
          "type": "address"
        },
        {
          "indexed": false,
          "internalType": "bool",
          "name": "hasApproval",
          "type": "bool"
        }
      ],
      "name": "DefaultApproval",
      "type": "event"
    },
    {
      "anonymous": false,
      "inputs": [
        {
          "indexed": true,
          "internalType": "address",
          "name": "previousOwner",
          "type": "address"
        },
        {
          "indexed": true,
          "internalType": "address",
          "name": "newOwner",
          "type": "address"
        }
      ],
      "name": "OwnershipTransferred",
      "type": "event"
    },
    {
      "anonymous": false,
      "inputs": [
        {
          "indexed": false,
          "internalType": "uint256",
          "name": "tokenId",
          "type": "uint256"
        },
        {
          "components": [
            {
              "internalType": "address payable",
              "name": "account",
              "type": "address"
            },
            {
              "internalType": "uint96",
              "name": "value",
              "type": "uint96"
            }
          ],
          "indexed": false,
          "internalType": "struct LibPart.Part[]",
          "name": "royalties",
          "type": "tuple[]"
        }
      ],
      "name": "RoyaltiesSet",
      "type": "event"
    },
    {
      "anonymous": false,
      "inputs": [
        {
          "indexed": true,
          "internalType": "address",
          "name": "from",
          "type": "address"
        },
        {
          "indexed": true,
          "internalType": "address",
          "name": "to",
          "type": "address"
        },
        {
          "indexed": true,
          "internalType": "uint256",
          "name": "tokenId",
          "type": "uint256"
        }
      ],
      "name": "Transfer",
      "type": "event"
    },
    {
      "inputs": [
        {
          "internalType": "string",
          "name": "_name",
          "type": "string"
        },
        {
          "internalType": "string",
          "name": "_symbol",
          "type": "string"
        },
        {
          "internalType": "string",
          "name": "baseURI",
          "type": "string"
        },
        {
          "internalType": "string",
          "name": "contractURI",
          "type": "string"
        },
        {
          "internalType": "address",
          "name": "transferProxy",
          "type": "address"
        },
        {
          "internalType": "address",
          "name": "lazyTransferProxy",
          "type": "address"
        }
      ],
      "name": "__ERC721Rarible_init",
      "outputs": [],
      "stateMutability": "nonpayable",
      "type": "function"
    },
    {
      "inputs": [
        {
          "internalType": "address",
          "name": "to",
          "type": "address"
        },
        {
          "internalType": "uint256",
          "name": "tokenId",
          "type": "uint256"
        }
      ],
      "name": "approve",
      "outputs": [],
      "stateMutability": "nonpayable",
      "type": "function"
    },
    {
      "inputs": [
        {
          "internalType": "address",
          "name": "owner",
          "type": "address"
        }
      ],
      "name": "balanceOf",
      "outputs": [
        {
          "internalType": "uint256",
          "name": "",
          "type": "uint256"
        }
      ],
      "stateMutability": "view",
      "type": "function"
    },
    {
      "inputs": [],
      "name": "baseURI",
      "outputs": [
        {
          "internalType": "string",
          "name": "",
          "type": "string"
        }
      ],
      "stateMutability": "view",
      "type": "function"
    },
    {
      "inputs": [
        {
          "internalType": "uint256",
          "name": "tokenId",
          "type": "uint256"
        }
      ],
      "name": "burn",
      "outputs": [],
      "stateMutability": "nonpayable",
      "type": "function"
    },
    {
      "inputs": [],
      "name": "contractURI",
      "outputs": [
        {
          "internalType": "string",
          "name": "",
          "type": "string"
        }
      ],
      "stateMutability": "view",
      "type": "function"
    },
    {
      "inputs": [
        {
          "internalType": "uint256",
          "name": "tokenId",
          "type": "uint256"
        }
      ],
      "name": "getApproved",
      "outputs": [
        {
          "internalType": "address",
          "name": "",
          "type": "address"
        }
      ],
      "stateMutability": "view",
      "type": "function"
    },
    {
      "inputs": [
        {
          "internalType": "uint256",
          "name": "_id",
          "type": "uint256"
        }
      ],
      "name": "getCreators",
      "outputs": [
        {
          "components": [
            {
              "internalType": "address payable",
              "name": "account",
              "type": "address"
            },
            {
              "internalType": "uint96",
              "name": "value",
              "type": "uint96"
            }
          ],
          "internalType": "struct LibPart.Part[]",
          "name": "",
          "type": "tuple[]"
        }
      ],
      "stateMutability": "view",
      "type": "function"
    },
    {
      "inputs": [
        {
          "internalType": "uint256",
          "name": "id",
          "type": "uint256"
        }
      ],
      "name": "getRaribleV2Royalties",
      "outputs": [
        {
          "components": [
            {
              "internalType": "address payable",
              "name": "account",
              "type": "address"
            },
            {
              "internalType": "uint96",
              "name": "value",
              "type": "uint96"
            }
          ],
          "internalType": "struct LibPart.Part[]",
          "name": "",
          "type": "tuple[]"
        }
      ],
      "stateMutability": "view",
      "type": "function"
    },
    {
      "inputs": [
        {
          "internalType": "address",
          "name": "owner",
          "type": "address"
        },
        {
          "internalType": "address",
          "name": "operator",
          "type": "address"
        }
      ],
      "name": "isApprovedForAll",
      "outputs": [
        {
          "internalType": "bool",
          "name": "",
          "type": "bool"
        }
      ],
      "stateMutability": "view",
      "type": "function"
    },
    {
      "inputs": [
        {
          "components": [
            {
              "internalType": "uint256",
              "name": "tokenId",
              "type": "uint256"
            },
            {
              "internalType": "string",
              "name": "tokenURI",
              "type": "string"
            },
            {
              "components": [
                {
                  "internalType": "address payable",
                  "name": "account",
                  "type": "address"
                },
                {
                  "internalType": "uint96",
                  "name": "value",
                  "type": "uint96"
                }
              ],
              "internalType": "struct LibPart.Part[]",
              "name": "creators",
              "type": "tuple[]"
            },
            {
              "components": [
                {
                  "internalType": "address payable",
                  "name": "account",
                  "type": "address"
                },
                {
                  "internalType": "uint96",
                  "name": "value",
                  "type": "uint96"
                }
              ],
              "internalType": "struct LibPart.Part[]",
              "name": "royalties",
              "type": "tuple[]"
            },
            {
              "internalType": "bytes[]",
              "name": "signatures",
              "type": "bytes[]"
            }
          ],
          "internalType": "struct LibERC721LazyMint.Mint721Data",
          "name": "data",
          "type": "tuple"
        },
        {
          "internalType": "address",
          "name": "to",
          "type": "address"
        }
      ],
      "name": "mintAndTransfer",
      "outputs": [],
      "stateMutability": "nonpayable",
      "type": "function"
    },
    {
      "inputs": [],
      "name": "name",
      "outputs": [
        {
          "internalType": "string",
          "name": "",
          "type": "string"
        }
      ],
      "stateMutability": "view",
      "type": "function"
    },
    {
      "inputs": [],
      "name": "owner",
      "outputs": [
        {
          "internalType": "address",
          "name": "",
          "type": "address"
        }
      ],
      "stateMutability": "view",
      "type": "function"
    },
    {
      "inputs": [
        {
          "internalType": "uint256",
          "name": "tokenId",
          "type": "uint256"
        }
      ],
      "name": "ownerOf",
      "outputs": [
        {
          "internalType": "address",
          "name": "",
          "type": "address"
        }
      ],
      "stateMutability": "view",
      "type": "function"
    },
    {
      "inputs": [],
      "name": "renounceOwnership",
      "outputs": [],
      "stateMutability": "nonpayable",
      "type": "function"
    },
    {
      "inputs": [
        {
          "internalType": "address",
          "name": "from",
          "type": "address"
        },
        {
          "internalType": "address",
          "name": "to",
          "type": "address"
        },
        {
          "internalType": "uint256",
          "name": "tokenId",
          "type": "uint256"
        }
      ],
      "name": "safeTransferFrom",
      "outputs": [],
      "stateMutability": "nonpayable",
      "type": "function"
    },
    {
      "inputs": [
        {
          "internalType": "address",
          "name": "from",
          "type": "address"
        },
        {
          "internalType": "address",
          "name": "to",
          "type": "address"
        },
        {
          "internalType": "uint256",
          "name": "tokenId",
          "type": "uint256"
        },
        {
          "internalType": "bytes",
          "name": "_data",
          "type": "bytes"
        }
      ],
      "name": "safeTransferFrom",
      "outputs": [],
      "stateMutability": "nonpayable",
      "type": "function"
    },
    {
      "inputs": [
        {
          "internalType": "address",
          "name": "operator",
          "type": "address"
        },
        {
          "internalType": "bool",
          "name": "approved",
          "type": "bool"
        }
      ],
      "name": "setApprovalForAll",
      "outputs": [],
      "stateMutability": "nonpayable",
      "type": "function"
    },
    {
      "inputs": [
        {
          "internalType": "bytes4",
          "name": "interfaceId",
          "type": "bytes4"
        }
      ],
      "name": "supportsInterface",
      "outputs": [
        {
          "internalType": "bool",
          "name": "",
          "type": "bool"
        }
      ],
      "stateMutability": "view",
      "type": "function"
    },
    {
      "inputs": [],
      "name": "symbol",
      "outputs": [
        {
          "internalType": "string",
          "name": "",
          "type": "string"
        }
      ],
      "stateMutability": "view",
      "type": "function"
    },
    {
      "inputs": [
        {
          "internalType": "uint256",
          "name": "index",
          "type": "uint256"
        }
      ],
      "name": "tokenByIndex",
      "outputs": [
        {
          "internalType": "uint256",
          "name": "",
          "type": "uint256"
        }
      ],
      "stateMutability": "view",
      "type": "function"
    },
    {
      "inputs": [
        {
          "internalType": "address",
          "name": "owner",
          "type": "address"
        },
        {
          "internalType": "uint256",
          "name": "index",
          "type": "uint256"
        }
      ],
      "name": "tokenOfOwnerByIndex",
      "outputs": [
        {
          "internalType": "uint256",
          "name": "",
          "type": "uint256"
        }
      ],
      "stateMutability": "view",
      "type": "function"
    },
    {
      "inputs": [
        {
          "internalType": "uint256",
          "name": "tokenId",
          "type": "uint256"
        }
      ],
      "name": "tokenURI",
      "outputs": [
        {
          "internalType": "string",
          "name": "",
          "type": "string"
        }
      ],
      "stateMutability": "view",
      "type": "function"
    },
    {
      "inputs": [],
      "name": "totalSupply",
      "outputs": [
        {
          "internalType": "uint256",
          "name": "",
          "type": "uint256"
        }
      ],
      "stateMutability": "view",
      "type": "function"
    },
    {
      "inputs": [
        {
          "internalType": "address",
          "name": "from",
          "type": "address"
        },
        {
          "internalType": "address",
          "name": "to",
          "type": "address"
        },
        {
          "internalType": "uint256",
          "name": "tokenId",
          "type": "uint256"
        }
      ],
      "name": "transferFrom",
      "outputs": [],
      "stateMutability": "nonpayable",
      "type": "function"
    },
    {
      "inputs": [
        {
          "components": [
            {
              "internalType": "uint256",
              "name": "tokenId",
              "type": "uint256"
            },
            {
              "internalType": "string",
              "name": "tokenURI",
              "type": "string"
            },
            {
              "components": [
                {
                  "internalType": "address payable",
                  "name": "account",
                  "type": "address"
                },
                {
                  "internalType": "uint96",
                  "name": "value",
                  "type": "uint96"
                }
              ],
              "internalType": "struct LibPart.Part[]",
              "name": "creators",
              "type": "tuple[]"
            },
            {
              "components": [
                {
                  "internalType": "address payable",
                  "name": "account",
                  "type": "address"
                },
                {
                  "internalType": "uint96",
                  "name": "value",
                  "type": "uint96"
                }
              ],
              "internalType": "struct LibPart.Part[]",
              "name": "royalties",
              "type": "tuple[]"
            },
            {
              "internalType": "bytes[]",
              "name": "signatures",
              "type": "bytes[]"
            }
          ],
          "internalType": "struct LibERC721LazyMint.Mint721Data",
          "name": "data",
          "type": "tuple"
        },
        {
          "internalType": "address",
          "name": "from",
          "type": "address"
        },
        {
          "internalType": "address",
          "name": "to",
          "type": "address"
        }
      ],
      "name": "transferFromOrMint",
      "outputs": [],
      "stateMutability": "nonpayable",
      "type": "function"
    },
    {
      "inputs": [
        {
          "internalType": "address",
          "name": "newOwner",
          "type": "address"
        }
      ],
      "name": "transferOwnership",
      "outputs": [],
      "stateMutability": "nonpayable",
      "type": "function"
    },
    {
      "inputs": [
        {
          "internalType": "uint256",
          "name": "_id",
          "type": "uint256"
        },
        {
          "internalType": "address",
          "name": "_from",
          "type": "address"
        },
        {
          "internalType": "address",
          "name": "_to",
          "type": "address"
        }
      ],
      "name": "updateAccount",
      "outputs": [],
      "stateMutability": "nonpayable",
      "type": "function"
    }
  ],
  "transactionHash": "0xef5492200b628910698c8af1cc6da59d9a2949c011d0ec4f0b7eaeb051693496",
  "args": [],
  "numDeployments": 1,
  "solcInputHash": "97c6bb67a11a3b86c8241c5966d7100e",
  "bytecode": "0x608060405234801561001057600080fd5b50615200806100206000396000f3fe608060405234801561001057600080fd5b50600436106101c45760003560e01c806370a08231116100f9578063b88d4fde11610097578063e07f231911610071578063e07f23191461039b578063e8a3d485146103ae578063e985e9c5146103b6578063f2fde38b146103c9576101c4565b8063b88d4fde14610362578063c87b56dd14610375578063cad96cca14610388576101c4565b8063891be974116100d3578063891be9741461031f5780638da5cb5b1461033f57806395d89b4114610347578063a22cb4651461034f576101c4565b806370a08231146102f1578063715018a614610304578063832fbb291461030c576101c4565b80632f745c591161016657806342966c681161014057806342966c68146102b05780634f6ccce7146102c35780636352211e146102d65780636c0360eb146102e9576101c4565b80632f745c59146102775780633db397c61461028a57806342842e0e1461029d576101c4565b8063095ea7b3116101a2578063095ea7b31461022757806318160ddd1461023c57806322a775b61461025157806323b872dd14610264576101c4565b806301ffc9a7146101c957806306fdde03146101f2578063081812fc14610207575b600080fd5b6101dc6101d7366004614828565b6103dc565b6040516101e99190614b5c565b60405180910390f35b6101fa6103ef565b6040516101e99190614b67565b61021a6102153660046149d7565b610485565b6040516101e99190614ae7565b61023a6102353660046147fd565b6104f4565b005b610244610603565b6040516101e99190614db1565b61023a61025f366004614930565b610614565b61023a610272366004614722565b6107ed565b6102446102853660046147fd565b610844565b61023a610298366004614868565b61087c565b61023a6102ab366004614722565b610974565b61023a6102be3660046149d7565b61098f565b6102446102d13660046149d7565b610a73565b61021a6102e43660046149d7565b610a89565b6101fa610ab1565b6102446102ff3660046146ce565b610b12565b61023a610b94565b61023a61031a366004614975565b610c91565b61033261032d3660046149d7565b610cbf565b6040516101e99190614b49565b61021a610d72565b6101fa610d8e565b61023a61035d3660046147cc565b610def565b61023a610370366004614762565b610f28565b6101fa6103833660046149d7565b610f86565b6103326103963660046149d7565b61119c565b61023a6103a93660046149ef565b61123a565b6101fa611297565b6101dc6103c43660046146ea565b611326565b61023a6103d73660046146ce565b611332565b60006103e7826114a0565b90505b919050565b609c8054604080516020601f600260001961010060018816150201909516949094049384018190048102820181019092528281526060939092909183018282801561047b5780601f106104505761010080835404028352916020019161047b565b820191906000526020600020905b81548152906001019060200180831161045e57829003601f168201915b5050505050905090565b600061049082611665565b6104cb5760405162461bcd60e51b815260040180806020018281038252602c815260200180615074602c913960400191505060405180910390fd5b506000908152609a602052604090205473ffffffffffffffffffffffffffffffffffffffff1690565b60006104ff82610a89565b90508073ffffffffffffffffffffffffffffffffffffffff168373ffffffffffffffffffffffffffffffffffffffff16141561056c5760405162461bcd60e51b81526004018080602001828103825260218152602001806151246021913960400191505060405180910390fd5b8073ffffffffffffffffffffffffffffffffffffffff1661058b611672565b73ffffffffffffffffffffffffffffffffffffffff1614806105b957506105b9816105b4611672565b611676565b6105f45760405162461bcd60e51b8152600401808060200182810382526038815260200180614f4a6038913960400191505060405180910390fd5b6105fe83836116b1565b505050565b600061060f6098611751565b905090565b815160601c6000610623611672565b9050836040015160008151811061063657fe5b60200260200101516000015173ffffffffffffffffffffffffffffffffffffffff168273ffffffffffffffffffffffffffffffffffffffff16146106955760405162461bcd60e51b815260040161068c90614be6565b60405180910390fd5b836080015151846040015151146106ab57600080fd5b8073ffffffffffffffffffffffffffffffffffffffff168273ffffffffffffffffffffffffffffffffffffffff1614806106ea57506106ea8282611326565b6107065760405162461bcd60e51b815260040161068c90614cc0565b60006107118561175c565b905060005b8560400151518110156107a15760008660400151828151811061073557fe5b60200260200101516000015190508373ffffffffffffffffffffffffffffffffffffffff168173ffffffffffffffffffffffffffffffffffffffff16146107985761079881848960800151858151811061078b57fe5b60200260200101516119a5565b50600101610716565b506107b08486600001516119b0565b6107c2856000015186606001516119ce565b6107d485600001518660400151611c1c565b6107e685600001518660200151611e2a565b5050505050565b6107fe6107f8611672565b82611e8d565b6108395760405162461bcd60e51b81526004018080602001828103825260318152602001806151456031913960400191505060405180910390fd5b6105fe838383611e99565b73ffffffffffffffffffffffffffffffffffffffff821660009081526097602052604081206108739083612040565b90505b92915050565b600054610100900460ff1680610895575061089561204c565b806108a3575060005460ff16155b6108de5760405162461bcd60e51b815260040180806020018281038252602e815260200180614fd5602e913960400191505060405180910390fd5b600054610100900460ff16158015610909576000805460ff1961ff0019909116610100171660011790555b61091787878787878761205d565b7ff05e55f0a9d205977ca8cc02236338b6a361376f404cf0b3019b2111964a01fd610940611672565b888860405161095193929190614b08565b60405180910390a1801561096b576000805461ff00191690555b50505050505050565b6105fe83838360405180602001604052806000815250610f28565b61099881611665565b610a2157606081901c6109a9611672565b73ffffffffffffffffffffffffffffffffffffffff168173ffffffffffffffffffffffffffffffffffffffff1614610a125760405162461bcd60e51b815260040180806020018281038252602d815260200180615047602d913960400191505060405180910390fd5b610a1b826120cf565b50610a70565b610a2c6107f8611672565b610a675760405162461bcd60e51b815260040180806020018281038252603081526020018061519b6030913960400191505060405180910390fd5b610a70816120ea565b50565b600080610a816098846121da565b509392505050565b60006103e782604051806060016040528060298152602001614fac60299139609891906121f6565b609f8054604080516020601f600260001961010060018816150201909516949094049384018190048102820181019092528281526060939092909183018282801561047b5780601f106104505761010080835404028352916020019161047b565b600073ffffffffffffffffffffffffffffffffffffffff8216610b665760405162461bcd60e51b815260040180806020018281038252602a815260200180614f82602a913960400191505060405180910390fd5b73ffffffffffffffffffffffffffffffffffffffff821660009081526097602052604090206103e790611751565b610b9c611672565b73ffffffffffffffffffffffffffffffffffffffff16610bba610d72565b73ffffffffffffffffffffffffffffffffffffffff1614610c22576040805162461bcd60e51b815260206004820181905260248201527f4f776e61626c653a2063616c6c6572206973206e6f7420746865206f776e6572604482015290519081900360640190fd5b60335460405160009173ffffffffffffffffffffffffffffffffffffffff16907f8be0079c531659141344cd1fd0a4f28419497f9722a3daafe3b4186f6b6457e0908390a3603380547fffffffffffffffffffffffff0000000000000000000000000000000000000000169055565b8251610c9c90611665565b15610cb557610cb082828560000151610974565b6105fe565b6105fe8382610614565b60606101c76000838152602001908152602001600020805480602002602001604051908101604052809291908181526020016000905b82821015610d67576000848152602090819020604080518082019091529084015473ffffffffffffffffffffffffffffffffffffffff811682527401000000000000000000000000000000000000000090046bffffffffffffffffffffffff1681830152825260019092019101610cf5565b505050509050919050565b60335473ffffffffffffffffffffffffffffffffffffffff1690565b609d8054604080516020601f600260001961010060018816150201909516949094049384018190048102820181019092528281526060939092909183018282801561047b5780601f106104505761010080835404028352916020019161047b565b610df7611672565b73ffffffffffffffffffffffffffffffffffffffff168273ffffffffffffffffffffffffffffffffffffffff161415610e77576040805162461bcd60e51b815260206004820152601960248201527f4552433732313a20617070726f766520746f2063616c6c657200000000000000604482015290519081900360640190fd5b80609b6000610e84611672565b73ffffffffffffffffffffffffffffffffffffffff908116825260208083019390935260409182016000908120918716808252919093529120805460ff191692151592909217909155610ed5611672565b73ffffffffffffffffffffffffffffffffffffffff167f17307eab39ab6107e8899845ad3d59bd9653f200f220920489ca2b5937696c318360405180821515815260200191505060405180910390a35050565b610f39610f33611672565b83611e8d565b610f745760405162461bcd60e51b81526004018080602001828103825260318152602001806151456031913960400191505060405180910390fd5b610f808484848461220d565b50505050565b6060610f9182611665565b610fcc5760405162461bcd60e51b815260040180806020018281038252602f8152602001806150f5602f913960400191505060405180910390fd5b6000828152609e602090815260408083208054825160026001831615610100026000190190921691909104601f81018590048502820185019093528281529290919083018282801561105f5780601f106110345761010080835404028352916020019161105f565b820191906000526020600020905b81548152906001019060200180831161104257829003601f168201915b505050505090506000611070610ab1565b9050805160001415611084575090506103ea565b81511561109e57611095818361225f565b925050506103ea565b806110a8856124ec565b6040516020018083805190602001908083835b602083106110f857805182527fffffffffffffffffffffffffffffffffffffffffffffffffffffffffffffffe090920191602091820191016110bb565b51815160209384036101000a600019018019909216911617905285519190930192850191508083835b6020831061115e57805182527fffffffffffffffffffffffffffffffffffffffffffffffffffffffffffffffe09092019160209182019101611121565b6001836020036101000a0380198251168184511680821785525050505050509050019250505060405160208183030381529060405292505050919050565b60008181526101c660209081526040808320805482518185028101850190935280835260609492939192909184018215610d67576000848152602090819020604080518082019091529084015473ffffffffffffffffffffffffffffffffffffffff811682527401000000000000000000000000000000000000000090046bffffffffffffffffffffffff1681830152825260019092019101610cf5565b8173ffffffffffffffffffffffffffffffffffffffff16611259611672565b73ffffffffffffffffffffffffffffffffffffffff161461128c5760405162461bcd60e51b815260040161068c90614c1d565b6105fe8383836125fb565b6101fa805460408051602060026001851615610100026000190190941693909304601f8101849004840282018401909252818152929183018282801561131e5780601f106112f35761010080835404028352916020019161131e565b820191906000526020600020905b81548152906001019060200180831161130157829003601f168201915b505050505081565b600061087383836126e6565b61133a611672565b73ffffffffffffffffffffffffffffffffffffffff16611358610d72565b73ffffffffffffffffffffffffffffffffffffffff16146113c0576040805162461bcd60e51b815260206004820181905260248201527f4f776e61626c653a2063616c6c6572206973206e6f7420746865206f776e6572604482015290519081900360640190fd5b73ffffffffffffffffffffffffffffffffffffffff81166114125760405162461bcd60e51b8152600401808060200182810382526026815260200180614e8c6026913960400191505060405180910390fd5b60335460405173ffffffffffffffffffffffffffffffffffffffff8084169216907f8be0079c531659141344cd1fd0a4f28419497f9722a3daafe3b4186f6b6457e090600090a3603380547fffffffffffffffffffffffff00000000000000000000000000000000000000001673ffffffffffffffffffffffffffffffffffffffff92909216919091179055565b60007fffffffff0000000000000000000000000000000000000000000000000000000082167f8486f69f00000000000000000000000000000000000000000000000000000000148061153357507fffffffff0000000000000000000000000000000000000000000000000000000082167fcad96cca00000000000000000000000000000000000000000000000000000000145b8061157f57507fffffffff0000000000000000000000000000000000000000000000000000000082167f01ffc9a700000000000000000000000000000000000000000000000000000000145b806115cb57507fffffffff0000000000000000000000000000000000000000000000000000000082167f80ac58cd00000000000000000000000000000000000000000000000000000000145b8061161757507fffffffff0000000000000000000000000000000000000000000000000000000082167f5b5e139f00000000000000000000000000000000000000000000000000000000145b806103e75750507fffffffff00000000000000000000000000000000000000000000000000000000167f780e9d63000000000000000000000000000000000000000000000000000000001490565b60006103e760988361271f565b3390565b73ffffffffffffffffffffffffffffffffffffffff9182166000908152609b6020908152604080832093909416825291909152205460ff1690565b6000818152609a6020526040902080547fffffffffffffffffffffffff00000000000000000000000000000000000000001673ffffffffffffffffffffffffffffffffffffffff8416908117909155819061170b82610a89565b73ffffffffffffffffffffffffffffffffffffffff167f8c5be1e5ebec7d5bd14f71427d1e84f3dd0314c0f7b2291e5b200ac8c7c3b92560405160405180910390a45050565b60006103e78261272b565b60008082606001515167ffffffffffffffff8111801561177b57600080fd5b506040519080825280602002602001820160405280156117a5578160200160208202803683370190505b50905060005b8360600151518110156117f7576117d8846060015182815181106117cb57fe5b602002602001015161272f565b8282815181106117e457fe5b60209081029190910101526001016117ab565b50600083604001515167ffffffffffffffff8111801561181657600080fd5b50604051908082528060200260200182016040528015611840578160200160208202803683370190505b50905060005b84604001515181101561188557611866856040015182815181106117cb57fe5b82828151811061187257fe5b6020908102919091010152600101611846565b507ff64326045af5fd7e15297ba939f85b550474d3899daa47d2bc1ffbdb9ced344e84600001518560200151805190602001208360405160200180828051906020019060200280838360005b838110156118e95781810151838201526020016118d1565b50505050905001915050604051602081830303815290604052805190602001208560405160200180828051906020019060200280838360005b8381101561193a578181015183820152602001611922565b505050509050019150506040516020818303038152906040528051906020012060405160200180868152602001858152602001848152602001838152602001828152602001955050505050506040516020818303038152906040528051906020012092505050919050565b6105fe8383836127ae565b6119ca828260405180602001604052806000815250612a92565b5050565b6000805b8251811015611bd157600073ffffffffffffffffffffffffffffffffffffffff168382815181106119ff57fe5b60200260200101516000015173ffffffffffffffffffffffffffffffffffffffff161415611a74576040805162461bcd60e51b815260206004820152601b60248201527f526563697069656e742073686f756c642062652070726573656e740000000000604482015290519081900360640190fd5b828181518110611a8057fe5b6020026020010151602001516bffffffffffffffffffffffff1660001415611aef576040805162461bcd60e51b815260206004820181905260248201527f526f79616c74792076616c75652073686f756c6420626520706f736974697665604482015290519081900360640190fd5b828181518110611afb57fe5b6020026020010151602001516bffffffffffffffffffffffff16820191506101c66000858152602001908152602001600020838281518110611b3957fe5b60209081029190910181015182546001818101855560009485529383902082519101805492909301516bffffffffffffffffffffffff16740100000000000000000000000000000000000000000273ffffffffffffffffffffffffffffffffffffffff9182167fffffffffffffffffffffffff00000000000000000000000000000000000000009093169290921716179055016119d2565b506127108110611c125760405162461bcd60e51b81526004018080602001828103825260258152602001806151766025913960400191505060405180910390fd5b6105fe8383612ae4565b60008281526101c76020526040812090805b8351811015611dc957600073ffffffffffffffffffffffffffffffffffffffff16848281518110611c5b57fe5b60200260200101516000015173ffffffffffffffffffffffffffffffffffffffff161415611c9b5760405162461bcd60e51b815260040161068c90614c89565b838181518110611ca757fe5b6020026020010151602001516bffffffffffffffffffffffff1660001415611ce15760405162461bcd60e51b815260040161068c90614bb1565b82848281518110611cee57fe5b602090810291909101810151825460018101845560009384529282902081519301805491909201516bffffffffffffffffffffffff16740100000000000000000000000000000000000000000273ffffffffffffffffffffffffffffffffffffffff9384167fffffffffffffffffffffffff0000000000000000000000000000000000000000909216919091179092169190911790558351611dbf90859083908110611d9657fe5b6020026020010151602001516bffffffffffffffffffffffff1683612b2190919063ffffffff16565b9150600101611c2e565b508061271014611deb5760405162461bcd60e51b815260040161068c90614d54565b7f841ffb90d4cabdd1f16034f3fa831d79060febbb8167bdd54a49269365bdf78f8484604051611e1c929190614dba565b60405180910390a150505050565b611e3382611665565b611e6e5760405162461bcd60e51b815260040180806020018281038252602c8152602001806150a0602c913960400191505060405180910390fd5b6000828152609e6020908152604090912082516105fe92840190614373565b60006108738383612b7b565b8273ffffffffffffffffffffffffffffffffffffffff16611eb982610a89565b73ffffffffffffffffffffffffffffffffffffffff1614611f0b5760405162461bcd60e51b81526004018080602001828103825260298152602001806150cc6029913960400191505060405180910390fd5b73ffffffffffffffffffffffffffffffffffffffff8216611f5d5760405162461bcd60e51b8152600401808060200182810382526024815260200180614eb26024913960400191505060405180910390fd5b611f688383836105fe565b611f736000826116b1565b73ffffffffffffffffffffffffffffffffffffffff83166000908152609760205260409020611fa29082612bb4565b5073ffffffffffffffffffffffffffffffffffffffff82166000908152609760205260409020611fd29082612bc0565b50611fdf60988284612bcc565b50808273ffffffffffffffffffffffffffffffffffffffff168473ffffffffffffffffffffffffffffffffffffffff167fddf252ad1be2c89b69c2b068fc378daa952ba7f163c4a11628f55a4df523b3ef60405160405180910390a4505050565b60006108738383612bef565b600061205730612c53565b15905090565b61206684612c59565b61206e612c6c565b612076612d0d565b61207e612c6c565b612086612dc3565b61208e612e79565b612096612c6c565b61209e612f97565b6120a783613098565b6120b18686613178565b6120bc8260016132be565b6120c78160016132be565b505050505050565b600090815260a060205260409020805460ff19166001179055565b60006120f582610a89565b9050612103816000846105fe565b61210e6000836116b1565b6000828152609e6020526040902054600260001961010060018416150201909116041561214c576000828152609e6020526040812061214c916143ff565b73ffffffffffffffffffffffffffffffffffffffff8116600090815260976020526040902061217b9083612bb4565b5061218760988361332b565b50612191826120cf565b604051829060009073ffffffffffffffffffffffffffffffffffffffff8416907fddf252ad1be2c89b69c2b068fc378daa952ba7f163c4a11628f55a4df523b3ef908390a45050565b60008080806121e98686613337565b9097909650945050505050565b60006122038484846133b2565b90505b9392505050565b612218848484611e99565b6122248484848461343f565b610f805760405162461bcd60e51b8152600401808060200182810382526032815260200180614e5a6032913960400191505060405180910390fd5b805182516060918491849110156123665784846040516020018083805190602001908083835b602083106122c257805182527fffffffffffffffffffffffffffffffffffffffffffffffffffffffffffffffe09092019160209182019101612285565b51815160209384036101000a600019018019909216911617905285519190930192850191508083835b6020831061232857805182527fffffffffffffffffffffffffffffffffffffffffffffffffffffffffffffffe090920191602091820191016122eb565b6001836020036101000a0380198251168184511680821785525050505050509050019250505060405160208183030381529060405292505050610876565b60005b82518110156124e25782818151811061237e57fe5b602001015160f81c60f81b7effffffffffffffffffffffffffffffffffffffffffffffffffffffffffffff19168282815181106123b757fe5b01602001517fff0000000000000000000000000000000000000000000000000000000000000016146124da5785856040516020018083805190602001908083835b6020831061243557805182527fffffffffffffffffffffffffffffffffffffffffffffffffffffffffffffffe090920191602091820191016123f8565b51815160209384036101000a600019018019909216911617905285519190930192850191508083835b6020831061249b57805182527fffffffffffffffffffffffffffffffffffffffffffffffffffffffffffffffe0909201916020918201910161245e565b6001836020036101000a038019825116818451168082178552505050505050905001925050506040516020818303038152906040529350505050610876565b600101612369565b5092949350505050565b60608161252d575060408051808201909152600181527f300000000000000000000000000000000000000000000000000000000000000060208201526103ea565b8160005b811561254557600101600a82049150612531565b60008167ffffffffffffffff8111801561255e57600080fd5b506040519080825280601f01601f191660200182016040528015612589576020820181803683370190505b50859350905060001982015b83156125f257600a840660300160f81b828280600190039350815181106125b857fe5b60200101907effffffffffffffffffffffffffffffffffffffffffffffffffffffffffffff1916908160001a905350600a84049350612595565b50949350505050565b60008381526101c66020526040812054905b818110156107e65760008581526101c660205260409020805473ffffffffffffffffffffffffffffffffffffffff861691908390811061264957fe5b60009182526020909120015473ffffffffffffffffffffffffffffffffffffffff1614156126de5760008581526101c66020526040902080548491908390811061268f57fe5b600091825260209091200180547fffffffffffffffffffffffff00000000000000000000000000000000000000001673ffffffffffffffffffffffffffffffffffffffff929092169190911790555b60010161260d565b73ffffffffffffffffffffffffffffffffffffffff8116600090815260c9602052604081205460ff168061087357506108738383611676565b60006108738383613650565b5490565b8051602091820151604080517f397e04204c1e1a60ee8724b71f8244e10ab5f2e9009854d80f602bda21b59ebb8186015273ffffffffffffffffffffffffffffffffffffffff909316838201526bffffffffffffffffffffffff9091166060808401919091528151808403909101815260809092019052805191012090565b60006127b983613668565b905060008251604114156127d4576127d182846136cf565b90505b8473ffffffffffffffffffffffffffffffffffffffff168173ffffffffffffffffffffffffffffffffffffffff16146107e6576128268573ffffffffffffffffffffffffffffffffffffffff16612c53565b15612a1a57604080517f1626ba7e000000000000000000000000000000000000000000000000000000008082526004820185815260248301938452865160448401528651919373ffffffffffffffffffffffffffffffffffffffff8a1693631626ba7e9388938a9390929091606490910190602085019080838360005b838110156128bb5781810151838201526020016128a3565b50505050905090810190601f1680156128e85780820380516001836020036101000a031916815260200191505b50935050505060206040518083038186803b15801561290657600080fd5b505afa15801561291a573d6000803e3d6000fd5b505050506040513d602081101561293057600080fd5b505160408051808201909152601c81527f7369676e617475726520766572696669636174696f6e206572726f72000000006020820152917fffffffff0000000000000000000000000000000000000000000000000000000090911614612a145760405162461bcd60e51b81526004018080602001828103825283818151815260200191508051906020019080838360005b838110156129d95781810151838201526020016129c1565b50505050905090810190601f168015612a065780820380516001836020036101000a031916815260200191505b509250505060405180910390fd5b506107e6565b604080518082018252601c81527f7369676e617475726520766572696669636174696f6e206572726f72000000006020808301918252925162461bcd60e51b815260048101938452825160248201528251929392839260449092019190808383600083156129d95781810151838201526020016129c1565b612a9c838361374f565b612aa9600084848461343f565b6105fe5760405162461bcd60e51b8152600401808060200182810382526032815260200180614e5a6032913960400191505060405180910390fd5b7f3fa96d7b6bcbfe71ef171666d84db3cf52fa2d1c8afdb1cc8e486177f208b7df8282604051612b15929190614dba565b60405180910390a15050565b600082820183811015610873576040805162461bcd60e51b815260206004820152601b60248201527f536166654d6174683a206164646974696f6e206f766572666c6f770000000000604482015290519081900360640190fd5b73ffffffffffffffffffffffffffffffffffffffff8216600090815260c9602052604081205460ff168061087357506108738383613759565b60006108738383613829565b600061087383836138ef565b6000612203848473ffffffffffffffffffffffffffffffffffffffff8516613939565b81546000908210612c315760405162461bcd60e51b8152600401808060200182810382526022815260200180614e386022913960400191505060405180910390fd5b826000018281548110612c4057fe5b9060005260206000200154905092915050565b3b151590565b80516119ca90609f906020840190614373565b600054610100900460ff1680612c855750612c8561204c565b80612c93575060005460ff16155b612cce5760405162461bcd60e51b815260040180806020018281038252602e815260200180614fd5602e913960400191505060405180910390fd5b600054610100900460ff16158015612cf9576000805460ff1961ff0019909116610100171660011790555b8015610a70576000805461ff001916905550565b600054610100900460ff1680612d265750612d2661204c565b80612d34575060005460ff16155b612d6f5760405162461bcd60e51b815260040180806020018281038252602e815260200180614fd5602e913960400191505060405180910390fd5b600054610100900460ff16158015612d9a576000805460ff1961ff0019909116610100171660011790555b612cf97fcad96cca000000000000000000000000000000000000000000000000000000006139d0565b600054610100900460ff1680612ddc5750612ddc61204c565b80612dea575060005460ff16155b612e255760405162461bcd60e51b815260040180806020018281038252602e815260200180614fd5602e913960400191505060405180910390fd5b600054610100900460ff16158015612e50576000805460ff1961ff0019909116610100171660011790555b612cf97f01ffc9a7000000000000000000000000000000000000000000000000000000006139d0565b600054610100900460ff1680612e925750612e9261204c565b80612ea0575060005460ff16155b612edb5760405162461bcd60e51b815260040180806020018281038252602e815260200180614fd5602e913960400191505060405180910390fd5b600054610100900460ff16158015612f06576000805460ff1961ff0019909116610100171660011790555b6000612f10611672565b603380547fffffffffffffffffffffffff00000000000000000000000000000000000000001673ffffffffffffffffffffffffffffffffffffffff8316908117909155604051919250906000907f8be0079c531659141344cd1fd0a4f28419497f9722a3daafe3b4186f6b6457e0908290a3508015610a70576000805461ff001916905550565b600054610100900460ff1680612fb05750612fb061204c565b80612fbe575060005460ff16155b612ff95760405162461bcd60e51b815260040180806020018281038252602e815260200180614fd5602e913960400191505060405180910390fd5b600054610100900460ff16158015613024576000805460ff1961ff0019909116610100171660011790555b612cf96040518060400160405280600781526020017f4d696e74373231000000000000000000000000000000000000000000000000008152506040518060400160405280600181526020017f3100000000000000000000000000000000000000000000000000000000000000815250613a84565b600054610100900460ff16806130b157506130b161204c565b806130bf575060005460ff16155b6130fa5760405162461bcd60e51b815260040180806020018281038252602e815260200180614fd5602e913960400191505060405180910390fd5b600054610100900460ff16158015613125576000805460ff1961ff0019909116610100171660011790555b8151613139906101fa906020850190614373565b506131637fe8a3d485000000000000000000000000000000000000000000000000000000006139d0565b80156119ca576000805461ff00191690555050565b600054610100900460ff1680613191575061319161204c565b8061319f575060005460ff16155b6131da5760405162461bcd60e51b815260040180806020018281038252602e815260200180614fd5602e913960400191505060405180910390fd5b600054610100900460ff16158015613205576000805460ff1961ff0019909116610100171660011790555b825161321890609c906020860190614373565b50815161322c90609d906020850190614373565b506132567f80ac58cd000000000000000000000000000000000000000000000000000000006139d0565b61327f7f5b5e139f000000000000000000000000000000000000000000000000000000006139d0565b6132a87f780e9d63000000000000000000000000000000000000000000000000000000006139d0565b80156105fe576000805461ff0019169055505050565b73ffffffffffffffffffffffffffffffffffffffff8216600081815260c96020908152604091829020805460ff1916851515908117909155825190815291517f270dbb8ba4292910ae92862466486be25c355c837270a3d8824b36a8bc7c653b9281900390910190a25050565b60006108738383613b46565b81546000908190831061337b5760405162461bcd60e51b81526004018080602001828103825260228152602001806150256022913960400191505060405180910390fd5b600084600001848154811061338c57fe5b906000526020600020906002020190508060000154816001015492509250509250929050565b600082815260018401602052604081205482816134105760405162461bcd60e51b81526020600482018181528351602484015283519092839260449091019190850190808383600083156129d95781810151838201526020016129c1565b5084600001600182038154811061342357fe5b9060005260206000209060020201600101549150509392505050565b60006134608473ffffffffffffffffffffffffffffffffffffffff16612c53565b61346c57506001613648565b60006135e47f150b7a020000000000000000000000000000000000000000000000000000000061349a611672565b888787604051602401808573ffffffffffffffffffffffffffffffffffffffff1681526020018473ffffffffffffffffffffffffffffffffffffffff16815260200183815260200180602001828103825283818151815260200191508051906020019080838360005b8381101561351b578181015183820152602001613503565b50505050905090810190601f1680156135485780820380516001836020036101000a031916815260200191505b5095505050505050604051602081830303815290604052907bffffffffffffffffffffffffffffffffffffffffffffffffffffffff19166020820180517bffffffffffffffffffffffffffffffffffffffffffffffffffffffff8381831617835250505050604051806060016040528060328152602001614e5a6032913973ffffffffffffffffffffffffffffffffffffffff88169190613c1a565b905060008180602001905160208110156135fd57600080fd5b50517fffffffff00000000000000000000000000000000000000000000000000000000167f150b7a020000000000000000000000000000000000000000000000000000000014925050505b949350505050565b60009081526001919091016020526040902054151590565b6000613672613c29565b8260405160200180807f190100000000000000000000000000000000000000000000000000000000000081525060020183815260200182815260200192505050604051602081830303815290604052805190602001209050919050565b60008151604114613727576040805162461bcd60e51b815260206004820152601f60248201527f45434453413a20696e76616c6964207369676e6174757265206c656e67746800604482015290519081900360640190fd5b60208201516040830151606084015160001a61374586828585613c64565b9695505050505050565b6119ca8282613ec7565b600061376482611665565b61379f5760405162461bcd60e51b815260040180806020018281038252602c815260200180614f1e602c913960400191505060405180910390fd5b60006137aa83610a89565b90508073ffffffffffffffffffffffffffffffffffffffff168473ffffffffffffffffffffffffffffffffffffffff16148061381957508373ffffffffffffffffffffffffffffffffffffffff1661380184610485565b73ffffffffffffffffffffffffffffffffffffffff16145b8061364857506136488185611676565b600081815260018301602052604081205480156138e5578354600019808301919081019060009087908390811061385c57fe5b906000526020600020015490508087600001848154811061387957fe5b6000918252602080832090910192909255828152600189810190925260409020908401905586548790806138a957fe5b60019003818190600052602060002001600090559055866001016000878152602001908152602001600020600090556001945050505050610876565b6000915050610876565b60006138fb8383613650565b61393157508154600181810184556000848152602080822090930184905584548482528286019093526040902091909155610876565b506000610876565b60008281526001840160205260408120548061399e575050604080518082018252838152602080820184815286546001818101895560008981528481209551600290930290950191825591519082015586548684528188019092529290912055612206565b828560000160018303815481106139b157fe5b9060005260206000209060020201600101819055506000915050612206565b7fffffffff000000000000000000000000000000000000000000000000000000008082161415613a47576040805162461bcd60e51b815260206004820152601c60248201527f4552433136353a20696e76616c696420696e7465726661636520696400000000604482015290519081900360640190fd5b7fffffffff00000000000000000000000000000000000000000000000000000000166000908152606560205260409020805460ff19166001179055565b600054610100900460ff1680613a9d5750613a9d61204c565b80613aab575060005460ff16155b613ae65760405162461bcd60e51b815260040180806020018281038252602e815260200180614fd5602e913960400191505060405180910390fd5b600054610100900460ff16158015613b11576000805460ff1961ff0019909116610100171660011790555b825160208085019190912083519184019190912061012e9190915561012f5580156105fe576000805461ff0019169055505050565b600081815260018301602052604081205480156138e55783546000198083019190810190600090879083908110613b7957fe5b9060005260206000209060020201905080876000018481548110613b9957fe5b600091825260208083208454600290930201918255600193840154918401919091558354825289830190526040902090840190558654879080613bd857fe5b60008281526020808220600260001990940193840201828155600190810183905592909355888152898201909252604082209190915594506108769350505050565b606061220384846000856140a0565b600061060f7f8b73c3c69bb8fe3d512ecc4cf759cc79239f7b179b0ffacaa9a75d522b39400f613c57614226565b613c5f61422d565b614234565b60007f7fffffffffffffffffffffffffffffff5d576e7357a4501ddfe92f46681b20a0821115613cc55760405162461bcd60e51b8152600401808060200182810382526022815260200180614ed66022913960400191505060405180910390fd5b6000601e8560ff161115613d9f576004850360ff16601b1480613cee57506004850360ff16601c145b613d295760405162461bcd60e51b81526004018080602001828103825260228152602001806150036022913960400191505060405180910390fd5b6001613d34876142a3565b60048703868660405160008152602001604052604051808581526020018460ff1681526020018381526020018281526020019450505050506020604051602081039080840390855afa158015613d8e573d6000803e3d6000fd5b505050602060405103519050613e56565b8460ff16601b1480613db457508460ff16601c145b613def5760405162461bcd60e51b81526004018080602001828103825260228152602001806150036022913960400191505060405180910390fd5b60018686868660405160008152602001604052604051808581526020018460ff1681526020018381526020018281526020019450505050506020604051602081039080840390855afa158015613e49573d6000803e3d6000fd5b5050506020604051035190505b73ffffffffffffffffffffffffffffffffffffffff8116613ebe576040805162461bcd60e51b815260206004820152601860248201527f45434453413a20696e76616c6964207369676e61747572650000000000000000604482015290519081900360640190fd5b95945050505050565b73ffffffffffffffffffffffffffffffffffffffff8216613efa5760405162461bcd60e51b815260040161068c90614c54565b613f03816142f4565b15613f205760405162461bcd60e51b815260040161068c90614d1d565b613f2981611665565b15613f465760405162461bcd60e51b815260040161068c90614b7a565b613f52600083836105fe565b73ffffffffffffffffffffffffffffffffffffffff82166000908152609760205260409020613f819082612bc0565b50613f8e60988284612bcc565b50606081901c73ffffffffffffffffffffffffffffffffffffffff8316811461405657604051829073ffffffffffffffffffffffffffffffffffffffff8316906000907fddf252ad1be2c89b69c2b068fc378daa952ba7f163c4a11628f55a4df523b3ef908290a4818373ffffffffffffffffffffffffffffffffffffffff168273ffffffffffffffffffffffffffffffffffffffff167fddf252ad1be2c89b69c2b068fc378daa952ba7f163c4a11628f55a4df523b3ef60405160405180910390a46105fe565b604051829073ffffffffffffffffffffffffffffffffffffffff8516906000907fddf252ad1be2c89b69c2b068fc378daa952ba7f163c4a11628f55a4df523b3ef908290a4505050565b6060824710156140e15760405162461bcd60e51b8152600401808060200182810382526026815260200180614ef86026913960400191505060405180910390fd5b6140ea85612c53565b61413b576040805162461bcd60e51b815260206004820152601d60248201527f416464726573733a2063616c6c20746f206e6f6e2d636f6e7472616374000000604482015290519081900360640190fd5b6000808673ffffffffffffffffffffffffffffffffffffffff1685876040518082805190602001908083835b602083106141a457805182527fffffffffffffffffffffffffffffffffffffffffffffffffffffffffffffffe09092019160209182019101614167565b6001836020036101000a03801982511681845116808217855250505050505090500191505060006040518083038185875af1925050503d8060008114614206576040519150601f19603f3d011682016040523d82523d6000602084013e61420b565b606091505b509150915061421b828286614309565b979650505050505050565b61012e5490565b61012f5490565b600083838361424161436f565b30604051602001808681526020018581526020018481526020018381526020018273ffffffffffffffffffffffffffffffffffffffff168152602001955050505050506040516020818303038152906040528051906020012090509392505050565b604080517f19457468657265756d205369676e6564204d6573736167653a0a333200000000602080830191909152603c8083019490945282518083039094018452605c909101909152815191012090565b600090815260a0602052604090205460ff1690565b60608315614318575081612206565b8251156143285782518084602001fd5b60405162461bcd60e51b81526020600482018181528451602484015284518593919283926044019190850190808383600083156129d95781810151838201526020016129c1565b4690565b828054600181600116156101000203166002900490600052602060002090601f0160209004810192826143a957600085556143ef565b82601f106143c257805160ff19168380011785556143ef565b828001600101855582156143ef579182015b828111156143ef5782518255916020019190600101906143d4565b506143fb92915061443f565b5090565b50805460018160011615610100020316600290046000825580601f106144255750610a70565b601f016020900490600052602060002090810190610a7091905b5b808211156143fb5760008155600101614440565b80356103ea81614e15565b600082601f83011261446f578081fd5b8135602061448461447f83614df7565b614dd3565b82815281810190858301855b858110156144b9576144a7898684358b0101614587565b84529284019290840190600101614490565b5090979650505050505050565b600082601f8301126144d6578081fd5b813560206144e661447f83614df7565b82815281810190858301604080860288018501891015614504578687fd5b865b868110156145795781838b03121561451c578788fd5b815182810181811067ffffffffffffffff8211171561453757fe5b8352833561454481614e15565b8152838701356bffffffffffffffffffffffff8116811461456357898afd5b8188015285529385019391810191600101614506565b509198975050505050505050565b600082601f830112614597578081fd5b813567ffffffffffffffff8111156145ab57fe5b6145dc60207fffffffffffffffffffffffffffffffffffffffffffffffffffffffffffffffe0601f84011601614dd3565b8181528460208386010111156145f0578283fd5b816020850160208301379081016020019190915292915050565b600060a0828403121561461b578081fd5b61462560a0614dd3565b905081358152602082013567ffffffffffffffff8082111561464657600080fd5b61465285838601614587565b6020840152604084013591508082111561466b57600080fd5b614677858386016144c6565b6040840152606084013591508082111561469057600080fd5b61469c858386016144c6565b606084015260808401359150808211156146b557600080fd5b506146c28482850161445f565b60808301525092915050565b6000602082840312156146df578081fd5b813561087381614e15565b600080604083850312156146fc578081fd5b823561470781614e15565b9150602083013561471781614e15565b809150509250929050565b600080600060608486031215614736578081fd5b833561474181614e15565b9250602084013561475181614e15565b929592945050506040919091013590565b60008060008060808587031215614777578081fd5b843561478281614e15565b9350602085013561479281614e15565b925060408501359150606085013567ffffffffffffffff8111156147b4578182fd5b6147c087828801614587565b91505092959194509250565b600080604083850312156147de578182fd5b82356147e981614e15565b915060208301358015158114614717578182fd5b6000806040838503121561480f578182fd5b823561481a81614e15565b946020939093013593505050565b600060208284031215614839578081fd5b81357fffffffff0000000000000000000000000000000000000000000000000000000081168114610873578182fd5b60008060008060008060c08789031215614880578384fd5b863567ffffffffffffffff80821115614897578586fd5b6148a38a838b01614587565b975060208901359150808211156148b8578586fd5b6148c48a838b01614587565b965060408901359150808211156148d9578586fd5b6148e58a838b01614587565b955060608901359150808211156148fa578384fd5b5061490789828a01614587565b93505061491660808801614454565b915061492460a08801614454565b90509295509295509295565b60008060408385031215614942578182fd5b823567ffffffffffffffff811115614958578283fd5b6149648582860161460a565b925050602083013561471781614e15565b600080600060608486031215614989578081fd5b833567ffffffffffffffff81111561499f578182fd5b6149ab8682870161460a565b93505060208401356149bc81614e15565b915060408401356149cc81614e15565b809150509250925092565b6000602082840312156149e8578081fd5b5035919050565b600080600060608486031215614a03578081fd5b8335925060208401356149bc81614e15565b6000815180845260208085019450808401835b83811015614a73578151805173ffffffffffffffffffffffffffffffffffffffff1688528301516bffffffffffffffffffffffff168388015260409096019590820190600101614a28565b509495945050505050565b60008151808452815b81811015614aa357602081850181015186830182015201614a87565b81811115614ab45782602083870101525b50601f017fffffffffffffffffffffffffffffffffffffffffffffffffffffffffffffffe0169290920160200192915050565b73ffffffffffffffffffffffffffffffffffffffff91909116815260200190565b600073ffffffffffffffffffffffffffffffffffffffff8516825260606020830152614b376060830185614a7e565b82810360408401526137458185614a7e565b6000602082526108736020830184614a15565b901515815260200190565b6000602082526108736020830184614a7e565b6020808252601c908201527f4552433732313a20746f6b656e20616c7265616479206d696e74656400000000604082015260600190565b6020808252818101527f43726561746f722073686172652073686f756c6420626520706f736974697665604082015260600190565b60208082526011908201527f746f6b656e496420696e636f7272656374000000000000000000000000000000604082015260600190565b6020808252600b908201527f6e6f7420616c6c6f776564000000000000000000000000000000000000000000604082015260600190565b6020808252818101527f4552433732313a206d696e7420746f20746865207a65726f2061646472657373604082015260600190565b60208082526019908201527f4163636f756e742073686f756c642062652070726573656e7400000000000000604082015260600190565b60208082526031908201527f4552433732313a207472616e736665722063616c6c6572206973206e6f74206f60408201527f776e6572206e6f7220617070726f766564000000000000000000000000000000606082015260800190565b60208082526014908201527f746f6b656e20616c7265616479206275726e6564000000000000000000000000604082015260600190565b6020808252602e908201527f746f74616c20616d6f756e74206f662063726561746f7273207368617265207360408201527f686f756c64206265203130303030000000000000000000000000000000000000606082015260800190565b90815260200190565b6000838252604060208301526122036040830184614a15565b60405181810167ffffffffffffffff81118282101715614def57fe5b604052919050565b600067ffffffffffffffff821115614e0b57fe5b5060209081020190565b73ffffffffffffffffffffffffffffffffffffffff81168114610a7057600080fdfe456e756d657261626c655365743a20696e646578206f7574206f6620626f756e64734552433732313a207472616e7366657220746f206e6f6e20455243373231526563656976657220696d706c656d656e7465724f776e61626c653a206e6577206f776e657220697320746865207a65726f20616464726573734552433732313a207472616e7366657220746f20746865207a65726f206164647265737345434453413a20696e76616c6964207369676e6174757265202773272076616c7565416464726573733a20696e73756666696369656e742062616c616e636520666f722063616c6c4552433732313a206f70657261746f7220717565727920666f72206e6f6e6578697374656e7420746f6b656e4552433732313a20617070726f76652063616c6c6572206973206e6f74206f776e6572206e6f7220617070726f76656420666f7220616c6c4552433732313a2062616c616e636520717565727920666f7220746865207a65726f20616464726573734552433732313a206f776e657220717565727920666f72206e6f6e6578697374656e7420746f6b656e496e697469616c697a61626c653a20636f6e747261637420697320616c726561647920696e697469616c697a656445434453413a20696e76616c6964207369676e6174757265202776272076616c7565456e756d657261626c654d61703a20696e646578206f7574206f6620626f756e64734552433732314275726e61626c653a2063616c6c6572206973206e6f74206f776e65722c206e6f74206275726e4552433732313a20617070726f76656420717565727920666f72206e6f6e6578697374656e7420746f6b656e4552433732314d657461646174613a2055524920736574206f66206e6f6e6578697374656e7420746f6b656e4552433732313a207472616e73666572206f6620746f6b656e2074686174206973206e6f74206f776e4552433732314d657461646174613a2055524920717565727920666f72206e6f6e6578697374656e7420746f6b656e4552433732313a20617070726f76616c20746f2063757272656e74206f776e65724552433732313a207472616e736665722063616c6c6572206973206e6f74206f776e6572206e6f7220617070726f766564526f79616c747920746f74616c2076616c75652073686f756c64206265203c2031303030304552433732314275726e61626c653a2063616c6c6572206973206e6f74206f776e6572206e6f7220617070726f766564a2646970667358221220e8de5a7acea47fa83f13e7fc628242ccbd679294c96acf241dcae77888380dcf64736f6c63430007060033",
  "devdoc": {
    "kind": "dev",
    "methods": {
      "approve(address,uint256)": {
        "details": "See {IERC721-approve}."
      },
      "balanceOf(address)": {
        "details": "See {IERC721-balanceOf}."
      },
      "baseURI()": {
        "details": "Returns the base URI set via {_setBaseURI}. This will be automatically added as a prefix in {tokenURI} to each token's URI, or to the token ID if no specific URI is set for that token ID."
      },
      "burn(uint256)": {
        "details": "Burns `tokenId`. See {ERC721-_burn}. Requirements: - The caller must own `tokenId` or be an approved operator."
      },
      "getApproved(uint256)": {
        "details": "See {IERC721-getApproved}."
      },
      "name()": {
        "details": "See {IERC721Metadata-name}."
      },
      "owner()": {
        "details": "Returns the address of the current owner."
      },
      "ownerOf(uint256)": {
        "details": "See {IERC721-ownerOf}."
      },
      "renounceOwnership()": {
        "details": "Leaves the contract without owner. It will not be possible to call `onlyOwner` functions anymore. Can only be called by the current owner. NOTE: Renouncing ownership will leave the contract without an owner, thereby removing any functionality that is only available to the owner."
      },
      "safeTransferFrom(address,address,uint256)": {
        "details": "See {IERC721-safeTransferFrom}."
      },
      "safeTransferFrom(address,address,uint256,bytes)": {
        "details": "See {IERC721-safeTransferFrom}."
      },
      "setApprovalForAll(address,bool)": {
        "details": "See {IERC721-setApprovalForAll}."
      },
      "symbol()": {
        "details": "See {IERC721Metadata-symbol}."
      },
      "tokenByIndex(uint256)": {
        "details": "See {IERC721Enumerable-tokenByIndex}."
      },
      "tokenOfOwnerByIndex(address,uint256)": {
        "details": "See {IERC721Enumerable-tokenOfOwnerByIndex}."
      },
      "tokenURI(uint256)": {
        "details": "See {IERC721Metadata-tokenURI}."
      },
      "totalSupply()": {
        "details": "See {IERC721Enumerable-totalSupply}."
      },
      "transferFrom(address,address,uint256)": {
        "details": "See {IERC721-transferFrom}."
      },
      "transferOwnership(address)": {
        "details": "Transfers ownership of the contract to a new account (`newOwner`). Can only be called by the current owner."
      }
    },
    "version": 1
  },
  "userdoc": {
    "kind": "user",
    "methods": {},
    "version": 1
  },
  "storageLayout": {
    "storage": [
      {
        "astId": 812,
        "contract": "@rarible/tokens/contracts/erc-721/ERC721Rarible.sol:ERC721Rarible",
        "label": "_initialized",
        "offset": 0,
        "slot": "0",
        "type": "t_bool"
      },
      {
        "astId": 815,
        "contract": "@rarible/tokens/contracts/erc-721/ERC721Rarible.sol:ERC721Rarible",
        "label": "_initializing",
        "offset": 1,
        "slot": "0",
        "type": "t_bool"
      },
      {
        "astId": 1662,
        "contract": "@rarible/tokens/contracts/erc-721/ERC721Rarible.sol:ERC721Rarible",
        "label": "__gap",
        "offset": 0,
        "slot": "1",
        "type": "t_array(t_uint256)50_storage"
      },
      {
        "astId": 10,
        "contract": "@rarible/tokens/contracts/erc-721/ERC721Rarible.sol:ERC721Rarible",
        "label": "_owner",
        "offset": 0,
        "slot": "51",
        "type": "t_address"
      },
      {
        "astId": 129,
        "contract": "@rarible/tokens/contracts/erc-721/ERC721Rarible.sol:ERC721Rarible",
        "label": "__gap",
        "offset": 0,
        "slot": "52",
        "type": "t_array(t_uint256)49_storage"
      },
      {
        "astId": 307,
        "contract": "@rarible/tokens/contracts/erc-721/ERC721Rarible.sol:ERC721Rarible",
        "label": "_supportedInterfaces",
        "offset": 0,
        "slot": "101",
        "type": "t_mapping(t_bytes4,t_bool)"
      },
      {
        "astId": 364,
        "contract": "@rarible/tokens/contracts/erc-721/ERC721Rarible.sol:ERC721Rarible",
        "label": "__gap",
        "offset": 0,
        "slot": "102",
        "type": "t_array(t_uint256)49_storage"
      },
      {
        "astId": 15753,
        "contract": "@rarible/tokens/contracts/erc-721/ERC721Rarible.sol:ERC721Rarible",
        "label": "_holderTokens",
        "offset": 0,
        "slot": "151",
        "type": "t_mapping(t_address,t_struct(UintSet)2620_storage)"
      },
      {
        "astId": 15755,
        "contract": "@rarible/tokens/contracts/erc-721/ERC721Rarible.sol:ERC721Rarible",
        "label": "_tokenOwners",
        "offset": 0,
        "slot": "152",
        "type": "t_struct(UintToAddressMap)1997_storage"
      },
      {
        "astId": 15759,
        "contract": "@rarible/tokens/contracts/erc-721/ERC721Rarible.sol:ERC721Rarible",
        "label": "_tokenApprovals",
        "offset": 0,
        "slot": "154",
        "type": "t_mapping(t_uint256,t_address)"
      },
      {
        "astId": 15765,
        "contract": "@rarible/tokens/contracts/erc-721/ERC721Rarible.sol:ERC721Rarible",
        "label": "_operatorApprovals",
        "offset": 0,
        "slot": "155",
        "type": "t_mapping(t_address,t_mapping(t_address,t_bool))"
      },
      {
        "astId": 15767,
        "contract": "@rarible/tokens/contracts/erc-721/ERC721Rarible.sol:ERC721Rarible",
        "label": "_name",
        "offset": 0,
        "slot": "156",
        "type": "t_string_storage"
      },
      {
        "astId": 15769,
        "contract": "@rarible/tokens/contracts/erc-721/ERC721Rarible.sol:ERC721Rarible",
        "label": "_symbol",
        "offset": 0,
        "slot": "157",
        "type": "t_string_storage"
      },
      {
        "astId": 15773,
        "contract": "@rarible/tokens/contracts/erc-721/ERC721Rarible.sol:ERC721Rarible",
        "label": "_tokenURIs",
        "offset": 0,
        "slot": "158",
        "type": "t_mapping(t_uint256,t_string_storage)"
      },
      {
        "astId": 15775,
        "contract": "@rarible/tokens/contracts/erc-721/ERC721Rarible.sol:ERC721Rarible",
        "label": "_baseURI",
        "offset": 0,
        "slot": "159",
        "type": "t_string_storage"
      },
      {
        "astId": 15788,
        "contract": "@rarible/tokens/contracts/erc-721/ERC721Rarible.sol:ERC721Rarible",
        "label": "_burnedTokens",
        "offset": 0,
        "slot": "160",
        "type": "t_mapping(t_uint256,t_bool)"
      },
      {
        "astId": 16713,
        "contract": "@rarible/tokens/contracts/erc-721/ERC721Rarible.sol:ERC721Rarible",
        "label": "__gap",
        "offset": 0,
        "slot": "161",
        "type": "t_array(t_uint256)40_storage"
      },
      {
        "astId": 15045,
        "contract": "@rarible/tokens/contracts/erc-721/ERC721Rarible.sol:ERC721Rarible",
        "label": "defaultApprovals",
        "offset": 0,
        "slot": "201",
        "type": "t_mapping(t_address,t_bool)"
      },
      {
        "astId": 15116,
        "contract": "@rarible/tokens/contracts/erc-721/ERC721Rarible.sol:ERC721Rarible",
        "label": "__gap",
        "offset": 0,
        "slot": "202",
        "type": "t_array(t_uint256)50_storage"
      },
      {
        "astId": 15035,
        "contract": "@rarible/tokens/contracts/erc-721/ERC721Rarible.sol:ERC721Rarible",
        "label": "__gap",
        "offset": 0,
        "slot": "252",
        "type": "t_array(t_uint256)50_storage"
      },
      {
        "astId": 138,
        "contract": "@rarible/tokens/contracts/erc-721/ERC721Rarible.sol:ERC721Rarible",
        "label": "_HASHED_NAME",
        "offset": 0,
        "slot": "302",
        "type": "t_bytes32"
      },
      {
        "astId": 140,
        "contract": "@rarible/tokens/contracts/erc-721/ERC721Rarible.sol:ERC721Rarible",
        "label": "_HASHED_VERSION",
        "offset": 0,
        "slot": "303",
        "type": "t_bytes32"
      },
      {
        "astId": 289,
        "contract": "@rarible/tokens/contracts/erc-721/ERC721Rarible.sol:ERC721Rarible",
        "label": "__gap",
        "offset": 0,
        "slot": "304",
        "type": "t_array(t_uint256)50_storage"
      },
      {
        "astId": 13732,
        "contract": "@rarible/tokens/contracts/erc-721/ERC721Rarible.sol:ERC721Rarible",
        "label": "__gap",
        "offset": 0,
        "slot": "354",
        "type": "t_array(t_uint256)50_storage"
      },
      {
        "astId": 10252,
        "contract": "@rarible/tokens/contracts/erc-721/ERC721Rarible.sol:ERC721Rarible",
        "label": "__gap",
        "offset": 0,
        "slot": "404",
        "type": "t_array(t_uint256)50_storage"
      },
      {
        "astId": 9080,
        "contract": "@rarible/tokens/contracts/erc-721/ERC721Rarible.sol:ERC721Rarible",
        "label": "royalties",
        "offset": 0,
        "slot": "454",
        "type": "t_mapping(t_uint256,t_array(t_struct(Part)8909_storage)dyn_storage)"
      },
      {
        "astId": 15161,
        "contract": "@rarible/tokens/contracts/erc-721/ERC721Rarible.sol:ERC721Rarible",
        "label": "creators",
        "offset": 0,
        "slot": "455",
        "type": "t_mapping(t_uint256,t_array(t_struct(Part)8909_storage)dyn_storage)"
      },
      {
        "astId": 15589,
        "contract": "@rarible/tokens/contracts/erc-721/ERC721Rarible.sol:ERC721Rarible",
        "label": "__gap",
        "offset": 0,
        "slot": "456",
        "type": "t_array(t_uint256)50_storage"
      },
      {
        "astId": 10103,
        "contract": "@rarible/tokens/contracts/erc-721/ERC721Rarible.sol:ERC721Rarible",
        "label": "contractURI",
        "offset": 0,
        "slot": "506",
        "type": "t_string_storage"
      },
      {
        "astId": 10137,
        "contract": "@rarible/tokens/contracts/erc-721/ERC721Rarible.sol:ERC721Rarible",
        "label": "__gap",
        "offset": 0,
        "slot": "507",
        "type": "t_array(t_uint256)49_storage"
      },
      {
        "astId": 14949,
        "contract": "@rarible/tokens/contracts/erc-721/ERC721Rarible.sol:ERC721Rarible",
        "label": "__gap",
        "offset": 0,
        "slot": "556",
        "type": "t_array(t_uint256)50_storage"
      },
      {
        "astId": 15702,
        "contract": "@rarible/tokens/contracts/erc-721/ERC721Rarible.sol:ERC721Rarible",
        "label": "__gap",
        "offset": 0,
        "slot": "606",
        "type": "t_array(t_uint256)50_storage"
      }
    ],
    "types": {
      "t_address": {
        "encoding": "inplace",
        "label": "address",
        "numberOfBytes": "20"
      },
      "t_address_payable": {
        "encoding": "inplace",
        "label": "address payable",
        "numberOfBytes": "20"
      },
      "t_array(t_bytes32)dyn_storage": {
        "base": "t_bytes32",
        "encoding": "dynamic_array",
        "label": "bytes32[]",
        "numberOfBytes": "32"
      },
      "t_array(t_struct(MapEntry)1671_storage)dyn_storage": {
        "base": "t_struct(MapEntry)1671_storage",
        "encoding": "dynamic_array",
        "label": "struct EnumerableMapUpgradeable.MapEntry[]",
        "numberOfBytes": "32"
      },
      "t_array(t_struct(Part)8909_storage)dyn_storage": {
        "base": "t_struct(Part)8909_storage",
        "encoding": "dynamic_array",
        "label": "struct LibPart.Part[]",
        "numberOfBytes": "32"
      },
      "t_array(t_uint256)40_storage": {
        "base": "t_uint256",
        "encoding": "inplace",
        "label": "uint256[40]",
        "numberOfBytes": "1280"
      },
      "t_array(t_uint256)49_storage": {
        "base": "t_uint256",
        "encoding": "inplace",
        "label": "uint256[49]",
        "numberOfBytes": "1568"
      },
      "t_array(t_uint256)50_storage": {
        "base": "t_uint256",
        "encoding": "inplace",
        "label": "uint256[50]",
        "numberOfBytes": "1600"
      },
      "t_bool": {
        "encoding": "inplace",
        "label": "bool",
        "numberOfBytes": "1"
      },
      "t_bytes32": {
        "encoding": "inplace",
        "label": "bytes32",
        "numberOfBytes": "32"
      },
      "t_bytes4": {
        "encoding": "inplace",
        "label": "bytes4",
        "numberOfBytes": "4"
      },
      "t_mapping(t_address,t_bool)": {
        "encoding": "mapping",
        "key": "t_address",
        "label": "mapping(address => bool)",
        "numberOfBytes": "32",
        "value": "t_bool"
      },
      "t_mapping(t_address,t_mapping(t_address,t_bool))": {
        "encoding": "mapping",
        "key": "t_address",
        "label": "mapping(address => mapping(address => bool))",
        "numberOfBytes": "32",
        "value": "t_mapping(t_address,t_bool)"
      },
      "t_mapping(t_address,t_struct(UintSet)2620_storage)": {
        "encoding": "mapping",
        "key": "t_address",
        "label": "mapping(address => struct EnumerableSetUpgradeable.UintSet)",
        "numberOfBytes": "32",
        "value": "t_struct(UintSet)2620_storage"
      },
      "t_mapping(t_bytes32,t_uint256)": {
        "encoding": "mapping",
        "key": "t_bytes32",
        "label": "mapping(bytes32 => uint256)",
        "numberOfBytes": "32",
        "value": "t_uint256"
      },
      "t_mapping(t_bytes4,t_bool)": {
        "encoding": "mapping",
        "key": "t_bytes4",
        "label": "mapping(bytes4 => bool)",
        "numberOfBytes": "32",
        "value": "t_bool"
      },
      "t_mapping(t_uint256,t_address)": {
        "encoding": "mapping",
        "key": "t_uint256",
        "label": "mapping(uint256 => address)",
        "numberOfBytes": "32",
        "value": "t_address"
      },
      "t_mapping(t_uint256,t_array(t_struct(Part)8909_storage)dyn_storage)": {
        "encoding": "mapping",
        "key": "t_uint256",
        "label": "mapping(uint256 => struct LibPart.Part[])",
        "numberOfBytes": "32",
        "value": "t_array(t_struct(Part)8909_storage)dyn_storage"
      },
      "t_mapping(t_uint256,t_bool)": {
        "encoding": "mapping",
        "key": "t_uint256",
        "label": "mapping(uint256 => bool)",
        "numberOfBytes": "32",
        "value": "t_bool"
      },
      "t_mapping(t_uint256,t_string_storage)": {
        "encoding": "mapping",
        "key": "t_uint256",
        "label": "mapping(uint256 => string)",
        "numberOfBytes": "32",
        "value": "t_string_storage"
      },
      "t_string_storage": {
        "encoding": "bytes",
        "label": "string",
        "numberOfBytes": "32"
      },
      "t_struct(Map)1679_storage": {
        "encoding": "inplace",
        "label": "struct EnumerableMapUpgradeable.Map",
        "members": [
          {
            "astId": 1674,
            "contract": "@rarible/tokens/contracts/erc-721/ERC721Rarible.sol:ERC721Rarible",
            "label": "_entries",
            "offset": 0,
            "slot": "0",
            "type": "t_array(t_struct(MapEntry)1671_storage)dyn_storage"
          },
          {
            "astId": 1678,
            "contract": "@rarible/tokens/contracts/erc-721/ERC721Rarible.sol:ERC721Rarible",
            "label": "_indexes",
            "offset": 0,
            "slot": "1",
            "type": "t_mapping(t_bytes32,t_uint256)"
          }
        ],
        "numberOfBytes": "64"
      },
      "t_struct(MapEntry)1671_storage": {
        "encoding": "inplace",
        "label": "struct EnumerableMapUpgradeable.MapEntry",
        "members": [
          {
            "astId": 1668,
            "contract": "@rarible/tokens/contracts/erc-721/ERC721Rarible.sol:ERC721Rarible",
            "label": "_key",
            "offset": 0,
            "slot": "0",
            "type": "t_bytes32"
          },
          {
            "astId": 1670,
            "contract": "@rarible/tokens/contracts/erc-721/ERC721Rarible.sol:ERC721Rarible",
            "label": "_value",
            "offset": 0,
            "slot": "1",
            "type": "t_bytes32"
          }
        ],
        "numberOfBytes": "64"
      },
      "t_struct(Part)8909_storage": {
        "encoding": "inplace",
        "label": "struct LibPart.Part",
        "members": [
          {
            "astId": 8906,
            "contract": "@rarible/tokens/contracts/erc-721/ERC721Rarible.sol:ERC721Rarible",
            "label": "account",
            "offset": 0,
            "slot": "0",
            "type": "t_address_payable"
          },
          {
            "astId": 8908,
            "contract": "@rarible/tokens/contracts/erc-721/ERC721Rarible.sol:ERC721Rarible",
            "label": "value",
            "offset": 20,
            "slot": "0",
            "type": "t_uint96"
          }
        ],
        "numberOfBytes": "32"
      },
      "t_struct(Set)2234_storage": {
        "encoding": "inplace",
        "label": "struct EnumerableSetUpgradeable.Set",
        "members": [
          {
            "astId": 2229,
            "contract": "@rarible/tokens/contracts/erc-721/ERC721Rarible.sol:ERC721Rarible",
            "label": "_values",
            "offset": 0,
            "slot": "0",
            "type": "t_array(t_bytes32)dyn_storage"
          },
          {
            "astId": 2233,
            "contract": "@rarible/tokens/contracts/erc-721/ERC721Rarible.sol:ERC721Rarible",
            "label": "_indexes",
            "offset": 0,
            "slot": "1",
            "type": "t_mapping(t_bytes32,t_uint256)"
          }
        ],
        "numberOfBytes": "64"
      },
      "t_struct(UintSet)2620_storage": {
        "encoding": "inplace",
        "label": "struct EnumerableSetUpgradeable.UintSet",
        "members": [
          {
            "astId": 2619,
            "contract": "@rarible/tokens/contracts/erc-721/ERC721Rarible.sol:ERC721Rarible",
            "label": "_inner",
            "offset": 0,
            "slot": "0",
            "type": "t_struct(Set)2234_storage"
          }
        ],
        "numberOfBytes": "64"
      },
      "t_struct(UintToAddressMap)1997_storage": {
        "encoding": "inplace",
        "label": "struct EnumerableMapUpgradeable.UintToAddressMap",
        "members": [
          {
            "astId": 1996,
            "contract": "@rarible/tokens/contracts/erc-721/ERC721Rarible.sol:ERC721Rarible",
            "label": "_inner",
            "offset": 0,
            "slot": "0",
            "type": "t_struct(Map)1679_storage"
          }
        ],
        "numberOfBytes": "64"
      },
      "t_uint256": {
        "encoding": "inplace",
        "label": "uint256",
        "numberOfBytes": "32"
      },
      "t_uint96": {
        "encoding": "inplace",
        "label": "uint96",
        "numberOfBytes": "12"
      }
    }
  }
}