{
  "address": "0xB4B5c608Ed491e5445185d555f05ee0e8e1cC5A2",
  "abi": [
    {
      "anonymous": false,
      "inputs": [
        {
          "indexed": false,
          "internalType": "bytes32",
          "name": "hash",
          "type": "bytes32"
        },
        {
          "indexed": false,
          "internalType": "address",
          "name": "maker",
          "type": "address"
        },
        {
          "components": [
            {
              "internalType": "bytes4",
              "name": "assetClass",
              "type": "bytes4"
            },
            {
              "internalType": "bytes",
              "name": "data",
              "type": "bytes"
            }
          ],
          "indexed": false,
          "internalType": "struct LibAsset.AssetType",
          "name": "makeAssetType",
          "type": "tuple"
        },
        {
          "components": [
            {
              "internalType": "bytes4",
              "name": "assetClass",
              "type": "bytes4"
            },
            {
              "internalType": "bytes",
              "name": "data",
              "type": "bytes"
            }
          ],
          "indexed": false,
          "internalType": "struct LibAsset.AssetType",
          "name": "takeAssetType",
          "type": "tuple"
        }
      ],
      "name": "Cancel",
      "type": "event"
    },
    {
      "anonymous": false,
      "inputs": [
        {
          "indexed": false,
          "internalType": "bytes32",
          "name": "leftHash",
          "type": "bytes32"
        },
        {
          "indexed": false,
          "internalType": "bytes32",
          "name": "rightHash",
          "type": "bytes32"
        },
        {
          "indexed": false,
          "internalType": "address",
          "name": "leftMaker",
          "type": "address"
        },
        {
          "indexed": false,
          "internalType": "address",
          "name": "rightMaker",
          "type": "address"
        },
        {
          "indexed": false,
          "internalType": "uint256",
          "name": "newLeftFill",
          "type": "uint256"
        },
        {
          "indexed": false,
          "internalType": "uint256",
          "name": "newRightFill",
          "type": "uint256"
        },
        {
          "components": [
            {
              "internalType": "bytes4",
              "name": "assetClass",
              "type": "bytes4"
            },
            {
              "internalType": "bytes",
              "name": "data",
              "type": "bytes"
            }
          ],
          "indexed": false,
          "internalType": "struct LibAsset.AssetType",
          "name": "leftAsset",
          "type": "tuple"
        },
        {
          "components": [
            {
              "internalType": "bytes4",
              "name": "assetClass",
              "type": "bytes4"
            },
            {
              "internalType": "bytes",
              "name": "data",
              "type": "bytes"
            }
          ],
          "indexed": false,
          "internalType": "struct LibAsset.AssetType",
          "name": "rightAsset",
          "type": "tuple"
        }
      ],
      "name": "Match",
      "type": "event"
    },
    {
      "anonymous": false,
      "inputs": [
        {
          "indexed": true,
          "internalType": "bytes4",
          "name": "assetType",
          "type": "bytes4"
        },
        {
          "indexed": false,
          "internalType": "address",
          "name": "matcher",
          "type": "address"
        }
      ],
      "name": "MatcherChange",
      "type": "event"
    },
    {
      "anonymous": false,
      "inputs": [
        {
          "indexed": true,
          "internalType": "address",
          "name": "previousOwner",
          "type": "address"
        },
        {
          "indexed": true,
          "internalType": "address",
          "name": "newOwner",
          "type": "address"
        }
      ],
      "name": "OwnershipTransferred",
      "type": "event"
    },
    {
      "anonymous": false,
      "inputs": [
        {
          "indexed": true,
          "internalType": "bytes4",
          "name": "assetType",
          "type": "bytes4"
        },
        {
          "indexed": false,
          "internalType": "address",
          "name": "proxy",
          "type": "address"
        }
      ],
      "name": "ProxyChange",
      "type": "event"
    },
    {
      "anonymous": false,
      "inputs": [
        {
          "components": [
            {
              "components": [
                {
                  "internalType": "bytes4",
                  "name": "assetClass",
                  "type": "bytes4"
                },
                {
                  "internalType": "bytes",
                  "name": "data",
                  "type": "bytes"
                }
              ],
              "internalType": "struct LibAsset.AssetType",
              "name": "assetType",
              "type": "tuple"
            },
            {
              "internalType": "uint256",
              "name": "value",
              "type": "uint256"
            }
          ],
          "indexed": false,
          "internalType": "struct LibAsset.Asset",
          "name": "asset",
          "type": "tuple"
        },
        {
          "indexed": false,
          "internalType": "address",
          "name": "from",
          "type": "address"
        },
        {
          "indexed": false,
          "internalType": "address",
          "name": "to",
          "type": "address"
        },
        {
          "indexed": false,
          "internalType": "bytes4",
          "name": "transferDirection",
          "type": "bytes4"
        },
        {
          "indexed": false,
          "internalType": "bytes4",
          "name": "transferType",
          "type": "bytes4"
        }
      ],
      "name": "Transfer",
      "type": "event"
    },
    {
      "inputs": [
        {
          "internalType": "contract INftTransferProxy",
          "name": "_transferProxy",
          "type": "address"
        },
        {
          "internalType": "contract IERC20TransferProxy",
          "name": "_erc20TransferProxy",
          "type": "address"
        },
        {
          "internalType": "uint256",
          "name": "newProtocolFee",
          "type": "uint256"
        },
        {
          "internalType": "address",
          "name": "newDefaultFeeReceiver",
          "type": "address"
        },
        {
          "internalType": "contract IRoyaltiesProvider",
          "name": "newRoyaltiesProvider",
          "type": "address"
        }
      ],
      "name": "__Exchange_init",
      "outputs": [],
      "stateMutability": "nonpayable",
      "type": "function"
    },
    {
      "inputs": [
        {
          "components": [
            {
              "internalType": "address",
              "name": "maker",
              "type": "address"
            },
            {
              "components": [
                {
                  "components": [
                    {
                      "internalType": "bytes4",
                      "name": "assetClass",
                      "type": "bytes4"
                    },
                    {
                      "internalType": "bytes",
                      "name": "data",
                      "type": "bytes"
                    }
                  ],
                  "internalType": "struct LibAsset.AssetType",
                  "name": "assetType",
                  "type": "tuple"
                },
                {
                  "internalType": "uint256",
                  "name": "value",
                  "type": "uint256"
                }
              ],
              "internalType": "struct LibAsset.Asset",
              "name": "makeAsset",
              "type": "tuple"
            },
            {
              "internalType": "address",
              "name": "taker",
              "type": "address"
            },
            {
              "components": [
                {
                  "components": [
                    {
                      "internalType": "bytes4",
                      "name": "assetClass",
                      "type": "bytes4"
                    },
                    {
                      "internalType": "bytes",
                      "name": "data",
                      "type": "bytes"
                    }
                  ],
                  "internalType": "struct LibAsset.AssetType",
                  "name": "assetType",
                  "type": "tuple"
                },
                {
                  "internalType": "uint256",
                  "name": "value",
                  "type": "uint256"
                }
              ],
              "internalType": "struct LibAsset.Asset",
              "name": "takeAsset",
              "type": "tuple"
            },
            {
              "internalType": "uint256",
              "name": "salt",
              "type": "uint256"
            },
            {
              "internalType": "uint256",
              "name": "start",
              "type": "uint256"
            },
            {
              "internalType": "uint256",
              "name": "end",
              "type": "uint256"
            },
            {
              "internalType": "bytes4",
              "name": "dataType",
              "type": "bytes4"
            },
            {
              "internalType": "bytes",
              "name": "data",
              "type": "bytes"
            }
          ],
          "internalType": "struct LibOrder.Order",
          "name": "order",
          "type": "tuple"
        }
      ],
      "name": "cancel",
      "outputs": [],
      "stateMutability": "nonpayable",
      "type": "function"
    },
    {
      "inputs": [],
      "name": "defaultFeeReceiver",
      "outputs": [
        {
          "internalType": "address",
          "name": "",
          "type": "address"
        }
      ],
      "stateMutability": "view",
      "type": "function"
    },
    {
      "inputs": [
        {
          "internalType": "address",
          "name": "",
          "type": "address"
        }
      ],
      "name": "feeReceivers",
      "outputs": [
        {
          "internalType": "address",
          "name": "",
          "type": "address"
        }
      ],
      "stateMutability": "view",
      "type": "function"
    },
    {
      "inputs": [
        {
          "internalType": "bytes32",
          "name": "",
          "type": "bytes32"
        }
      ],
      "name": "fills",
      "outputs": [
        {
          "internalType": "uint256",
          "name": "",
          "type": "uint256"
        }
      ],
      "stateMutability": "view",
      "type": "function"
    },
    {
      "inputs": [
        {
          "components": [
            {
              "internalType": "address",
              "name": "maker",
              "type": "address"
            },
            {
              "components": [
                {
                  "components": [
                    {
                      "internalType": "bytes4",
                      "name": "assetClass",
                      "type": "bytes4"
                    },
                    {
                      "internalType": "bytes",
                      "name": "data",
                      "type": "bytes"
                    }
                  ],
                  "internalType": "struct LibAsset.AssetType",
                  "name": "assetType",
                  "type": "tuple"
                },
                {
                  "internalType": "uint256",
                  "name": "value",
                  "type": "uint256"
                }
              ],
              "internalType": "struct LibAsset.Asset",
              "name": "makeAsset",
              "type": "tuple"
            },
            {
              "internalType": "address",
              "name": "taker",
              "type": "address"
            },
            {
              "components": [
                {
                  "components": [
                    {
                      "internalType": "bytes4",
                      "name": "assetClass",
                      "type": "bytes4"
                    },
                    {
                      "internalType": "bytes",
                      "name": "data",
                      "type": "bytes"
                    }
                  ],
                  "internalType": "struct LibAsset.AssetType",
                  "name": "assetType",
                  "type": "tuple"
                },
                {
                  "internalType": "uint256",
                  "name": "value",
                  "type": "uint256"
                }
              ],
              "internalType": "struct LibAsset.Asset",
              "name": "takeAsset",
              "type": "tuple"
            },
            {
              "internalType": "uint256",
              "name": "salt",
              "type": "uint256"
            },
            {
              "internalType": "uint256",
              "name": "start",
              "type": "uint256"
            },
            {
              "internalType": "uint256",
              "name": "end",
              "type": "uint256"
            },
            {
              "internalType": "bytes4",
              "name": "dataType",
              "type": "bytes4"
            },
            {
              "internalType": "bytes",
              "name": "data",
              "type": "bytes"
            }
          ],
          "internalType": "struct LibOrder.Order",
          "name": "orderLeft",
          "type": "tuple"
        },
        {
          "internalType": "bytes",
          "name": "signatureLeft",
          "type": "bytes"
        },
        {
          "components": [
            {
              "internalType": "address",
              "name": "maker",
              "type": "address"
            },
            {
              "components": [
                {
                  "components": [
                    {
                      "internalType": "bytes4",
                      "name": "assetClass",
                      "type": "bytes4"
                    },
                    {
                      "internalType": "bytes",
                      "name": "data",
                      "type": "bytes"
                    }
                  ],
                  "internalType": "struct LibAsset.AssetType",
                  "name": "assetType",
                  "type": "tuple"
                },
                {
                  "internalType": "uint256",
                  "name": "value",
                  "type": "uint256"
                }
              ],
              "internalType": "struct LibAsset.Asset",
              "name": "makeAsset",
              "type": "tuple"
            },
            {
              "internalType": "address",
              "name": "taker",
              "type": "address"
            },
            {
              "components": [
                {
                  "components": [
                    {
                      "internalType": "bytes4",
                      "name": "assetClass",
                      "type": "bytes4"
                    },
                    {
                      "internalType": "bytes",
                      "name": "data",
                      "type": "bytes"
                    }
                  ],
                  "internalType": "struct LibAsset.AssetType",
                  "name": "assetType",
                  "type": "tuple"
                },
                {
                  "internalType": "uint256",
                  "name": "value",
                  "type": "uint256"
                }
              ],
              "internalType": "struct LibAsset.Asset",
              "name": "takeAsset",
              "type": "tuple"
            },
            {
              "internalType": "uint256",
              "name": "salt",
              "type": "uint256"
            },
            {
              "internalType": "uint256",
              "name": "start",
              "type": "uint256"
            },
            {
              "internalType": "uint256",
              "name": "end",
              "type": "uint256"
            },
            {
              "internalType": "bytes4",
              "name": "dataType",
              "type": "bytes4"
            },
            {
              "internalType": "bytes",
              "name": "data",
              "type": "bytes"
            }
          ],
          "internalType": "struct LibOrder.Order",
          "name": "orderRight",
          "type": "tuple"
        },
        {
          "internalType": "bytes",
          "name": "signatureRight",
          "type": "bytes"
        }
      ],
      "name": "matchOrders",
      "outputs": [],
      "stateMutability": "payable",
      "type": "function"
    },
    {
      "inputs": [],
      "name": "owner",
      "outputs": [
        {
          "internalType": "address",
          "name": "",
          "type": "address"
        }
      ],
      "stateMutability": "view",
      "type": "function"
    },
    {
      "inputs": [],
      "name": "protocolFee",
      "outputs": [
        {
          "internalType": "uint256",
          "name": "",
          "type": "uint256"
        }
      ],
      "stateMutability": "view",
      "type": "function"
    },
    {
      "inputs": [],
      "name": "renounceOwnership",
      "outputs": [],
      "stateMutability": "nonpayable",
      "type": "function"
    },
    {
      "inputs": [],
      "name": "royaltiesRegistry",
      "outputs": [
        {
          "internalType": "contract IRoyaltiesProvider",
          "name": "",
          "type": "address"
        }
      ],
      "stateMutability": "view",
      "type": "function"
    },
    {
      "inputs": [
        {
          "internalType": "bytes4",
          "name": "assetType",
          "type": "bytes4"
        },
        {
          "internalType": "address",
          "name": "matcher",
          "type": "address"
        }
      ],
      "name": "setAssetMatcher",
      "outputs": [],
      "stateMutability": "nonpayable",
      "type": "function"
    },
    {
      "inputs": [
        {
          "internalType": "address payable",
          "name": "newDefaultFeeReceiver",
          "type": "address"
        }
      ],
      "name": "setDefaultFeeReceiver",
      "outputs": [],
      "stateMutability": "nonpayable",
      "type": "function"
    },
    {
      "inputs": [
        {
          "internalType": "address",
          "name": "token",
          "type": "address"
        },
        {
          "internalType": "address",
          "name": "wallet",
          "type": "address"
        }
      ],
      "name": "setFeeReceiver",
      "outputs": [],
      "stateMutability": "nonpayable",
      "type": "function"
    },
    {
      "inputs": [
        {
          "internalType": "uint256",
          "name": "newProtocolFee",
          "type": "uint256"
        }
      ],
      "name": "setProtocolFee",
      "outputs": [],
      "stateMutability": "nonpayable",
      "type": "function"
    },
    {
      "inputs": [
        {
          "internalType": "contract IRoyaltiesProvider",
          "name": "newRoyaltiesRegistry",
          "type": "address"
        }
      ],
      "name": "setRoyaltiesRegistry",
      "outputs": [],
      "stateMutability": "nonpayable",
      "type": "function"
    },
    {
      "inputs": [
        {
          "internalType": "bytes4",
          "name": "assetType",
          "type": "bytes4"
        },
        {
          "internalType": "address",
          "name": "proxy",
          "type": "address"
        }
      ],
      "name": "setTransferProxy",
      "outputs": [],
      "stateMutability": "nonpayable",
      "type": "function"
    },
    {
      "inputs": [
        {
          "internalType": "address",
          "name": "newOwner",
          "type": "address"
        }
      ],
      "name": "transferOwnership",
      "outputs": [],
      "stateMutability": "nonpayable",
      "type": "function"
    }
  ],
  "transactionHash": "0xd4339407f48578b7dc36f8ae15f59a1f5936d794b5e70637def0a8889bec3edf",
  "args": [],
  "numDeployments": 1,
  "solcInputHash": "5984c7f03812587892acb97832768254",
  "bytecode": "0x608060405234801561001057600080fd5b506154bb806100206000396000f3fe60806040526004361061010e5760003560e01c8063787dce3d116100a5578063b39deb4611610074578063e66db25e11610059578063e66db25e146102c1578063e99a3f80146102e1578063f2fde38b146102f45761010e565b8063b39deb4614610281578063e2864fe3146102a15761010e565b8063787dce3d146102175780637ed4bc4e146102375780638da5cb5b14610257578063b0e21e8a1461026c5761010e565b80633abf6fd4116100e15780633abf6fd4146101b85780633be89922146101cd5780636d8f0694146101ed578063715018a6146102025761010e565b806302097ab1146101135780631cdfe3d81461014957806320158c441461016b57806330c642f114610198575b600080fd5b34801561011f57600080fd5b5061013361012e36600461474f565b610314565b6040516101409190614d74565b60405180910390f35b34801561015557600080fd5b5061016961016436600461474f565b61033d565b005b34801561017757600080fd5b5061018b610186366004614a11565b610413565b6040516101409190615278565b3480156101a457600080fd5b506101696101b3366004614a29565b610426565b3480156101c457600080fd5b5061013361055f565b3480156101d957600080fd5b506101696101e836600461474f565b61057c565b3480156101f957600080fd5b50610133610652565b34801561020e57600080fd5b5061016961066f565b34801561022357600080fd5b50610169610232366004614a11565b61076c565b34801561024357600080fd5b50610169610252366004614a46565b610800565b34801561026357600080fd5b5061013361092c565b34801561027857600080fd5b5061018b610948565b34801561028d57600080fd5b5061016961029c366004614a29565b61094f565b3480156102ad57600080fd5b506101696102bc366004614bf0565b610a7c565b3480156102cd57600080fd5b506101696102dc3660046149a6565b610b87565b6101696102ef366004614c23565b610c69565b34801561030057600080fd5b5061016961030f36600461474f565b610d73565b6101646020526000908152604090205473ffffffffffffffffffffffffffffffffffffffff1681565b610345610ee1565b73ffffffffffffffffffffffffffffffffffffffff1661036361092c565b73ffffffffffffffffffffffffffffffffffffffff16146103cb576040805162461bcd60e51b815260206004820181905260248201527f4f776e61626c653a2063616c6c6572206973206e6f7420746865206f776e6572604482015290519081900360640190fd5b61016380547fffffffffffffffffffffffff00000000000000000000000000000000000000001673ffffffffffffffffffffffffffffffffffffffff92909216919091179055565b61012f6020526000908152604090205481565b61042e610ee1565b73ffffffffffffffffffffffffffffffffffffffff1661044c61092c565b73ffffffffffffffffffffffffffffffffffffffff16146104b4576040805162461bcd60e51b815260206004820181905260248201527f4f776e61626c653a2063616c6c6572206973206e6f7420746865206f776e6572604482015290519081900360640190fd5b7fffffffff0000000000000000000000000000000000000000000000000000000082166000818152609760205260409081902080547fffffffffffffffffffffffff00000000000000000000000000000000000000001673ffffffffffffffffffffffffffffffffffffffff8516179055517f4b5aced933c0c9a88aeac3f0b3b72c5aaf75df8ebaf53225773248c4c315359390610553908490614d74565b60405180910390a25050565b6101635473ffffffffffffffffffffffffffffffffffffffff1681565b610584610ee1565b73ffffffffffffffffffffffffffffffffffffffff166105a261092c565b73ffffffffffffffffffffffffffffffffffffffff161461060a576040805162461bcd60e51b815260206004820181905260248201527f4f776e61626c653a2063616c6c6572206973206e6f7420746865206f776e6572604482015290519081900360640190fd5b61016280547fffffffffffffffffffffffff00000000000000000000000000000000000000001673ffffffffffffffffffffffffffffffffffffffff92909216919091179055565b6101625473ffffffffffffffffffffffffffffffffffffffff1681565b610677610ee1565b73ffffffffffffffffffffffffffffffffffffffff1661069561092c565b73ffffffffffffffffffffffffffffffffffffffff16146106fd576040805162461bcd60e51b815260206004820181905260248201527f4f776e61626c653a2063616c6c6572206973206e6f7420746865206f776e6572604482015290519081900360640190fd5b60335460405160009173ffffffffffffffffffffffffffffffffffffffff16907f8be0079c531659141344cd1fd0a4f28419497f9722a3daafe3b4186f6b6457e0908390a3603380547fffffffffffffffffffffffff0000000000000000000000000000000000000000169055565b610774610ee1565b73ffffffffffffffffffffffffffffffffffffffff1661079261092c565b73ffffffffffffffffffffffffffffffffffffffff16146107fa576040805162461bcd60e51b815260206004820181905260248201527f4f776e61626c653a2063616c6c6572206973206e6f7420746865206f776e6572604482015290519081900360640190fd5b61016155565b600054610100900460ff16806108195750610819610ee5565b80610827575060005460ff16155b6108625760405162461bcd60e51b815260040180806020018281038252602e815260200180615415602e913960400191505060405180910390fd5b600054610100900460ff161580156108c857600080547fffffffffffffffffffffffffffffffffffffffffffffffffffffffffffffff007fffffffffffffffffffffffffffffffffffffffffffffffffffffffffffff00ff909116610100171660011790555b6108d0610ef6565b6108d8610ff0565b6108e28686611166565b6108ed84848461124e565b6108f56113a7565b801561092457600080547fffffffffffffffffffffffffffffffffffffffffffffffffffffffffffff00ff1690555b505050505050565b60335473ffffffffffffffffffffffffffffffffffffffff1690565b6101615481565b610957610ee1565b73ffffffffffffffffffffffffffffffffffffffff1661097561092c565b73ffffffffffffffffffffffffffffffffffffffff16146109dd576040805162461bcd60e51b815260206004820181905260248201527f4f776e61626c653a2063616c6c6572206973206e6f7420746865206f776e6572604482015290519081900360640190fd5b7fffffffff0000000000000000000000000000000000000000000000000000000082166000818152606560205260409081902080547fffffffffffffffffffffffff00000000000000000000000000000000000000001673ffffffffffffffffffffffffffffffffffffffff8516179055517fd2bf91075f105d0fd80328da28e20ebdad1c1261839711183bc29a44cbe6c72f90610553908490614d74565b805173ffffffffffffffffffffffffffffffffffffffff16610a9c610ee1565b73ffffffffffffffffffffffffffffffffffffffff1614610ad85760405162461bcd60e51b8152600401610acf9061516c565b60405180910390fd5b6080810151610af95760405162461bcd60e51b8152600401610acf90614f68565b6000610b04826114e3565b600081815261012f60209081526040918290207fffffffffffffffffffffffffffffffffffffffffffffffffffffffffffffffff90558451908501515160608601515192519394507fbbdc98cb2835f4f846e6a63700d0498b4674f0e8858fd50c6379314227afa04e93610b7b9386939291614dbb565b60405180910390a15050565b610b8f610ee1565b73ffffffffffffffffffffffffffffffffffffffff16610bad61092c565b73ffffffffffffffffffffffffffffffffffffffff1614610c15576040805162461bcd60e51b815260206004820181905260248201527f4f776e61626c653a2063616c6c6572206973206e6f7420746865206f776e6572604482015290519081900360640190fd5b73ffffffffffffffffffffffffffffffffffffffff91821660009081526101646020526040902080547fffffffffffffffffffffffff00000000000000000000000000000000000000001691909216179055565b610c7384846115d4565b610c7d82826115d4565b604084015173ffffffffffffffffffffffffffffffffffffffff1615610cf057836040015173ffffffffffffffffffffffffffffffffffffffff16826000015173ffffffffffffffffffffffffffffffffffffffff1614610cf05760405162461bcd60e51b8152600401610acf906150d8565b604082015173ffffffffffffffffffffffffffffffffffffffff1615610d6357836000015173ffffffffffffffffffffffffffffffffffffffff16826040015173ffffffffffffffffffffffffffffffffffffffff1614610d635760405162461bcd60e51b8152600401610acf90614f9f565b610d6d84836115eb565b50505050565b610d7b610ee1565b73ffffffffffffffffffffffffffffffffffffffff16610d9961092c565b73ffffffffffffffffffffffffffffffffffffffff1614610e01576040805162461bcd60e51b815260206004820181905260248201527f4f776e61626c653a2063616c6c6572206973206e6f7420746865206f776e6572604482015290519081900360640190fd5b73ffffffffffffffffffffffffffffffffffffffff8116610e535760405162461bcd60e51b81526004018080602001828103825260268152602001806153806026913960400191505060405180910390fd5b60335460405173ffffffffffffffffffffffffffffffffffffffff8084169216907f8be0079c531659141344cd1fd0a4f28419497f9722a3daafe3b4186f6b6457e090600090a3603380547fffffffffffffffffffffffff00000000000000000000000000000000000000001673ffffffffffffffffffffffffffffffffffffffff92909216919091179055565b3390565b6000610ef030611817565b15905090565b600054610100900460ff1680610f0f5750610f0f610ee5565b80610f1d575060005460ff16155b610f585760405162461bcd60e51b815260040180806020018281038252602e815260200180615415602e913960400191505060405180910390fd5b600054610100900460ff16158015610fbe57600080547fffffffffffffffffffffffffffffffffffffffffffffffffffffffffffffff007fffffffffffffffffffffffffffffffffffffffffffffffffffffffffffff00ff909116610100171660011790555b8015610fed57600080547fffffffffffffffffffffffffffffffffffffffffffffffffffffffffffff00ff1690555b50565b600054610100900460ff16806110095750611009610ee5565b80611017575060005460ff16155b6110525760405162461bcd60e51b815260040180806020018281038252602e815260200180615415602e913960400191505060405180910390fd5b600054610100900460ff161580156110b857600080547fffffffffffffffffffffffffffffffffffffffffffffffffffffffffffffff007fffffffffffffffffffffffffffffffffffffffffffffffffffffffffffff00ff909116610100171660011790555b60006110c2610ee1565b603380547fffffffffffffffffffffffff00000000000000000000000000000000000000001673ffffffffffffffffffffffffffffffffffffffff8316908117909155604051919250906000907f8be0079c531659141344cd1fd0a4f28419497f9722a3daafe3b4186f6b6457e0908290a3508015610fed57600080547fffffffffffffffffffffffffffffffffffffffffffffffffffffffffffff00ff16905550565b60976020527f4532fa16f071d6234e30e1a1e69b9806f04095edf37a1ca7a25c8d6af7861cc0805473ffffffffffffffffffffffffffffffffffffffff9283167fffffffffffffffffffffffff0000000000000000000000000000000000000000918216179091557f30a684095c937b5aa064dcf94f9903a7d808e3efb22d8389dbd43080ad4ed3d580549390921692811683179091557f973bb640000000000000000000000000000000000000000000000000000000006000527f4b5822151ea34b7c8d9e37c3e466bcecb631efe6a9f26a4a4054110a93dd316f80549091169091179055565b600054610100900460ff16806112675750611267610ee5565b80611275575060005460ff16155b6112b05760405162461bcd60e51b815260040180806020018281038252602e815260200180615415602e913960400191505060405180910390fd5b600054610100900460ff1615801561131657600080547fffffffffffffffffffffffffffffffffffffffffffffffffffffffffffffff007fffffffffffffffffffffffffffffffffffffffffffffffffffffffffffff00ff909116610100171660011790555b610161849055610163805473ffffffffffffffffffffffffffffffffffffffff8086167fffffffffffffffffffffffff0000000000000000000000000000000000000000928316179092556101628054928516929091169190911790558015610d6d57600080547fffffffffffffffffffffffffffffffffffffffffffffffffffffffffffff00ff16905550505050565b600054610100900460ff16806113c057506113c0610ee5565b806113ce575060005460ff16155b6114095760405162461bcd60e51b815260040180806020018281038252602e815260200180615415602e913960400191505060405180910390fd5b600054610100900460ff1615801561146f57600080547fffffffffffffffffffffffffffffffffffffffffffffffffffffffffffffff007fffffffffffffffffffffffffffffffffffffffffffffffffffffffffffff00ff909116610100171660011790555b610fbe6040518060400160405280600881526020017f45786368616e67650000000000000000000000000000000000000000000000008152506040518060400160405280600181526020017f320000000000000000000000000000000000000000000000000000000000000081525061181d565b8051602082015151600091906114f890611936565b60608401515161150790611936565b8460800151856101000151604051602001808673ffffffffffffffffffffffffffffffffffffffff16815260200185815260200184815260200183815260200180602001828103825283818151815260200191508051906020019080838360005b83811015611580578181015183820152602001611568565b50505050905090810190601f1680156115ad5780820380516001836020036101000a031916815260200191505b5096505050505050506040516020818303038152906040528051906020012090505b919050565b6115dd826119b8565b6115e78282611a82565b5050565b6000806115f88484611db8565b915091506000611607856114e3565b90506000611614856114e3565b9050600061162187611e81565b9050600061162e87611e81565b90506000611640898987878787611f86565b90506000806116548989858e8e8a8a6120b1565b8a5191935091507fffffffff00000000000000000000000000000000000000000000000000000000167faaaebeba0000000000000000000000000000000000000000000000000000000014156117355787517fffffffff00000000000000000000000000000000000000000000000000000000167faaaebeba0000000000000000000000000000000000000000000000000000000014156116f457600080fd5b813410156117145760405162461bcd60e51b8152600401610acf90615135565b81341115611730576117306117293484612259565b33906122bb565b6117b5565b87517fffffffff00000000000000000000000000000000000000000000000000000000167faaaebeba0000000000000000000000000000000000000000000000000000000014156117b557803410156117a05760405162461bcd60e51b8152600401610acf90615135565b803411156117b5576117b56117293483612259565b7f268820db288a211986b26a8fda86b1e0046281b21206936bb0e61c67b5c79ef487878d600001518d60000151876020015188600001518f8f604051611802989796959493929190614e0d565b60405180910390a15050505050505050505050565b3b151590565b600054610100900460ff16806118365750611836610ee5565b80611844575060005460ff16155b61187f5760405162461bcd60e51b815260040180806020018281038252602e815260200180615415602e913960400191505060405180910390fd5b600054610100900460ff161580156118e557600080547fffffffffffffffffffffffffffffffffffffffffffffffffffffffffffffff007fffffffffffffffffffffffffffffffffffffffffffffffffffffffffffff00ff909116610100171660011790555b825160208085019190912083519184019190912060c99190915560ca55801561193157600080547fffffffffffffffffffffffffffffffffffffffffffffffffffffffffffff00ff1690555b505050565b8051602091820151805190830120604080517f452a0dc408cb0d27ffc3b3caff933a5208040a53a9dbecd8d89cad2c0d40e00c818601527fffffffff0000000000000000000000000000000000000000000000000000000090931683820152606080840192909252805180840390920182526080909201909152805191012090565b60a081015115806119cc5750428160a00151105b611a1d576040805162461bcd60e51b815260206004820152601d60248201527f4f726465722073746172742076616c69646174696f6e206661696c6564000000604482015290519081900360640190fd5b60c08101511580611a315750428160c00151115b610fed576040805162461bcd60e51b815260206004820152601b60248201527f4f7264657220656e642076616c69646174696f6e206661696c65640000000000604482015290519081900360640190fd5b6080820151611b5b57815173ffffffffffffffffffffffffffffffffffffffff1615611b3557815173ffffffffffffffffffffffffffffffffffffffff16611ac8610ee1565b73ffffffffffffffffffffffffffffffffffffffff1614611b30576040805162461bcd60e51b815260206004820152601660248201527f6d616b6572206973206e6f742074782073656e64657200000000000000000000604482015290519081900360640190fd5b611b56565b611b3d610ee1565b73ffffffffffffffffffffffffffffffffffffffff1682525b6115e7565b815173ffffffffffffffffffffffffffffffffffffffff16611b7b610ee1565b73ffffffffffffffffffffffffffffffffffffffff16146115e7576000611ba18361236e565b90506000825160411415611bc557611bc283611bbc8461248d565b906124f4565b90505b835173ffffffffffffffffffffffffffffffffffffffff828116911614610d6d578351611c079073ffffffffffffffffffffffffffffffffffffffff16611817565b15611d815783517f1626ba7e000000000000000000000000000000000000000000000000000000009073ffffffffffffffffffffffffffffffffffffffff16631626ba7e611c548561248d565b866040518363ffffffff1660e01b81526004018083815260200180602001828103825283818151815260200191508051906020019080838360005b83811015611ca7578181015183820152602001611c8f565b50505050905090810190601f168015611cd45780820380516001836020036101000a031916815260200191505b50935050505060206040518083038186803b158015611cf257600080fd5b505afa158015611d06573d6000803e3d6000fd5b505050506040513d6020811015611d1c57600080fd5b50517fffffffff000000000000000000000000000000000000000000000000000000001614611d7c5760405162461bcd60e51b815260040180806020018281038252602b8152602001806153ea602b913960400191505060405180910390fd5b610d6d565b60405162461bcd60e51b81526004018080602001828103825260228152602001806153c86022913960400191505060405180910390fd5b611dc061437a565b611dc861437a565b602084015151606084015151611dde919061256a565b80519092507fffffffff0000000000000000000000000000000000000000000000000000000016611e215760405162461bcd60e51b8152600401610acf906150a1565b606084015151602084015151611e37919061256a565b80519091507fffffffff0000000000000000000000000000000000000000000000000000000016611e7a5760405162461bcd60e51b8152600401610acf906150a1565b9250929050565b611e89614392565b60e08201517fffffffff00000000000000000000000000000000000000000000000000000000167f23d235ef000000000000000000000000000000000000000000000000000000001415611eec57611ee58261010001516125c2565b9050611f6d565b60e08201517fffffffff000000000000000000000000000000000000000000000000000000009081161415611f2057611f6d565b6040805162461bcd60e51b815260206004820152601760248201527f556e6b6e6f776e204f7264657220646174612074797065000000000000000000604482015290519081900360640190fd5b8051516115cf578151611f7f906125de565b8152919050565b611f8e6143b5565b6000611f9a8887612698565b90506000611fa88887612698565b90506000611fc28a8a85858a604001518a604001516126c5565b905060008160200151118015611fd85750805115155b611ff45760405162461bcd60e51b8152600401610acf90615033565b60808a01511561204b5785604001511561202a57805161201590849061274b565b600089815261012f602052604090205561204b565b602081015161203a90849061274b565b600089815261012f60205260409020555b6080890151156120a25784604001511561208457602081015161206f90839061274b565b600088815261012f60205260409020556120a2565b805161209190839061274b565b600088815261012f60205260409020555b925050505b9695505050505050565b60008060006120c88a600001518a600001516127ac565b885160208a01519094509250905060018160028111156120e457fe5b141561215d578751875161211d919087878e8e7f1a0388dd7519a093630516a672419a2562e0e74deb98af068657dc265f0164c96129a3565b9250612158898960200151886000015188600001517fb45a3ba14423c8f1b71cc094845ab56b5294dbe8d8e3ba53f3cdb63d59a4044b612a67565b61224c565b600281600281111561216b57fe5b14156121df576121a88860200151876000015186888d8f7fb45a3ba14423c8f1b71cc094845ab56b5294dbe8d8e3ba53f3cdb63d59a4044b6129a3565b885188518651929450612158928d9291907f1a0388dd7519a093630516a672419a2562e0e74deb98af068657dc265f0164c9612a67565b875187518551612213928d9290917f1a0388dd7519a093630516a672419a2562e0e74deb98af068657dc265f0164c9612a67565b61224c898960200151886000015188600001517fb45a3ba14423c8f1b71cc094845ab56b5294dbe8d8e3ba53f3cdb63d59a4044b612a67565b5097509795505050505050565b6000828211156122b0576040805162461bcd60e51b815260206004820152601e60248201527f536166654d6174683a207375627472616374696f6e206f766572666c6f770000604482015290519081900360640190fd5b508082035b92915050565b60405160009073ffffffffffffffffffffffffffffffffffffffff84169083908381818185875af1925050503d8060008114612313576040519150601f19603f3d011682016040523d82523d6000602084013e612318565b606091505b5050905080611931576040805162461bcd60e51b815260206004820152600f60248201527f7472616e73666572206661696c65640000000000000000000000000000000000604482015290519081900360640190fd5b60007f477ed43b8020849b755512278536c3766a3b4ab547519949a75f483372493f8d82600001516123a38460200151612c1b565b84604001516123b58660600151612c1b565b86608001518760a001518860c001518960e001518a610100015180519060200120604051602001808b81526020018a73ffffffffffffffffffffffffffffffffffffffff1681526020018981526020018873ffffffffffffffffffffffffffffffffffffffff168152602001878152602001868152602001858152602001848152602001837bffffffffffffffffffffffffffffffffffffffffffffffffffffffff191681526020018281526020019a5050505050505050505050604051602081830303815290604052805190602001209050919050565b6000612497612c8b565b8260405160200180807f190100000000000000000000000000000000000000000000000000000000000081525060020183815260200182815260200192505050604051602081830303815290604052805190602001209050919050565b6000815160411461254c576040805162461bcd60e51b815260206004820152601f60248201527f45434453413a20696e76616c6964207369676e6174757265206c656e67746800604482015290519081900360640190fd5b60208201516040830151606084015160001a6120a786828585612ccb565b61257261437a565b600061257e8484612f2e565b80519091507fffffffff00000000000000000000000000000000000000000000000000000000166125bb576125b38385612f2e565b9150506122b5565b90506122b5565b6125ca614392565b818060200190518101906122b59190614b39565b60408051600180825281830190925260609160009190816020015b6126016143cf565b8152602001906001900390816125f9579050509050828160008151811061262457fe5b60200260200101516000019073ffffffffffffffffffffffffffffffffffffffff16908173ffffffffffffffffffffffffffffffffffffffff16815250506127108160008151811061267257fe5b6020908102919091018101516bffffffffffffffffffffffff9092169101529050919050565b60008260800151600014156126af575060006122b5565b50600090815261012f6020526040902054919050565b6126cd6143b5565b6000806126db898887613353565b915091506000806126ed8a8988613353565b91509150838111156127205761271584848c60200151602001518d60600151602001516133cd565b9450505050506120a7565b61273c8b60200151602001518c60600151602001518484613452565b9b9a5050505050505050505050565b6000828201838110156127a5576040805162461bcd60e51b815260206004820152601b60248201527f536166654d6174683a206164646974696f6e206f766572666c6f770000000000604482015290519081900360640190fd5b9392505050565b60007fffffffff0000000000000000000000000000000000000000000000000000000083167faaaebeba000000000000000000000000000000000000000000000000000000001415612800575060016122b5565b7fffffffff0000000000000000000000000000000000000000000000000000000082167faaaebeba000000000000000000000000000000000000000000000000000000001415612852575060026122b5565b7fffffffff0000000000000000000000000000000000000000000000000000000083167f8ae85d840000000000000000000000000000000000000000000000000000000014156128a4575060016122b5565b7fffffffff0000000000000000000000000000000000000000000000000000000082167f8ae85d840000000000000000000000000000000000000000000000000000000014156128f6575060026122b5565b7fffffffff0000000000000000000000000000000000000000000000000000000083167f973bb640000000000000000000000000000000000000000000000000000000001415612948575060016122b5565b7fffffffff0000000000000000000000000000000000000000000000000000000082167f973bb64000000000000000000000000000000000000000000000000000000000141561299a575060026122b5565b50600092915050565b60006129b7886101615488602001516134d8565b905060006129c8828a8a8887613550565b90506129d88585838c8c886136ae565b9050612a0d85828b8a602001518c887fdfdfdaf4cc275341b6776a7ee23b953990b8d991717449077287da70f32cf955613721565b5080915050612a4585828b89602001518c887fdfdfdaf4cc275341b6776a7ee23b953990b8d991717449077287da70f32cf955613721565b5080915050612a5b85828a896000015187612a67565b50979650505050505050565b600084815b6001855103811015612b61576000612ab2868381518110612a8957fe5b6020026020010151602001516bffffffffffffffffffffffff16896137ec90919063ffffffff16565b9050612aec868381518110612ac357fe5b6020026020010151602001516bffffffffffffffffffffffff168561274b90919063ffffffff16565b93508015612b5857612afe8382612259565b9250612b5860405180604001604052808b81526020018381525088888581518110612b2557fe5b602002602001015160000151887fa10bb5b2060a412d05113732875a5431ca23453eb93f797e0ffcb5b40e5f2c3e613804565b50600101612a6c565b50600084600186510381518110612b7457fe5b60200260200101519050612ba381602001516bffffffffffffffffffffffff168461274b90919063ffffffff16565b92508261271014612bc65760405162461bcd60e51b8152600401610acf9061506a565b8115612c1157612c1160405180604001604052808a815260200184815250878360000151877fa10bb5b2060a412d05113732875a5431ca23453eb93f797e0ffcb5b40e5f2c3e613804565b5050505050505050565b60007fdb6f72e915676cfc289da13bc4ece054fd17b1df6d77ffc4a60510718c236b08612c4b8360000151611936565b8360200151604051602001808481526020018381526020018281526020019350505050604051602081830303815290604052805190602001209050919050565b6000612cc67f8b73c3c69bb8fe3d512ecc4cf759cc79239f7b179b0ffacaa9a75d522b39400f612cb9613d57565b612cc1613d5d565b613d63565b905090565b60007f7fffffffffffffffffffffffffffffff5d576e7357a4501ddfe92f46681b20a0821115612d2c5760405162461bcd60e51b81526004018080602001828103825260228152602001806153a66022913960400191505060405180910390fd5b6000601e8560ff161115612e06576004850360ff16601b1480612d5557506004850360ff16601c145b612d905760405162461bcd60e51b81526004018080602001828103825260228152602001806154436022913960400191505060405180910390fd5b6001612d9b87613dd2565b60048703868660405160008152602001604052604051808581526020018460ff1681526020018381526020018281526020019450505050506020604051602081039080840390855afa158015612df5573d6000803e3d6000fd5b505050602060405103519050612ebd565b8460ff16601b1480612e1b57508460ff16601c145b612e565760405162461bcd60e51b81526004018080602001828103825260228152602001806154436022913960400191505060405180910390fd5b60018686868660405160008152602001604052604051808581526020018460ff1681526020018381526020018281526020019450505050506020604051602081039080840390855afa158015612eb0573d6000803e3d6000fd5b5050506020604051035190505b73ffffffffffffffffffffffffffffffffffffffff8116612f25576040805162461bcd60e51b815260206004820152601860248201527f45434453413a20696e76616c6964207369676e61747572650000000000000000604482015290519081900360640190fd5b95945050505050565b612f3661437a565b825182517fffffffff0000000000000000000000000000000000000000000000000000000082167faaaebeba000000000000000000000000000000000000000000000000000000001415613003577fffffffff0000000000000000000000000000000000000000000000000000000081167faaaebeba000000000000000000000000000000000000000000000000000000001415612fd85784925050506122b5565b50506040805180820182526000808252825160208181019094529081529181019190915290506122b5565b7fffffffff0000000000000000000000000000000000000000000000000000000082167f8ae85d840000000000000000000000000000000000000000000000000000000014156130aa577fffffffff0000000000000000000000000000000000000000000000000000000081167f8ae85d84000000000000000000000000000000000000000000000000000000001415612fd8576130a18585613e23565b925050506122b5565b7fffffffff0000000000000000000000000000000000000000000000000000000082167f73ad2146000000000000000000000000000000000000000000000000000000001415613148577fffffffff0000000000000000000000000000000000000000000000000000000081167f73ad2146000000000000000000000000000000000000000000000000000000001415612fd8576130a18585613e23565b7fffffffff0000000000000000000000000000000000000000000000000000000082167f973bb6400000000000000000000000000000000000000000000000000000000014156131e6577fffffffff0000000000000000000000000000000000000000000000000000000081167f973bb640000000000000000000000000000000000000000000000000000000001415612fd8576130a18585613e23565b7fffffffff00000000000000000000000000000000000000000000000000000000821660009081526065602052604090205473ffffffffffffffffffffffffffffffffffffffff168015613304576040517f6d3f7cb000000000000000000000000000000000000000000000000000000000815273ffffffffffffffffffffffffffffffffffffffff821690636d3f7cb09061328890899089906004016151a3565b60006040518083038186803b1580156132a057600080fd5b505afa1580156132b4573d6000803e3d6000fd5b505050506040513d6000823e601f3d9081017fffffffffffffffffffffffffffffffffffffffffffffffffffffffffffffffe01682016040526132fa9190810190614aad565b93505050506122b5565b7fffffffff00000000000000000000000000000000000000000000000000000000838116908316141561333b576132fa8686613e23565b60405162461bcd60e51b8152600401610acf90614efa565b600080821561339257602080860151015161336e9085612259565b915061338b85606001516020015186602001516020015184613e80565b90506133c5565b6060850151602001516133a59085612259565b90506133c285602001516020015186606001516020015183613e80565b91505b935093915050565b6133d56143b5565b60006133e2858585613e80565b905085811115613439576040805162461bcd60e51b815260206004820152601860248201527f66696c6c4c6566743a20756e61626c6520746f2066696c6c0000000000000000604482015290519081900360640190fd5b5050604080518082019091529384525050602082015290565b61345a6143b5565b6000613467838787613e80565b9050838111156134be576040805162461bcd60e51b815260206004820152601960248201527f66696c6c52696768743a20756e61626c6520746f2066696c6c00000000000000604482015290519081900360640190fd5b604080518082019091529283526020830152509392505050565b60006134ee6134e785856137ec565b859061274b565b905060005b82518110156135485761353e61353784838151811061350e57fe5b6020026020010151602001516bffffffffffffffffffffffff16876137ec90919063ffffffff16565b839061274b565b91506001016134f3565b509392505050565b60008060006135768888613571600261016154613ef590919063ffffffff16565b613f4e565b909250905080156136a35784516000907fffffffff00000000000000000000000000000000000000000000000000000000167f8ae85d840000000000000000000000000000000000000000000000000000000014156135ee5785602001518060200190518101906135e7919061476b565b9050613658565b85517fffffffff00000000000000000000000000000000000000000000000000000000167f973bb64000000000000000000000000000000000000000000000000000000000141561365857600086602001518060200190518101906136539190614979565b509150505b6136a16040518060400160405280888152602001848152508861367a84613f70565b887ff87e69cb514f255f3d32f9d90f25160a10d0cdefe6618a6406db334d4450595c613804565b505b509695505050505050565b6000806136ba87613fc9565b90506000806136ee8a8989868a8a7fb3c5c697ec0b511b76d12f6293e6ee827b1e1df79ac7c64d0466d945904893d7613721565b915091506113888111156137145760405162461bcd60e51b8152600401610acf90614f31565b5098975050505050505050565b856000805b865181101561224c5761376787828151811061373e57fe5b6020026020010151602001516bffffffffffffffffffffffff168361274b90919063ffffffff16565b915060008061379c858b8b868151811061377d57fe5b6020026020010151602001516bffffffffffffffffffffffff16613f4e565b909550859250905080156137e2576137e260405180604001604052808e815260200183815250898b86815181106137cf57fe5b6020026020010151600001518a8a613804565b5050600101613726565b60006127a56127106137fe8585613ef5565b9061424b565b8451517fffffffff00000000000000000000000000000000000000000000000000000000167faaaebeba00000000000000000000000000000000000000000000000000000000141561387b5760208501516138769073ffffffffffffffffffffffffffffffffffffffff8516906122bb565b613d11565b8451517fffffffff00000000000000000000000000000000000000000000000000000000167f8ae85d840000000000000000000000000000000000000000000000000000000014156139c95760008560000151602001518060200190518101906138e5919061476b565b7f8ae85d8400000000000000000000000000000000000000000000000000000000600052609760209081527f4532fa16f071d6234e30e1a1e69b9806f04095edf37a1ca7a25c8d6af7861cc054908801516040517f776062c300000000000000000000000000000000000000000000000000000000815292935073ffffffffffffffffffffffffffffffffffffffff9091169163776062c3916139919185918a918a9190600401614ec3565b600060405180830381600087803b1580156139ab57600080fd5b505af11580156139bf573d6000803e3d6000fd5b5050505050613d11565b8451517fffffffff00000000000000000000000000000000000000000000000000000000167f73ad2146000000000000000000000000000000000000000000000000000000001415613b3957600080866000015160200151806020019051810190613a349190614979565b915091508660200151600114613a5c5760405162461bcd60e51b8152600401610acf90614ffc565b7f73ad21460000000000000000000000000000000000000000000000000000000060005260976020527f30a684095c937b5aa064dcf94f9903a7d808e3efb22d8389dbd43080ad4ed3d5546040517ff709b90600000000000000000000000000000000000000000000000000000000815273ffffffffffffffffffffffffffffffffffffffff9091169063f709b90690613b009085908a908a908790600401614ec3565b600060405180830381600087803b158015613b1a57600080fd5b505af1158015613b2e573d6000803e3d6000fd5b505050505050613d11565b8451517fffffffff00000000000000000000000000000000000000000000000000000000167f973bb640000000000000000000000000000000000000000000000000000000001415613c5257600080866000015160200151806020019051810190613ba49190614979565b7f973bb64000000000000000000000000000000000000000000000000000000000600052609760209081527f4b5822151ea34b7c8d9e37c3e466bcecb631efe6a9f26a4a4054110a93dd316f54908a01516040517f9c1c2ee900000000000000000000000000000000000000000000000000000000815293955091935073ffffffffffffffffffffffffffffffffffffffff1691639c1c2ee991613b009186918b918b918891600401614e73565b8451517fffffffff0000000000000000000000000000000000000000000000000000000016600090815260976020526040908190205490517f54bc0cf100000000000000000000000000000000000000000000000000000000815273ffffffffffffffffffffffffffffffffffffffff909116906354bc0cf190613cde908890889088906004016151c8565b600060405180830381600087803b158015613cf857600080fd5b505af1158015613d0c573d6000803e3d6000fd5b505050505b7fcae9d16f553e92058883de29cb3135dbc0c1e31fd7eace79fef1d80577fe482e8585858585604051613d48959493929190615208565b60405180910390a15050505050565b60c95490565b60ca5490565b6000838383613d706142b2565b30604051602001808681526020018581526020018481526020018381526020018273ffffffffffffffffffffffffffffffffffffffff168152602001955050505050506040516020818303038152906040528051906020012090509392505050565b604080517f19457468657265756d205369676e6564204d6573736167653a0a333200000000602080830191909152603c8083019490945282518083039094018452605c909101909152815191012090565b613e2b61437a565b60208084015180519082012083820151805192019190912080821415613e555784925050506122b5565b5050604080518082018252600080825282516020808201909452908152918101919091529392505050565b6000613e8d8484846142b6565b15613edf576040805162461bcd60e51b815260206004820152600e60248201527f726f756e64696e67206572726f72000000000000000000000000000000000000604482015290519081900360640190fd5b613eed836137fe8685613ef5565b949350505050565b600082613f04575060006122b5565b82820282848281613f1157fe5b04146127a55760405162461bcd60e51b81526004018080602001828103825260218152602001806154656021913960400191505060405180910390fd5b600080613f6485613f5f86866137ec565b614352565b91509150935093915050565b73ffffffffffffffffffffffffffffffffffffffff808216600090815261016460205260408120549091168015613fa85790506115cf565b50506101635473ffffffffffffffffffffffffffffffffffffffff16919050565b80516060907fffffffff00000000000000000000000000000000000000000000000000000000167f973bb64000000000000000000000000000000000000000000000000000000000148061405f575081517fffffffff00000000000000000000000000000000000000000000000000000000167f73ad214600000000000000000000000000000000000000000000000000000000145b1561415957600080836020015180602001905181019061407f9190614979565b610162546040517f9ca7dc7a00000000000000000000000000000000000000000000000000000000815292945090925073ffffffffffffffffffffffffffffffffffffffff1690639ca7dc7a906140dc9085908590600401614d95565b600060405180830381600087803b1580156140f657600080fd5b505af115801561410a573d6000803e3d6000fd5b505050506040513d6000823e601f3d9081017fffffffffffffffffffffffffffffffffffffffffffffffffffffffffffffffe016820160405261415091908101906149de565b925050506115cf565b81517fffffffff00000000000000000000000000000000000000000000000000000000167f1cdfaa400000000000000000000000000000000000000000000000000000000014156141ce5760008083602001518060200190518101906141bf9190614787565b6080015193506115cf92505050565b81517fffffffff00000000000000000000000000000000000000000000000000000000167fd8f960c10000000000000000000000000000000000000000000000000000000014156142435760008083602001518060200190518101906142349190614885565b6060015193506115cf92505050565b506060919050565b60008082116142a1576040805162461bcd60e51b815260206004820152601a60248201527f536166654d6174683a206469766973696f6e206279207a65726f000000000000604482015290519081900360640190fd5b8183816142aa57fe5b049392505050565b4690565b60008261430a576040805162461bcd60e51b815260206004820152601060248201527f6469766973696f6e206279207a65726f00000000000000000000000000000000604482015290519081900360640190fd5b811580614315575083155b15614322575060006127a5565b6000838061432c57fe5b858409905061433b8584613ef5565b614347826103e8613ef5565b101595945050505050565b60008082841115614371576143678484612259565b9150829050611e7a565b50600093915050565b60408051808201909152600081526060602082015290565b604051806060016040528060608152602001606081526020016000151581525090565b604051806040016040528060008152602001600081525090565b604080518082019091526000808252602082015290565b80356115cf8161532f565b600082601f830112614401578081fd5b81516020614416614411836152a5565b615281565b82815281810190858301855b8581101561444b57614439898684518b0101614570565b84529284019290840190600101614422565b5090979650505050505050565b600082601f830112614468578081fd5b81516020614478614411836152a5565b82815281810190858301604080860288018501891015614496578687fd5b865b8681101561450b5781838b0312156144ae578788fd5b815182810181811067ffffffffffffffff821117156144c957fe5b835283516144d68161532f565b8152838701516bffffffffffffffffffffffff811681146144f557898afd5b8188015285529385019391810191600101614498565b509198975050505050505050565b80356115cf81615351565b600082601f830112614534578081fd5b8135614542614411826152c3565b818152846020838601011115614556578283fd5b816020850160208301379081016020019190915292915050565b600082601f830112614580578081fd5b815161458e614411826152c3565b8181528460208386010111156145a2578283fd5b613eed826020830160208701615303565b600060408083850312156145c5578182fd5b805181810167ffffffffffffffff82821081831117156145e157fe5b8184528294508535818111156145f657600080fd5b860180880385131561460757600080fd5b60808401838110838211171561461957fe5b90945283359361462885615351565b9382526020840135938185111561463e57600080fd5b61464a88868301614524565b60608501525050815260209384013593019290925292915050565b6000610120808385031215614678578182fd5b61468181615281565b91505061468d826143e6565b8152602082013567ffffffffffffffff808211156146aa57600080fd5b6146b6858386016145b3565b60208401526146c7604085016143e6565b604084015260608401359150808211156146e057600080fd5b6146ec858386016145b3565b60608401526080840135608084015260a084013560a084015260c084013560c084015261471b60e08501614519565b60e08401526101009150818401358181111561473657600080fd5b61474286828701614524565b8385015250505092915050565b600060208284031215614760578081fd5b81356127a58161532f565b60006020828403121561477c578081fd5b81516127a58161532f565b60008060408385031215614799578081fd5b82516147a48161532f565b602084015190925067ffffffffffffffff808211156147c1578283fd5b9084019060c082870312156147d4578283fd5b6147de60c0615281565b825181526020830151828111156147f3578485fd5b6147ff88828601614570565b60208301525060408301516040820152606083015182811115614820578485fd5b61482c88828601614458565b606083015250608083015182811115614843578485fd5b61484f88828601614458565b60808301525060a083015182811115614866578485fd5b614872888286016143f1565b60a0830152508093505050509250929050565b60008060408385031215614897578182fd5b82516148a28161532f565b602084015190925067ffffffffffffffff808211156148bf578283fd5b9084019060a082870312156148d2578283fd5b6148dc60a0615281565b825181526020830151828111156148f1578485fd5b6148fd88828601614570565b602083015250604083015182811115614914578485fd5b61492088828601614458565b604083015250606083015182811115614937578485fd5b61494388828601614458565b60608301525060808301518281111561495a578485fd5b614966888286016143f1565b6080830152508093505050509250929050565b6000806040838503121561498b578182fd5b82516149968161532f565b6020939093015192949293505050565b600080604083850312156149b8578182fd5b82356149c38161532f565b915060208301356149d38161532f565b809150509250929050565b6000602082840312156149ef578081fd5b815167ffffffffffffffff811115614a05578182fd5b613eed84828501614458565b600060208284031215614a22578081fd5b5035919050565b60008060408385031215614a3b578182fd5b82356149c381615351565b600080600080600060a08688031215614a5d578081fd5b8535614a688161532f565b94506020860135614a788161532f565b9350604086013592506060860135614a8f8161532f565b91506080860135614a9f8161532f565b809150509295509295909350565b600060208284031215614abe578081fd5b815167ffffffffffffffff80821115614ad5578283fd5b9083019060408286031215614ae8578283fd5b604051604081018181108382111715614afd57fe5b6040528251614b0b81615351565b8152602083015182811115614b1e578485fd5b614b2a87828601614570565b60208301525095945050505050565b600060208284031215614b4a578081fd5b815167ffffffffffffffff80821115614b61578283fd5b9083019060608286031215614b74578283fd5b604051606081018181108382111715614b8957fe5b604052825182811115614b9a578485fd5b614ba687828601614458565b825250602083015182811115614bba578485fd5b614bc687828601614458565b602083015250604083015192508215158314614be0578384fd5b6040810192909252509392505050565b600060208284031215614c01578081fd5b813567ffffffffffffffff811115614c17578182fd5b613eed84828501614665565b60008060008060808587031215614c38578182fd5b843567ffffffffffffffff80821115614c4f578384fd5b614c5b88838901614665565b95506020870135915080821115614c70578384fd5b614c7c88838901614524565b94506040870135915080821115614c91578384fd5b614c9d88838901614665565b93506060870135915080821115614cb2578283fd5b50614cbf87828801614524565b91505092959194509250565b60007fffffffff0000000000000000000000000000000000000000000000000000000082511683526020820151604060208501528051806040860152614d18816060870160208501615303565b601f017fffffffffffffffffffffffffffffffffffffffffffffffffffffffffffffffe016939093016060019392505050565b6000815160408452614d606040850182614ccb565b602093840151949093019390935250919050565b73ffffffffffffffffffffffffffffffffffffffff91909116815260200190565b73ffffffffffffffffffffffffffffffffffffffff929092168252602082015260400190565b600085825273ffffffffffffffffffffffffffffffffffffffff8516602083015260806040830152614df06080830185614ccb565b8281036060840152614e028185614ccb565b979650505050505050565b60006101008a835289602084015273ffffffffffffffffffffffffffffffffffffffff808a1660408501528089166060850152508660808401528560a08401528060c0840152614e5f81840186614ccb565b905082810360e084015261273c8185614ccb565b73ffffffffffffffffffffffffffffffffffffffff958616815293851660208501529190931660408301526060820192909252608081019190915260c060a0820181905260009082015260e00190565b73ffffffffffffffffffffffffffffffffffffffff9485168152928416602084015292166040820152606081019190915260800190565b60208082526017908201527f6e6f7420666f756e64204941737365744d617463686572000000000000000000604082015260600190565b6020808252601d908201527f526f79616c746965732061726520746f6f206869676820283e35302529000000604082015260600190565b60208082526014908201527f302073616c742063616e27742062652075736564000000000000000000000000604082015260600190565b60208082526024908201527f72696768744f726465722e74616b657220766572696669636174696f6e20666160408201527f696c656400000000000000000000000000000000000000000000000000000000606082015260800190565b60208082526012908201527f6572633732312076616c7565206572726f720000000000000000000000000000604082015260600190565b6020808252600f908201527f6e6f7468696e6720746f2066696c6c0000000000000000000000000000000000604082015260600190565b6020808252601e908201527f53756d207061796f75747320427073206e6f7420657175616c20313030250000604082015260600190565b60208082526012908201527f61737365747320646f6e2774206d617463680000000000000000000000000000604082015260600190565b60208082526023908201527f6c6566744f726465722e74616b657220766572696669636174696f6e2066616960408201527f6c65640000000000000000000000000000000000000000000000000000000000606082015260800190565b6020808252600e908201527f6e6f7420656e6f75676820657468000000000000000000000000000000000000604082015260600190565b6020808252600b908201527f6e6f742061206d616b6572000000000000000000000000000000000000000000604082015260600190565b6000604082526151b66040830185614ccb565b8281036020840152612f258185614ccb565b6000606082526151db6060830186614d4b565b73ffffffffffffffffffffffffffffffffffffffff94851660208401529290931660409091015292915050565b600060a0825261521b60a0830188614d4b565b73ffffffffffffffffffffffffffffffffffffffff96871660208401529490951660408201527fffffffff000000000000000000000000000000000000000000000000000000009283166060820152911660809091015292915050565b90815260200190565b60405181810167ffffffffffffffff8111828210171561529d57fe5b604052919050565b600067ffffffffffffffff8211156152b957fe5b5060209081020190565b600067ffffffffffffffff8211156152d757fe5b50601f017fffffffffffffffffffffffffffffffffffffffffffffffffffffffffffffffe01660200190565b60005b8381101561531e578181015183820152602001615306565b83811115610d6d5750506000910152565b73ffffffffffffffffffffffffffffffffffffffff81168114610fed57600080fd5b7fffffffff0000000000000000000000000000000000000000000000000000000081168114610fed57600080fdfe4f776e61626c653a206e6577206f776e657220697320746865207a65726f206164647265737345434453413a20696e76616c6964207369676e6174757265202773272076616c75656f72646572207369676e617475726520766572696669636174696f6e206572726f72636f6e7472616374206f72646572207369676e617475726520766572696669636174696f6e206572726f72496e697469616c697a61626c653a20636f6e747261637420697320616c726561647920696e697469616c697a656445434453413a20696e76616c6964207369676e6174757265202776272076616c7565536166654d6174683a206d756c7469706c69636174696f6e206f766572666c6f77a26469706673582212208a5b42d4d586b63e605fbdbbb14bc521a1debad7c1958e9bc37eeca5d5c2d4f864736f6c63430007060033",
  "devdoc": {
    "kind": "dev",
    "methods": {
      "owner()": {
        "details": "Returns the address of the current owner."
      },
      "renounceOwnership()": {
        "details": "Leaves the contract without owner. It will not be possible to call `onlyOwner` functions anymore. Can only be called by the current owner. NOTE: Renouncing ownership will leave the contract without an owner, thereby removing any functionality that is only available to the owner."
      },
      "transferOwnership(address)": {
        "details": "Transfers ownership of the contract to a new account (`newOwner`). Can only be called by the current owner."
      }
    },
    "version": 1
  },
  "userdoc": {
    "kind": "user",
    "methods": {},
    "version": 1
  },
  "storageLayout": {
    "storage": [
      {
        "astId": 812,
        "contract": "@sipher/exchange-v2/contracts/Exchange.sol:Exchange",
        "label": "_initialized",
        "offset": 0,
        "slot": "0",
        "type": "t_bool"
      },
      {
        "astId": 815,
        "contract": "@sipher/exchange-v2/contracts/Exchange.sol:Exchange",
        "label": "_initializing",
        "offset": 1,
        "slot": "0",
        "type": "t_bool"
      },
      {
        "astId": 1662,
        "contract": "@sipher/exchange-v2/contracts/Exchange.sol:Exchange",
        "label": "__gap",
        "offset": 0,
        "slot": "1",
        "type": "t_array(t_uint256)50_storage"
      },
      {
        "astId": 10,
        "contract": "@sipher/exchange-v2/contracts/Exchange.sol:Exchange",
        "label": "_owner",
        "offset": 0,
        "slot": "51",
        "type": "t_address"
      },
      {
        "astId": 129,
        "contract": "@sipher/exchange-v2/contracts/Exchange.sol:Exchange",
        "label": "__gap",
        "offset": 0,
        "slot": "52",
        "type": "t_array(t_uint256)49_storage"
      },
      {
        "astId": 3714,
        "contract": "@sipher/exchange-v2/contracts/Exchange.sol:Exchange",
        "label": "matchers",
        "offset": 0,
        "slot": "101",
        "type": "t_mapping(t_bytes4,t_address)"
      },
      {
        "astId": 3960,
        "contract": "@sipher/exchange-v2/contracts/Exchange.sol:Exchange",
        "label": "__gap",
        "offset": 0,
        "slot": "102",
        "type": "t_array(t_uint256)49_storage"
      },
      {
        "astId": 6358,
        "contract": "@sipher/exchange-v2/contracts/Exchange.sol:Exchange",
        "label": "proxies",
        "offset": 0,
        "slot": "151",
        "type": "t_mapping(t_bytes4,t_address)"
      },
      {
        "astId": 6604,
        "contract": "@sipher/exchange-v2/contracts/Exchange.sol:Exchange",
        "label": "__gap",
        "offset": 0,
        "slot": "152",
        "type": "t_array(t_uint256)49_storage"
      },
      {
        "astId": 138,
        "contract": "@sipher/exchange-v2/contracts/Exchange.sol:Exchange",
        "label": "_HASHED_NAME",
        "offset": 0,
        "slot": "201",
        "type": "t_bytes32"
      },
      {
        "astId": 140,
        "contract": "@sipher/exchange-v2/contracts/Exchange.sol:Exchange",
        "label": "_HASHED_VERSION",
        "offset": 0,
        "slot": "202",
        "type": "t_bytes32"
      },
      {
        "astId": 289,
        "contract": "@sipher/exchange-v2/contracts/Exchange.sol:Exchange",
        "label": "__gap",
        "offset": 0,
        "slot": "203",
        "type": "t_array(t_uint256)50_storage"
      },
      {
        "astId": 5395,
        "contract": "@sipher/exchange-v2/contracts/Exchange.sol:Exchange",
        "label": "__gap",
        "offset": 0,
        "slot": "253",
        "type": "t_array(t_uint256)50_storage"
      },
      {
        "astId": 4047,
        "contract": "@sipher/exchange-v2/contracts/Exchange.sol:Exchange",
        "label": "fills",
        "offset": 0,
        "slot": "303",
        "type": "t_mapping(t_bytes32,t_uint256)"
      },
      {
        "astId": 4580,
        "contract": "@sipher/exchange-v2/contracts/Exchange.sol:Exchange",
        "label": "__gap",
        "offset": 0,
        "slot": "304",
        "type": "t_array(t_uint256)49_storage"
      },
      {
        "astId": 5422,
        "contract": "@sipher/exchange-v2/contracts/Exchange.sol:Exchange",
        "label": "protocolFee",
        "offset": 0,
        "slot": "353",
        "type": "t_uint256"
      },
      {
        "astId": 5424,
        "contract": "@sipher/exchange-v2/contracts/Exchange.sol:Exchange",
        "label": "royaltiesRegistry",
        "offset": 0,
        "slot": "354",
        "type": "t_contract(IRoyaltiesProvider)8792"
      },
      {
        "astId": 5426,
        "contract": "@sipher/exchange-v2/contracts/Exchange.sol:Exchange",
        "label": "defaultFeeReceiver",
        "offset": 0,
        "slot": "355",
        "type": "t_address"
      },
      {
        "astId": 5430,
        "contract": "@sipher/exchange-v2/contracts/Exchange.sol:Exchange",
        "label": "feeReceivers",
        "offset": 0,
        "slot": "356",
        "type": "t_mapping(t_address,t_address)"
      },
      {
        "astId": 6334,
        "contract": "@sipher/exchange-v2/contracts/Exchange.sol:Exchange",
        "label": "__gap",
        "offset": 0,
        "slot": "357",
        "type": "t_array(t_uint256)46_storage"
      }
    ],
    "types": {
      "t_address": {
        "encoding": "inplace",
        "label": "address",
        "numberOfBytes": "20"
      },
      "t_array(t_uint256)46_storage": {
        "base": "t_uint256",
        "encoding": "inplace",
        "label": "uint256[46]",
        "numberOfBytes": "1472"
      },
      "t_array(t_uint256)49_storage": {
        "base": "t_uint256",
        "encoding": "inplace",
        "label": "uint256[49]",
        "numberOfBytes": "1568"
      },
      "t_array(t_uint256)50_storage": {
        "base": "t_uint256",
        "encoding": "inplace",
        "label": "uint256[50]",
        "numberOfBytes": "1600"
      },
      "t_bool": {
        "encoding": "inplace",
        "label": "bool",
        "numberOfBytes": "1"
      },
      "t_bytes32": {
        "encoding": "inplace",
        "label": "bytes32",
        "numberOfBytes": "32"
      },
      "t_bytes4": {
        "encoding": "inplace",
        "label": "bytes4",
        "numberOfBytes": "4"
      },
      "t_contract(IRoyaltiesProvider)8792": {
        "encoding": "inplace",
        "label": "contract IRoyaltiesProvider",
        "numberOfBytes": "20"
      },
      "t_mapping(t_address,t_address)": {
        "encoding": "mapping",
        "key": "t_address",
        "label": "mapping(address => address)",
        "numberOfBytes": "32",
        "value": "t_address"
      },
      "t_mapping(t_bytes32,t_uint256)": {
        "encoding": "mapping",
        "key": "t_bytes32",
        "label": "mapping(bytes32 => uint256)",
        "numberOfBytes": "32",
        "value": "t_uint256"
      },
      "t_mapping(t_bytes4,t_address)": {
        "encoding": "mapping",
        "key": "t_bytes4",
        "label": "mapping(bytes4 => address)",
        "numberOfBytes": "32",
        "value": "t_address"
      },
      "t_uint256": {
        "encoding": "inplace",
        "label": "uint256",
        "numberOfBytes": "32"
      }
    }
  }
}